:020000040800F2
:10000000A0050020AD010008AF16000891140008FB
:10001000AD160008C5020008AF1A00080000000075
:10002000000000000000000000000000D7170008DA
:100030000103000800000000D5170008D9170008C8
:10004000C7010008C7010008C7010008C701000870
:10005000C7010008C7010008C7010008C701000860
:10006000C7010008C7010008C7010008C701000850
:10007000C7010008C7010008C7010008C701000840
:10008000C7010008C7010008C70100080000000000
:10009000000000000000000000000000C701000890
:1000A000C7010008C7010008C7010008C701000810
:1000B000C7010008C7010008C7010008C701000800
:1000C000C7010008C7010008C7010008C7010008F0
:1000D000C7010008C7010008C701000800000000B0
:1000E000C7010008C7010008C701000800000000A0
:1000F000000000000000000000000000C701000830
:1001000000000000C7010008C7010008C70100087F
:1001100000000000000000000000000000000000DF
:10012000C9020008C7010008C7010008C70100088C
:10013000C7010008000000000000000000000000EF
:10014000000000000000000000000000C7010008DF
:10015000C7010008C7010008C7010008C70100085F
:10016000C7010008C70100080000000000000000EF
:10017000000000000000000000000000000000007F
:1001800000000000C701000800000000000000009F
:10019000C7010008C7010008DFF80CD000F07AF8AA
:1001A00000480047B11A0008A00500200648804713
:1001B00006480047FEE7FEE7FEE7FEE7FEE7FEE74C
:1001C000FEE7FEE7FEE7FEE77D180008990100085C
:1001D0002DE9F05F0546002092469B46884606467C
:1001E000814640241BE0284641464746224600F00F
:1001F00041F853465A46C01A914110D31146184649
:10020000224600F028F82D1A67EB01084F462246D7
:100210000120002100F01FF817EB00094E41201EBD
:10022000A4F10104DFDC484631462A464346BDE8D6
:10023000F09FD2B201E000F8012B491EFBD27047BB
:100240000022F6E710B513460A4604461946FFF7A2
:10025000F0FF204610BD202A04DB203A00FA02F10C
:10026000002070479140C2F1200320FA03F31943A4
:1002700090407047202A04DB203A21FA02F0002146
:10028000704721FA02F3D040C2F1200291400843A6
:10029000194670471CB50948009009480190054669
:1002A000009C06E0E06840F0010394E807009847EE
:1002B0001034AC42F6D3FFF773FF0000601B000858
:1002C000801B0008FEE70000CD4800F09DB900BF8C
:1002D000026840F2FF3122EA010102F0F802103A0E
:1002E0005F2A88BF043181651823B2FBF3F202A3B1
:1002F0009A5CC26508467047000610160006101684
:10030000704772B6FEE70000F8B50022009290F840
:100310003C20012A01D1022152E0012280F83C2038
:100320000A680A2A1FFA82FC09D34FEA4C0313FA1F
:1003300082F3A3F11E05036803F10C0604E00368D1
:1003400002EB420503F1100607273468AF40BC43B7
:1003500034608C68AC4035682C43346049680629A9
:1003600009D801EB81014C1F1F2101FA04F5194640
:1003700051F8346F14E001EB81050C2908D8A5F180
:1003800023041F2101FA04F5194651F8306F07E0E4
:10039000A5F141041F2101FA04F5194651F82C6F0B
:1003A00026EA05050CFA04F40D600D682C430C6078
:1003B0006849A1F54174A34204D0002180F83C10A3
:1003C0000846F8BD112A0DD0134B9A420AD0122AC2
:1003D000F3D10A6822F400020A600A6842F480023B
:1003E0000A60EAE70B6823F480030B600B6843F4B0
:1003F00000030B6008498A42DFD1D949074A0968DE
:10040000B1FBF2F101EB8101490000910099002953
:10041000D3D000990139F8E71200001040420F00D4
:10042000002841D070B50446006C30B9204600F079
:1004300099F8002084F83C006064206CC00635D434
:10044000206C41F20211884342490230206408685E
:1004500020F44030086094E80D0025690E683243AE
:100460000A60416821F480714160416841EA0521D8
:100470004160416821F04071416041681943364B49
:100480004160816821F400618160E1688268114304
:100490008160816821F070618160A26A81689A42FE
:1004A00006D121F040510CE00120704701204CE0C2
:1004B00011438160816821F040518160E16A826866
:1004C00011438160816821F00201816094F820204D
:1004D000217E836843EA4101816041686AB141F449
:1004E00000611E4A4160416821F460414160616AD7
:1004F00002EB41314268114301E021F400614160A7
:10050000174BC16A21F47001C162E269616903EBB2
:100510000252C36A1A43C262826822F40072826085
:1005200094F83020836843EA42228260826822F491
:1005300080628260826842EA81210122816000201B
:100540006064216C62F301012164002184F83C1095
:1005500070BD00BF042301400100000F00E0FFFF59
:100560000000F0FF70B586B0044601A81421FFF723
:1005700067FE2168204881423BD100261F4900F5D3
:10058000604000964A6942F480724A614A6902F406
:1005900080720092009A00960A6842F001020A6096
:1005A000096801F0010100910321039602910121E4
:1005B0000191009901A900F055F9114D4FF4003057
:1005C000104B4FF400614FF48062C5E908064FF408
:1005D0000050C5E90036C5E90266C5E90421C5E950
:1005E0000606284600F0BEF808B1FFF78AFEAC63A5
:1005F000A56306B070BD00BF002001403038024046
:100600005800002010640240F8B504460020544A07
:1006100008210090D4E91660156837688140394296
:100620000CD0226813685B0708D5136823F0040315
:100630001360B160616D41F001016165012181408C
:10064000394208D022685269120604D5B160616D42
:1006500041F00201616504218140394208D02268DD
:100660001268920704D5B160616D41F004016165C3
:1006700010218140394217D020680268120713D533
:10068000B16002680168520306D4C90506D4016846
:1006900021F00801016001E0080301D4216C00E0B1
:1006A000A16C09B120468847E16D202000FA01F2D3
:1006B0003A4233D020680368DB062FD5B26094F845
:1006C00035300268052B15D122F01602026042690E
:1006D00022F080024261226C0AB9A26C1AB102684F
:1006E00022F0080202603F208840B06000F0EBFF7B
:1006F000216D2FE00168520308D4C9050AD40168AE
:1007000021F01001016000F0DEFF03E0080301D4D6
:10071000616C00E0E16B09B120468847606DF0B183
:10072000606DC00715D005214FF4165084F83510C0
:10073000B5FBF0F021680A6822F001020A60009A15
:1007400001328242009202D80A68D207F7D100F043
:10075000BAFFE16C19B12046BDE8F8400847F8BD82
:10076000080000202DE9F041044600F04DF9ACB13D
:100770000546022084F8350000F0CDFF206800F027
:10078000A9FF21680868C0070BD000F03DF9401BA5
:100790000528F6D90325202603205BE00120BDE8CB
:1007A000F081086804F1040C2D4A9CE8E81100EA85
:1007B000020ED4E9072043EA0E032B4333433B43A5
:1007C00043EA08031A43636A104340EA0C02042B0D
:1007D00003D1D4E90B05284302430A60042B48697E
:1007E00020F0070040EA030228D1D4E90A733A4313
:1007F00023B3BCF5005F08D0BCF1000F14D1022F69
:1008000015D0012F0AD0002F10E0032F16D8012594
:1008100040260120DFE807F01E0B1E02A3F1C07086
:10082000B0FA80F0400904E0032F03D306D1C3F3EC
:10083000006018B10125402601200BE020464A61E6
:10084000FFF746FDE16D3F220026012502FA01F186
:1008500081600020666584F83550BDE8F08100BFF6
:100860003F8010F02DE9FE4F5E4A07244FF0010B48
:100870004FF0000C90425C4A08BF042402444FEA47
:10088000B223042B38BF4FEAB22400F120020194B6
:10089000009200250022102A08BFBDE8FE8F0C68D8
:1008A0000BFA02FA14EA0A0900F09780D1F804E082
:1008B000032303FA0CF40EF00308E643A8F1010445
:1008C000012C12D88468D1F80CB00BFA0CF7344024
:1008D0004FF0010B3C438460CEF300144768944012
:1008E00027EA0A073C43446005E0B8F1030F02D150
:1008F0004FF0030823E0C4688F68344007FA0CF710
:100900003C43B8F1020FC46019D105F01C040F2359
:10091000A84603FA04F76FF0030303EA520E009BA4
:100920001D4653F80E30BB430F6907FA04F4234306
:1009300045F80E304546D1F804E00EF0030804688F
:1009400008FA0CF3344023431EF4403F036044D0C4
:100950000023284C254EA8460293236843F4804385
:10096000236023680F2403F48043029305F00C03F3
:1009700022F00305029F35449C401F4FBE46EF59AD
:1009800027EA0404019F07FA03F3234345F80E30D6
:10099000B3684D6843EA0904EF0258BF23EA09042B
:1009A000134BB460AF029E461B6843EA090458BF6C
:1009B00023EA0904CEF80040AF03736843EA090450
:1009C00058BF23EA09047460ED033368454643EADF
:1009D000090458BF23EA090434600CF1020C043501
:1009E000013258E7001002400000FEBF003C014009
:1009F0000C3C01404438024008FCFFFF002A08BFBD
:100A0000090481617047000073480068704700BFA7
:100A100010B3F8B5044690F83D0020B900F0D6FEBA
:100A2000204600F087F800F0C1FE016841F4004163
:100A30000160016821F40041016000F0F5F963688C
:100A4000384A394993423CBF48F28041C0F21E0106
:100A5000884203D20120F8BD0120704733494FF48A
:100A60007A77B0FBF1F521684E6826F03F062E43F9
:100A70004E604FF496766E43934228BFB6FBF7F56F
:100A80006A1C0D6A25F03F052A434CF6FF750A6281
:100A9000CA69AA43264DAB420AD85B000138B0FBB5
:100AA000F3F001306FF31F30042898BF042013E0E7
:100AB000A56801383DB119256B4300F080FE0AD0CE
:100AC00000F5804004E003EB430300F078FE02D021
:100AD00000F5004000E00120104304F10C06C8615D
:100AE000E0690A6822F0C0021043226A104348F20B
:100AF000FF320860886890436CCE184310438860CA
:100B0000C86820F0FF0028433043C86000F031FE81
:100B100000202021206484F83D10206384F83E00EA
:100B2000F8BD00BFA186010000093D0040420F0052
:100B3000A08601002DE9F04387B0054602A81421E4
:100B4000FFF77EFB1E4C2968A4F5D630814233D1D5
:100B500000271C4E4FF003084FF012090197306830
:100B600040F002003060306800F002000190042084
:100B7000CDE90478CDF80C9006904FF48060029097
:100B8000019802AD20462946FFF76CFE0920294650
:100B9000CDE90397CDE905804FF40070029020461F
:100BA000FFF760FE0197306940F4800030613069E2
:100BB00000F480000190019807B0BDE8F08300BF09
:100BC00000040240303802401F48034900780A6898
:100BD00010440860704700BF9C01002080B50B489E
:100BE000016841F400710160016841F480610160B5
:100BF000016841F480710160032000F079F80F2052
:100C000000F006F800F022F8002080BD003C024011
:100C100070B50D4E04464FF47A713078B1FBF0F0A8
:100C200086490968B1FBF0F000F0D2FA01250F2CDB
:100C300008D838B94FF0FF3021460022002500F0D7
:100C400031F87460284670BD0000002082B000209A
:100C50000B4901904A6842F480424A604A6802F4B3
:100C600080420192019A0090086840F0805008602C
:100C7000086800F080500090009802B0704700BFF4
:100C800040380240002809D41C21012201EAD00189
:100C900000F01F0002FA00F0014A8850704700BFC0
:100CA00000E100E0F0B5184B4FF0FF361C68C4F3CC
:100CB0000224E51E84F0070438BF002506FA05F774
:100CC000BA43042C28BF042406FA04F4A14300F01C
:100CD0000F04A940043C1143044A2344090102447F
:100CE000002848BF03F10C021170F0BD00E400E0E1
:100CF00005494FF6FF030A681A4060F30A220348C9
:100D000010430860704700BF0CED00E00000FA05DA
:100D1000002852D02DE9F041404B04468846D3F8D4
:100D2000000400F00700884204D283F8008400F039
:100D3000C4FC4BD12068810711D5410703D59968C0
:100D400041F4E0519960010703D5996841F460418D
:100D50009960A1689A6822F0F00211439960C00777
:100D60002DD100F0AAFC04D983F8008400F0A5FC82
:100D70002CD12068410705D5E1689A6822F4E05239
:100D800011439960000706D52069996821F46041F4
:100D900041EAC00098601C4600F056F8A168204A5D
:100DA000C1F30311515CC840244908601D48006824
:100DB000FFF72EFF0020BDE8F0810120704760683A
:100DC000811E022905D21968890107D40120BDE8D6
:100DD000F08101281DD119688903F7D599681D464E
:100DE00021F0030108439860FFF70EFE064641F22A
:100DF00088376068A9682B4601F00C01B1EB800FC1
:100E0000AFD0FFF701FE801BB842F2D90320BDE846
:100E1000F08119688907D9D5E0E700BF00380240A2
:100E2000481B00080400002004480549054A0068E2
:100E30000968C1F38221515CC84070470800002056
:100E400008380240581B000810B5134C606800F0C9
:100E50000C00082804D0042814BF1048104810BD06
:100E6000226820680023400202F03F020C485CBF69
:100E700042F20040C0F2F4002168C1F38811A0FBE7
:100E80000101FFF7A5F921680222C1F3014102EB3C
:100E90004101B0FBF1F010BD043802400024F40021
:100EA00040787D01002864D02DE9FC41044600789B
:100EB000C44EC0070CD0B06800F00C00042840F00D
:100EC00090803068800303D56068002800F0A1801E
:100ED0002078800719D5B06810F00C0F07D000F00B
:100EE00015FC40F099807068400200F195803068F0
:100EF000800703D5E068012840F08B8020693168C5
:100F000021F0F80141EAC00030602078000732D4B7
:100F10002078400742D4A76947B300F0F7FB40F0C0
:100F2000AD80012F75D0E169706800F480028A42BB
:100F30006FD1216A00F03F028A426AD147F6C07140
:100F4000626A0140B1EB821F63D1A16A4FF6FF7262
:100F5000C903914300F44032A1F580318A4258D14F
:100F6000E16A00F07060B0EB016F52D10020BDE883
:100F7000FC8101207047606900286ED092480121F1
:100F8000C0F8801EFFF740FD0546706F8007BFD494
:100F9000FFF73AFD401B0228F7D9C9E0306C5FEA41
:100FA000C0080AD400200190306C40F080503064BA
:100FB000306C00F0805001900198844F3868C00573
:100FC0003DD4386840F480703860FFF71DFD054659
:100FD0003868C00533D4FFF717FD401B0228F7D946
:100FE000A6E000F093FB03D1706840023FF569AFC3
:100FF00030686168B1F5803F07D0B1F5A02F40F0AF
:10100000828040F480203060306840F4803030606E
:1010100082E00120BDE8FC81E1686B4800294BD0EB
:1010200001210160FFF7F0FC0546306880073FF5BD
:1010300065AFFFF7E9FC401B0228F6D978E0306F76
:10104000A168012905D0052946D140F00400306788
:10105000306F40F00100306747E05B480021C0F886
:10106000801EFFF7D1FC0546706F80077FF550AFFB
:10107000FFF7CAFC401B0228F6D959E0524900206C
:1010800088460866FFF7C0FC0546022F09D1306884
:10109000800150D5FFF7B8FC411B03200229F6D987
:1010A00065E7306880017FF561AFFFF7ADFC411B5C
:1010B00003200229F5D95AE700210160FFF7A4FCBB
:1010C0000546306880077FF520AFFFF79DFC411B88
:1010D00003200229F5D94AE720F0010000293067F2
:1010E000306F20F00400306745D0FFF78DFC0546D7
:1010F00041F28837306F80074CD4FFF785FC401BE6
:10110000B842F7D914E020F480300029306030680C
:1011100020F48020306046D0FFF776FC054630682A
:1011200080033FF5D5AEFFF76FFC401B6428F6D96E
:101130000320BDE8FC811C341FCC0843D90340EADE
:1011400082104FF6FF72914340EA0460A1F58031AE
:10115000084370600120C8F86000FFF755FC0446A2
:10116000306880013FF502AFFFF74EFC011B032002
:101170000229F5D9FBE6FFF747FC054641F288371F
:10118000306F800706D5FFF73FFC411B0320B942B3
:10119000F6D9ECE6B8F1000F3FF5BDAE306C20F0AB
:1011A00080503064B7E6FFF72FFC054630688003B7
:1011B0007FF58EAEFFF728FC411B03206429F5D98B
:1011C000D5E600BF003802400000474200700040F2
:1011D000411E0020B0EB116F1CBF01207047044A74
:1011E000F023516003490B70072190601160704734
:1011F00010E000E023ED00E090F83C300222012BEB
:1012000029D010B580F83D2002680B68546824F09E
:1012100070041C439368B2F1804F54600ED0254C8B
:10122000A2420BD00D4CA24208D00D4CA24205D0D8
:101230000C4CA24202D00C4CA24204D1496823F0CB
:101240008003194391600022012180F83C2080F83E
:101250003D10BDE810401046704700BF0008004038
:10126000000C0040004001400000014058B110B5A2
:1012700000F072FA03D100F05FFA00F007F800F016
:101280008EFA00F02CBA012070470000006809496E
:10129000884200D0704781B0002000907B480168F0
:1012A00041F002010160006800F002000090009827
:1012B00001B070470004004010B500F047FA54D068
:1012C00084F83D0001204FF6777384F83C002068D5
:1012D00082689A4382600A68C2B1102A16D0202A16
:1012E00014D0302A12D0402A33D0502A28D0602A75
:1012F00013D0B2F5005F1CD0B2F5805F32D0702AF7
:101300001CD100F00CFA41F077012AE0816821F04D
:101310007001114341F0070123E04B68CA68194688
:1013200000F0B3FB2068816841F0670121F01001F3
:1013300017E000F0F4F941F4804112E0012012E0DE
:1013400000F01CFA2068816841F0570121F020016B
:1013500007E000F013FA2068816841F0470121F0AE
:1013600030018160002000F00EFA10BD10B586B08B
:10137000044601A81421FEF763FF2068B0F1804FF6
:1013800017D10020864900900A6842F001020A60E5
:10139000096801F001010091CDE90300022001215B
:1013A0000290082005910190009801A90248FFF7DA
:1013B00059FA06B010BD00BF00000240B0B500F001
:1013C000E9F904BF0220B0BD00F0CBF937D8DFE85F
:1013D00001F002220A1A2068294600F0A7FA2068C4
:1013E00050F8181F06E02068294600F0F1FA20683E
:1013F00050F81C1F41F008010160016821F0040150
:101400000160296917E02068294600F00BFB20687D
:1014100050F81C1F06E02068294600F0ADFA20684D
:1014200050F8181F41F400610160016821F48061E7
:10143000016029690902026811430160002000214E
:1014400084F83C10B0BD58B110B500F085F903D157
:1014500000F072F900F006F800F0A1F900F03FB9D1
:10146000012070470068B0F1804F00D0704781B014
:10147000002000900548016841F00101016000680A
:1014800000F001000090009801B070474038024021
:10149000FEE70000BFB51348144B134A0024012592
:1014A0004FF480310394C46280F820400476836254
:1014B00080F83040C561C0E90021C0E90244C0E9BC
:1014C0000445FEF7ADFF08B1FEF71BFF054869466E
:1014D0000294CDE90045FEF717FF08B1FEF711FFB2
:1014E000BFBD00BF10000020002001400100000F20
:1014F000E0B50020002201902948016841F48001F4
:1015000001600021006800F48000019001983820FB
:10151000FFF7C8FB3820BDE88C40FFF7B3BB00BF26
:10152000F0B587B002AC14212046FEF789FE0026F4
:101530001B481C4D00224FF400570196016841F0F2
:1015400004010160016801F0040100F0B1F841F00C
:1015500080010160016801F0800100F0A9F841F00C
:1015600001010160016801F0010100F0A1F841F002
:10157000020101604FF40051006800F00200019088
:1015800001982846FFF73AFA01202146CDE9046682
:10159000CDE902702846FFF765F907B0F0BD00BF3E
:1015A000303802400008024010B50B480B4B0C4C81
:1015B00000214FF48042C0E90043C0E90211C0E9B4
:1015C0000421C0E906110162FFF722FA18B1BDE853
:1015D0001040FEF796BE10BDB8000020A0860100A6
:1015E0000058004080B58AB0184800214FF0FF3203
:1015F0004FF08043CDE90811CDE90611CDE9041182
:101600008161C0E90031C0E902120161FFF71BFFEF
:1016100008B1FEF776FE0D4808A9FFF7EDFD08B109
:10162000FEF76FFE00200C220590CDE9020060203D
:101630000190064801A9FFF7C1FE08B1FEF761FE5F
:101640000248FFF793FE0AB080BD00BF0C010020E6
:1016500010B586B01448AF4C00214FF6FF726323DB
:101660000591CDE90311CDE900118161C0E9004385
:10167000C0E902120161FFF7F9FD08B1FEF741FE72
:101680004FF480500290084802A9FFF715FE08B1F8
:10169000FEF737FE04486946FFF7AEFD08B1FEF7D6
:1016A00030FE06B010BD00BF54010020FEE7FEE78B
:1016B00001910199019601687047D3F8000400F088
:1016C000070040457047002084F83400012084F86A
:1016D00035007047016821F0010101607047012069
:1016E00084F8460084F83E0084F83F0084F8400007
:1016F00084F8410084F8420084F8430084F84400F0
:1017000084F8450084F83D00002010BDB06800F06A
:101710000C0008287047002084F834007047D1E995
:101720000123C9681A4342EA0121826822F47F42F8
:101730001143816081687047002084F83C00204696
:101740007047127C5143C900FEF77ABD90F83C20E7
:1017500004460220012A7047044690F83D00002804
:1017600070470D4601204FEAB201032984F83C007E
:101770007047086840F00100086070474B68CA680D
:10178000194600F071B9002184F83C10012184F859
:101790003D107047044690F83C0001287047022035
:1017A000211D84F83D00206800F070B8242084F8E2
:1017B0003D002068016821F0010101607047B0FB25
:1017C000F3F001306FF31F3000287047002084F8D9
:1017D0003C00704770477047FFF7F6B970B592B09C
:1017E00006AC30212046FEF72BFD01A81421FEF7A0
:1017F00027FD00251F4802260095016841F0805111
:101800000160006800F080500090009800951A4830
:10181000016841F440410160006800F440400090DC
:1018200004200C96CDE910004FF480700F9010202A
:101830000E904FF480000D904FF4803007900120FF
:10184000069000982046FFF72DFB08B172B6FEE720
:101850004FF480500595CDE90265032104900F20D7
:10186000019001A8FFF754FA08B172B6FEE712B072
:1018700070BD00BF4038024000700040024801685F
:1018800041F470010160704788ED00E070B5754A61
:10189000036890421FD000F140444FEAB424032C67
:1018A00003D84C6823F070032343B0F1804F16D067
:1018B000184CA04213D0184CA04210D0174CA04294
:1018C0000DD0174CA0420AD0164CA04207D0164C9F
:1018D000A04204D007E04C6823F070032343CC6897
:1018E00023F4407323434E6923F080030C688D6812
:1018F000334390420360C562846201D10969116378
:10190000012141610169C90703D0016921F0010189
:10191000016170BD0004004000080040000C004060
:10192000004001400048014000440140F0B5036A16
:10193000026A4C4E22F0010223F0020302628C681C
:101940000A68456823438469B0420CD1D1E9057621
:1019500025F44075D1F80CC023F00C033D4335430A
:101960002CF00406334324F0730445602243826163
:10197000496841630362F0BDF0B5036A026A394EFB
:1019800022F0100223F02003B04202628C680A6841
:10199000456843EA041384690FD1D1E9057625F43B
:1019A0004065D1F80CC023F0C0033E4345EA8605EC
:1019B0006FF0400606EA0C16334324F4E644456013
:1019C00044EA02228261496881630362F0BD00BF7C
:1019D000F0B5036A026A234E22F4807223F4007386
:1019E000B04202628C680A68456843EA0423C4690D
:1019F0000ED1CE6825F4405CD1E9057523F440632F
:101A00003D43360240F2FF47BE434CEA05153343DF
:101A100024F0730445602243C2614968C1630362D4
:101A2000F0BD00BFF0B5026A036A0E4F23F4805385
:101A3000B842036245680C688B68C66904D14F6977
:101A400025F4804545EA8715456026F4E64545EAD4
:101A50000424C4614968016422F4005141EA03315D
:101A60000162F0BD0000014010B5036A046A24F071
:101A700001040462846924F0F00444EA02128261E1
:101A800023F00A021143016210BD10B5036A046A13
:101A900024F010040462846924F4704444EA02329D
:101AA000826123F0A00242EA0111016210BDFEE74B
:101AB000A6B0FFF793F8FFF791FEFFF731FDFFF7B0
:101AC00017FDFFF7E7FCFFF78DFDFFF76DFDFFF753
:101AD000BFFD01A800F00AF803484FF400510022AE
:101AE000FEF78CFFFEE700BF0008024010B5044679
:101AF00090F8930028B1226894F83810606BFFF7D3
:101B000020FE20460021BDE81040AFF3008010B554
:101B1000044680F83910006B016820468847206B26
:101B200041682046BDE81040084702E008C8121F7F
:101B300008C1002AFAD170477047002001E001C1B6
:101B4000121F002AFBD170470000000000000000B7
:101B50000102030406070809000000000102030453
:101B6000801B000800000020100000002A1B000855
:101B7000901B000810000020900500003A1B000890
:101B800001000000100000000024F400000000002C
:040000050800019955
:00000001FF
