:020000040800F2
:10000000A0090020AD010008E7190008A9150008A3
:10001000E5190008C5020008CF2000080000000014
:10002000000000000000000000000000F71D0008B4
:100030000103000800000000F51D0008F91D00087C
:10004000C7010008C7010008C7010008C701000870
:10005000C7010008C7010008C7010008C701000860
:10006000C7010008C7010008C7010008C701000850
:10007000C7010008C7010008C7010008C701000840
:10008000C7010008C7010008C70100080000000000
:10009000000000000000000000000000C701000890
:1000A000C7010008C7010008C7010008C701000810
:1000B000C7010008C7010008C7010008C701000800
:1000C000C7010008C7010008C7010008C7010008F0
:1000D000C7010008C7010008C701000800000000B0
:1000E000C7010008C7010008C701000800000000A0
:1000F000000000000000000000000000C701000830
:1001000000000000C7010008C7010008C70100087F
:1001100000000000000000000000000000000000DF
:10012000C9020008C7010008C7010008C70100088C
:10013000C7010008000000000000000000000000EF
:10014000000000000000000000000000C7010008DF
:10015000C7010008C7010008C7010008C70100085F
:10016000C7010008C70100080000000000000000EF
:10017000000000000000000000000000000000007F
:1001800000000000C701000800000000000000009F
:10019000C7010008C7010008DFF80CD000F07AF8AA
:1001A000004800471D210008A0090020064880479C
:1001B00006480047FEE7FEE7FEE7FEE7FEE7FEE74C
:1001C000FEE7FEE7FEE7FEE79D1E00089901000836
:1001D0002DE9F05F0546002092469B46884606467C
:1001E000814640241BE0284641464746224600F00F
:1001F00041F853465A46C01A914110D31146184649
:10020000224600F028F82D1A67EB01084F462246D7
:100210000120002100F01FF817EB00094E41201EBD
:10022000A4F10104DFDC484631462A464346BDE8D6
:10023000F09FD2B201E000F8012B491EFBD27047BB
:100240000022F6E710B513460A4604461946FFF7A2
:10025000F0FF204610BD202A04DB203A00FA02F10C
:10026000002070479140C2F1200320FA03F31943A4
:1002700090407047202A04DB203A21FA02F0002146
:10028000704721FA02F3D040C2F1200291400843A6
:10029000194670471CB50948009009480190054669
:1002A000009C06E0E06840F0010394E807009847EE
:1002B0001034AC42F6D3FFF773FF0000F8290008B2
:1002C000182A0008FEE70000CD4800F09DB900BFE5
:1002D000026840F2FF3122EA010102F0F802103A0E
:1002E0005F2A88BF043181651823B2FBF3F202A3B1
:1002F0009A5CC26508467047000610160006101684
:10030000704772B6FEE70000F8B50022009290F840
:100310003C20012A01D1022152E0012280F83C2038
:100320000A680A2A1FFA82FC09D34FEA4C0313FA1F
:1003300082F3A3F11E05036803F10C0604E00368D1
:1003400002EB420503F1100607273468AF40BC43B7
:1003500034608C68AC4035682C43346049680629A9
:1003600009D801EB81014C1F1F2101FA04F5194640
:1003700051F8346F14E001EB81050C2908D8A5F180
:1003800023041F2101FA04F5194651F8306F07E0E4
:10039000A5F141041F2101FA04F5194651F82C6F0B
:1003A00026EA05050CFA04F40D600D682C430C6078
:1003B0006849A1F54174A34204D0002180F83C10A3
:1003C0000846F8BD112A0DD0134B9A420AD0122AC2
:1003D000F3D10A6822F400020A600A6842F480023B
:1003E0000A60EAE70B6823F480030B600B6843F4B0
:1003F00000030B6008498A42DFD1D949074A0968DE
:10040000B1FBF2F101EB8101490000910099002953
:10041000D3D000990139F8E71200001040420F00D4
:10042000002841D070B50446006C30B9204600F079
:1004300099F8002084F83C006064206CC00635D434
:10044000206C41F20211884342490230206408685E
:1004500020F44030086094E80D0025690E683243AE
:100460000A60416821F480714160416841EA0521D8
:100470004160416821F04071416041681943364B49
:100480004160816821F400618160E1688268114304
:100490008160816821F070618160A26A81689A42FE
:1004A00006D121F040510CE00120704701204CE0C2
:1004B00011438160816821F040518160E16A826866
:1004C00011438160816821F00201816094F820204D
:1004D000217E836843EA4101816041686AB141F449
:1004E00000611E4A4160416821F460414160616AD7
:1004F00002EB41314268114301E021F400614160A7
:10050000174BC16A21F47001C162E269616903EBB2
:100510000252C36A1A43C262826822F40072826085
:1005200094F83020836843EA42228260826822F491
:1005300080628260826842EA81210122816000201B
:100540006064216C62F301012164002184F83C1095
:1005500070BD00BF042301400100000F00E0FFFF59
:100560000000F0FF70B586B0044601A81421FFF723
:1005700067FE2168204881423BD100261F4900F5D3
:10058000604000964A6942F480724A614A6902F406
:1005900080720092009A00960A6842F001020A6096
:1005A000096801F0010100910321039602910121E4
:1005B0000191009901A900F067F9114D4FF4003045
:1005C000104B4FF400614FF48062C5E908064FF408
:1005D0000050C5E90036C5E90266C5E90421C5E950
:1005E0000606284600F0BEF808B1FFF78AFEAC63A5
:1005F000A56306B070BD00BF002001403038024046
:100600005800002010640240F8B504460020544A07
:1006100008210090D4E91660156837688140394296
:100620000CD0226813685B0708D5136823F0040315
:100630001360B160616D41F001016165012181408C
:10064000394208D022685269120604D5B160616D42
:1006500041F00201616504218140394208D02268DD
:100660001268920704D5B160616D41F004016165C3
:1006700010218140394217D020680268120713D533
:10068000B16002680168520306D4C90506D4016846
:1006900021F00801016001E0080301D4216C00E0B1
:1006A000A16C09B120468847E16D202000FA01F2D3
:1006B0003A4233D020680368DB062FD5B26094F845
:1006C00035300268052B15D122F01602026042690E
:1006D00022F080024261226C0AB9A26C1AB102684F
:1006E00022F0080202603F208840B06001F0A1FAC9
:1006F000216D2FE00168520308D4C9050AD40168AE
:1007000021F01001016001F094FA03E0080301D424
:10071000616C00E0E16B09B120468847606DF0B183
:10072000606DC00715D005214FF4165084F83510C0
:10073000B5FBF0F021680A6822F001020A60009A15
:1007400001328242009202D80A68D207F7D101F042
:1007500070FAE16C19B12046BDE8F8400847F8BDD1
:10076000080000202DE9F041044600F067F9ACB123
:100770000546022084F8350001F08BFA206801F06C
:100780005FFA21680868C0070BD000F057F9401BDA
:100790000528F6D90325202603205BE00120BDE8CB
:1007A000F081086804F1040C2D4A9CE8E81100EA85
:1007B000020ED4E9072043EA0E032B4333433B43A5
:1007C00043EA08031A43636A104340EA0C02042B0D
:1007D00003D1D4E90B05284302430A60042B48697E
:1007E00020F0070040EA030228D1D4E90A733A4313
:1007F00023B3BCF5005F08D0BCF1000F14D1022F69
:1008000015D0012F0AD0002F10E0032F16D8012594
:1008100040260120DFE807F01E0B1E02A3F1C07086
:10082000B0FA80F0400904E0032F03D306D1C3F3EC
:10083000006018B10125402601200BE020464A61E6
:10084000FFF746FDE16D3F220026012502FA01F186
:1008500081600020666584F83550BDE8F08100BFF6
:100860003F8010F0B0B5044600F0E8F805460548B2
:10087000611C007818BF044400F0E0F8401BA0425F
:10088000FAD3B0BD000000202DE9FE4F5E4A0724D8
:100890004FF0010B4FF0000C90425C4A08BF04245B
:1008A00002444FEAB223042B38BF4FEAB22400F1CE
:1008B00020020194009200250022102A08BFBDE802
:1008C000FE8F0C680BFA02FA14EA0A0900F097800E
:1008D000D1F804E0032303FA0CF40EF00308E64316
:1008E000A8F10104012C12D88468D1F80CB00BFADD
:1008F0000CF734404FF0010B3C438460CEF30014FE
:100900004768944027EA0A073C43446005E0B8F191
:10091000030F02D14FF0030823E0C4688F6834400E
:1009200007FA0CF73C43B8F1020FC46019D105F087
:100930001C040F23A84603FA04F76FF0030303EA2D
:10094000520E009B1D4653F80E30BB430F6907FA49
:1009500004F4234345F80E304546D1F804E00EF088
:100960000308046808FA0CF3344023431EF4403FA4
:10097000036044D00023284C254EA84602932368E8
:1009800043F48043236023680F2403F480430293DD
:1009900005F00C0322F00305029F35449C401F4FD5
:1009A000BE46EF5927EA0404019F07FA03F32343E5
:1009B00045F80E30B3684D6843EA0904EF0258BFAA
:1009C00023EA0904134BB460AF029E461B6843EA56
:1009D000090458BF23EA0904CEF80040AF03736846
:1009E00043EA090458BF23EA09047460ED0333683D
:1009F000454643EA090458BF23EA090434600CF170
:100A0000020C0435013258E7001002400000FEBF1E
:100A1000003C01400C3C01404438024008FCFFFF10
:100A2000426902EA0103914341EA0341816170474F
:100A3000002A08BF0904816170470000AC480068C3
:100A4000704700BF10B3F8B5044690F83D0020B9D8
:100A500001F0CCF9204600F0F9F801F0B1F9016895
:100A600041F400410160016821F40041016000F09F
:100A700067FA6368384A394993423CBF48F280417B
:100A8000C0F21E01884203D20120F8BD0120704748
:100A900033494FF47A77B0FBF1F521684E6826F0C0
:100AA0003F062E434E604FF496766E43934228BF26
:100AB000B6FBF7F56A1C0D6A25F03F052A434CF694
:100AC000FF750A62CA69AA43264DAB420AD85B0089
:100AD0000138B0FBF3F001306FF31F30042898BFEA
:100AE000042013E0A56801383DB119256B4301F0DE
:100AF00073F90AD000F5804004E003EB430301F0F2
:100B00006BF902D000F5004000E00120104304F131
:100B10000C06C861E0690A6822F0C0021043226A2C
:100B2000104348F2FF320860886890436CCE184347
:100B300010438860C86820F0FF0028433043C86035
:100B400001F018F900202021206484F83D10206372
:100B500084F83E00F8BD00BFA186010000093D00F9
:100B600040420F00A08601002DE9FE43994616463B
:100B70000F4601F0E1F8054601F082F80AD131494B
:100B8000204601221923009500F0A0FD10B901F0C4
:100B900073F802D10220BDE8FE8301F0AEF803D164
:100BA000136843F001031360136823F400631360B8
:100BB00021224B4601F0C8F823493246608DE1629C
:100BC000394620852046CDE9008500F007FD08B1B3
:100BD00001F009B9218D080422D0204641462A4659
:100BE00000F0CFFD10BB606A2268014611F8013B9E
:100BF0001361638D013B63856162238D591E2185DD
:100C000056697607E7D509044FF00001E3D0417833
:100C100002301161991E6062218501F09FF8DAE7C8
:100C2000204641462A4600F031FD30B1206C0428B0
:100C3000CED1206801F051F8CAE701F02EF8BDE8E6
:100C4000FE8300BF020010000000FFFF2DE9F0430B
:100C500087B0054602A81421FFF7F2FA1E4C296856
:100C6000A4F5D630814233D100271C4E4FF0030843
:100C70004FF012090197306840F002003060306890
:100C800000F0020001900420CDE90478CDF80C902A
:100C900006904FF480600290019802AD20462946EC
:100CA000FFF7F2FD09202946CDE90397CDE905803C
:100CB0004FF4007002902046FFF7E6FD019730697F
:100CC00040F480003061306900F4800001900198A8
:100CD00007B0BDE8F08300BF000402403038024096
:100CE0001F48034900780A6810440860704700BF35
:100CF0009C05002080B50B48016841F4007101603B
:100D0000016841F480610160016841F48071016013
:100D1000032000F079F80F2000F006F800F022F828
:100D2000002080BD003C024070B50D4E04464FF4DB
:100D30007A713078B1FBF0F086490968B1FBF0F0C8
:100D400000F0D2FA01250F2C08D838B94FF0FF3047
:100D500021460022002500F031F87460284670BD5D
:100D60000000002082B000200B4901904A6842F444
:100D700080424A604A6802F480420192019A0090DF
:100D8000086840F080500860086800F080500090CB
:100D9000009802B0704700BF40380240002809D4D4
:100DA0001C21012201EAD00100F01F0002FA00F02C
:100DB000014A8850704700BF00E100E0F0B5184BD1
:100DC0004FF0FF361C68C4F30224E51E84F00704CC
:100DD00038BF002506FA05F7BA43042C28BF0424BF
:100DE00006FA04F4A14300F00F04A940043C1143A7
:100DF000044A234409010244002848BF03F10C02BD
:100E00001170F0BD00E400E005494FF6FF030A68E9
:100E10001A4060F30A22034810430860704700BF7D
:100E20000CED00E00000FA05002852D02DE9F04159
:100E3000404B04468846D3F8000400F0070088427F
:100E400004D283F8008400F0EEFE4BD120688107C5
:100E500011D5410703D5996841F4E0519960010724
:100E600003D5996841F460419960A1689A6822F0BD
:100E7000F00211439960C0072DD100F0D4FE04D9CF
:100E800083F8008400F0CFFE2CD12068410705D5FF
:100E9000E1689A6822F4E05211439960000706D590
:100EA0002069996821F4604141EAC00098601C46BD
:100EB00000F056F8A168204AC1F30311515CC84004
:100EC000244908601D480068FFF72EFF0020BDE898
:100ED000F081012070476068811E022905D21968DF
:100EE000890107D40120BDE8F08101281DD11968CE
:100EF0008903F7D599681D4621F0030108439860DE
:100F0000FFF79CFD064641F288376068A9682B46CA
:100F100001F00C01B1EB800FAFD0FFF78FFD801B0C
:100F2000B842F2D90320BDE8F08119688907D9D504
:100F3000E0E700BF00380240C6210008040000209E
:100F400004480549054A00680968C1F38221515CDB
:100F5000C84070470800002008380240D621000829
:100F600010B5134C606800F00C00082804D0042869
:100F700014BF1048104810BD2268206800234002AA
:100F800002F03F020C485CBF42F20040C0F2F400A5
:100F90002168C1F38811A0FB0101FFF719F921684D
:100FA0000222C1F3014102EB4101B0FBF1F010BD9F
:100FB000043802400024F40040787D01002864D009
:100FC0002DE9FC4104460078C44EC0070CD0B0683F
:100FD00000F00C00042840F090803068800303D5B6
:100FE0006068002800F0A1802078800719D5B068DB
:100FF00010F00C0F07D000F047FE40F099807068A9
:10100000400200F195803068800703D5E068012830
:1010100040F08B802069316821F0F80141EAC0007E
:1010200030602078000732D42078400742D4A76986
:1010300047B300F029FE40F0AD80012F75D0E16983
:10104000706800F480028A426FD1216A00F03F028A
:101050008A426AD147F6C071626A0140B1EB821FD1
:1010600063D1A16A4FF6FF72C903914300F4403285
:10107000A1F580318A4258D1E16A00F07060B0EB8E
:10108000016F52D10020BDE8FC81012070476069EA
:1010900000286ED092480121C0F8801EFFF7CEFCD8
:1010A0000546706F8007BFD4FFF7C8FC401B0228BD
:1010B000F7D9C9E0306C5FEAC0080AD4002001907B
:1010C000306C40F080503064306C00F08050019003
:1010D0000198844F3868C0053DD4386840F480706A
:1010E0003860FFF7ABFC05463868C00533D4FFF71E
:1010F000A5FC401B0228F7D9A6E000F0C5FD03D1EE
:10110000706840023FF569AF30686168B1F5803FB3
:1011100007D0B1F5A02F40F0828040F480203060ED
:10112000306840F48030306082E00120BDE8FC810E
:10113000E1686B4800294BD001210160FFF77EFC7C
:101140000546306880073FF565AFFFF777FC401B29
:101150000228F6D978E0306FA168012905D0052969
:1011600046D140F004003067306F40F00100306736
:1011700047E05B480021C0F8801EFFF75FFC054692
:10118000706F80077FF550AFFFF758FC401B0228B7
:10119000F6D959E05249002088460866FFF74EFC10
:1011A0000546022F09D13068800150D5FFF746FC73
:1011B000411B03200229F6D965E7306880017FF5DD
:1011C00061AFFFF73BFC411B03200229F5D95AE729
:1011D00000210160FFF732FC0546306880077FF58B
:1011E00020AFFFF72BFC411B03200229F5D94AE76A
:1011F00020F0010000293067306F20F004003067D4
:1012000045D0FFF71BFC054641F28837306F800759
:101210004CD4FFF713FC401BB842F7D914E020F47C
:10122000803000293060306820F48020306046D063
:10123000FFF704FC0546306880033FF5D5AEFFF7A5
:10124000FDFB401B6428F6D90320BDE8FC811C345B
:101250001FCC0843D90340EA82104FF6FF72914336
:1012600040EA0460A1F58031084370600120C8F8AD
:101270006000FFF7E3FB0446306880013FF502AFF2
:10128000FFF7DCFB011B03200229F5D9FBE6FFF782
:10129000D5FB054641F28837306F800706D5FFF74A
:1012A000CDFB411B0320B942F6D9ECE6B8F1000FA3
:1012B0003FF5BDAE306C20F080503064B7E6FFF7EC
:1012C000BDFB0546306880037FF58EAEFFF7B6FBA9
:1012D000411B03206429F5D9D5E600BF0038024040
:1012E0000000474200700040411E0020B0EB116F2B
:1012F0001CBF01207047044AF023516003490B7062
:10130000072190601160704710E000E023ED00E0DD
:1013100090F83C300222012B29D010B580F83D20F6
:1013200002680B68546824F070041C439368B2F19F
:10133000804F54600ED0254CA2420BD00D4CA242DF
:1013400008D00D4CA24205D00C4CA24202D00C4C4D
:10135000A24204D1496823F080031943916000221E
:10136000012180F83C2080F83D10BDE81040104677
:10137000704700BF00080040000C004000400140E2
:101380000000014058B110B500F0D9FC03D100F0C5
:101390009FFC00F007F800F003FD00F056BC0120B0
:1013A0007047000000680949884200D0704781B04A
:1013B000002000907B48016841F002010160006854
:1013C00000F002000090009801B070470004004057
:1013D00010B500F0ABFC54D084F83D0001204FF66E
:1013E000777384F83C00206882689A4382600A68B8
:1013F000C2B1102A16D0202A14D0302A12D0402A86
:1014000033D0502A28D0602A13D0B2F5005F1CD008
:10141000B2F5805F32D0702A1CD100F04CFC41F054
:1014200077012AE0816821F07001114341F0070142
:1014300023E04B68CA68194600F037FE20688168CF
:1014400041F0670121F0100117E000F034FC41F495
:10145000804112E0012012E000F091FC20688168D8
:1014600041F0570121F0200107E000F088FC2068DE
:10147000816841F0470121F030018160002000F0D7
:1014800083FC10BD10B586B0044601A81421FEF7F8
:10149000D7FE2068B0F1804F17D10020EC490090B2
:1014A0000A6842F001020A60096801F00101009136
:1014B000CDE903000220012102900820059101904E
:1014C000009801A90248FFF7DFF906B010BD00BF80
:1014D00000000240B0B500F05EFC04BF0220B0BDC9
:1014E00000F040FC37D8DFE801F002220A1A206839
:1014F000294600F02BFD206850F8181F06E02068F0
:10150000294600F075FD206850F81C1F41F00801C5
:101510000160016821F004010160296917E0206879
:10152000294600F08FFD206850F81C1F06E0206857
:10153000294600F031FD206850F8181F41F4006181
:101540000160016821F48061016029690902026873
:10155000114301600020002184F83C10B0BD58B157
:1015600010B500F0ECFB03D100F0B2FB00F006F880
:1015700000F016FC00F069BB012070470068B0F174
:10158000804F00D0704781B000200090054801686E
:1015900041F001010160006800F001000090009836
:1015A00001B0704740380240FEE7026851694905C2
:1015B0004FF000010FD56FF4806353612022016367
:1015C00080F83D2080F83E1080F83C10016C41F01E
:1015D0000401016401210846704700002DE9FE4323
:1015E000044600680E460A9D0B9F994690460022CD
:1015F00001682B4641F48071016020464FF00111D3
:1016000000F0E7FB48B120680068C00544BF4FF414
:10161000007020640320BDE8FE83206806F0FE0110
:101620002A463B4601611849204600F07AF808B185
:1016300000F0D9BB00203A4602902068416902912F
:101640002946806902900298204600F09AF830B14D
:10165000206C0428ECD1206800F03FFBE8E720680C
:10166000B9F1010F0AD04FEA18213A46016120462C
:10167000294600F086F80028EAD120685FFA88F150
:1016800001610020BDE8FE8302000100F8B51546A7
:101690000E4604464F1C20684069400744BF0020A6
:1016A000F8BD2046FFF781FF70B9002FF3D0FFF798
:1016B000C5F9401BB04201D8002EECD1206840692A
:1016C0004007E8D400F024FB0120F8BD2DE9F047E5
:1016D000DDF8209004469846164601F47F0018274E
:1016E0008DB203F1010AB0F5803F08BF142700F066
:1016F0005EFB13D1BAF1000FF9D0FFF79FF9A0EB11
:101700000900404502D8B8F1000FF0D100F04FFBBE
:10171000EDD100F0FDFA0120BDE8F0870020BDE822
:10172000F0872DE9F0419846164604468FB2551CC5
:10173000206841693940B94213D04169490513D441
:10174000002DF5D0FFF77AF9A0EB0800B04201D8E0
:10175000002EEDD1206840693840B842E8D0202002
:1017600008E00020BDE8F08100F0B7FA6FF4806176
:101770004161042000F0B6FA084320640120BDE86E
:10178000F081F8B515460E4604464F1C20684069A6
:10179000000644BF0020F8BD2046FFF706FF70B9E1
:1017A000002FF3D0FFF74AF9401BB04201D8002EBA
:1017B000ECD1206840690006E8D400F0A9FA0120C5
:1017C000F8BD0000BFB51348144B134A002401258F
:1017D0004FF480310394C46280F820400476836221
:1017E00080F83040C561C0E90021C0E90244C0E989
:1017F0000445FEF715FE08B1FEF783FD054869466E
:101800000294CDE90045FEF77FFD08B1FEF779FDB2
:10181000BFBD00BF10000020002001400100000FEC
:10182000E0B50020002201902A48016841F48001BF
:1018300001600021006800F48000019001983820C8
:10184000FFF7BCFA3820BDE88C40FFF7A7BA00BF0D
:1018500030380240F0B587B002AC14212046FEF7C4
:10186000EFFC00261B481C4D00224FF40057019648
:10187000016841F004010160016801F0040100F019
:10188000CDF941F080010160016801F0800100F0B4
:10189000C5F941F001010160016801F0010100F0AA
:1018A000BDF941F0020101604FF40051006800F001
:1018B0000200019001982846FFF7BAF8012021465E
:1018C000CDE90466CDE902702846FEF7DDFF07B0DA
:1018D000F0BD00BF303802400008024010B50B4890
:1018E0000B4B0C4C00214FF48042C0E90043C0E98F
:1018F0000211C0E90421C0E906110162FFF7A2F854
:1019000018B1BDE81040FEF7FCBC10BDB8000020C7
:10191000A08601000058004080B58AB01848002118
:101920004FF0FF324FF08043CDE90811CDE90611A9
:10193000CDE904118161C0E90031C0E90212016101
:10194000FFF70DFE08B1FEF7DCFC0D4808A9FFF714
:10195000DFFC08B1FEF7D5FC00200C220590CDE994
:10196000020060200190064801A9FFF7B3FD08B10D
:10197000FEF7C7FC0248FFF785FD0AB080BD00BF37
:101980000C01002010B586B01448154C00214FF60C
:10199000FF7263230591CDE90311CDE90011816147
:1019A000C0E90043C0E902120161FFF7EBFC08B196
:1019B000FEF7A7FC4FF480500290084802A9FFF7F9
:1019C00007FD08B1FEF79DFC04486946FFF7A0FC3F
:1019D00008B1FEF796FC06B010BD00BF5401002010
:1019E00000040040FEE7FEE7002000F01FB8000002
:1019F000B0B5044640B2002801D43F2900D9B0BD9B
:101A000001F007000122C90802FA00F0064A02EBC1
:101A1000C1152A5D10432855204600F06FF8285D57
:101A2000BDE8B04000F066BB9C010020F8B53C4E1C
:101A300004460025E8B2072888BFF8BD45F0B0008D
:101A4000C0B2B04700200027B0471020B04778B29E
:101A5000002804D4204600F04DFB0137F7E701359C
:101A6000E8E700BF10B56420FEF7FCFE2C4CAE206A
:101A7000A0472020A0471020A047B020A047C820A2
:101A8000A0470020A0471020A0474020A047812069
:101A9000A047FF20A047A120A047A620A047A8203C
:101AA000A0473F20A047A420A047D320A047002064
:101AB000A047D520A047F020A047D920A04722204A
:101AC000A047DA20A0471220A047DB20A047202013
:101AD000A0478D20A0471420A047AF202146BDE895
:101AE0001040084710B50E4C8D20A0471420A04789
:101AF000AF202146BDE81040084700BFB0B50446FE
:101B0000A1F15000064DC0B2A84720091030A847E7
:101B100004F00E0029460130BDE8B040084700BF80
:101B2000D12000082DE9FE4F934688460646012B3A
:101B300045D0022B6CD1374D0021CDF804B0C8B28E
:101B40001BF80040002C63D0F0B20291782888BFC7
:101B500008F1010888BF0026F7B25FFA88F138461D
:101B6000FFF7CCFFA4F12000AA464FF00009C0B255
:101B700005EB00144FEA001BB9F1080F06D014F86A
:101B8000090000F0B7FA09F10109F5E708F10100D1
:101B9000C1B23846FFF7B2FF0AEB0B00DDF804B024
:101BA0005546002700F10804082F04D0E05D00F03E
:101BB000A1FA0137F8E7029908360131BFE7DFF8EB
:101BC00058904FF0000A5FFA8AF01BF80040FCB111
:101BD000F0B27E2888BF08F1010888BF00265FFAAE
:101BE00088F1F0B2FFF78AFFA4F120000024C1B20F
:101BF000490051FA80F009EB4007062C04D0385D0B
:101C000000F078FA0134F8E70AF1010A0636DAE75B
:101C1000BDE8FE8F06240008DE210008019101992D
:101C2000019601687047D3F8000400F007004045B2
:101C30007047002084F83400012084F83500704794
:101C4000016821F0010101607047012084F846001D
:101C500084F83E0084F83F0084F8400084F8410096
:101C600084F8420084F8430084F8440084F8450076
:101C700084F83D00002010BD94F83C000128704716
:101C800094F83D0020287047B06800F00C00082848
:101C90007047002084F8340070472068016841F4E0
:101CA00000710160202084F83D00002084F83C0091
:101CB00084F83E007047D1E90123C9681A4342EA1B
:101CC0000121826822F47F4211438160816870475C
:101CD000002084F83C0020467047016841F4007100
:101CE0000160704700212022216384F83D2084F8A0
:101CF0003E1084F83C10216C704701220DF1280839
:101D000084F83C20226898E803011368DB077047D9
:101D100000202021206384F83D1084F83E0084F8E0
:101D20003C00206C40F020002064704790F83C207C
:101D300004460220012A70470446FEF77FBE04468F
:101D400090F83D000028704784F83D20402284F838
:101D50003E2000222264618560627047608D0138F8
:101D6000608570470D4601204FEAB201032984F8CF
:101D70003C007047086840F00100086070474B68FD
:101D8000CA68194600F080B9002184F83C1001218E
:101D900084F83D107047044690F83C0001287047D5
:101DA0000220211D84F83D00206800F07FB82068E3
:101DB000C0592840401BB0FA80F04009B04270473B
:101DC000242084F83D002068016821F001010160B1
:101DD00070470097FFF77ABCB0FBF3F001306FF368
:101DE0001F30002870470120BDE8FE83002084F8E2
:101DF0003C00704770477047FEF772BF70B592B0F5
:101E000006AC30212046FEF71BFA01A81421FEF78C
:101E100017FA00251F4802260095016841F08051FD
:101E20000160006800F080500090009800951A480A
:101E3000016841F440410160006800F440400090B6
:101E400004200C96CDE910004FF480700F90102004
:101E50000E904FF480000D904FF4803007900120D9
:101E6000069000982046FFF7A9F808B172B6FEE781
:101E70004FF480500595CDE90265032104900F20B1
:101E8000019001A8FEF7D0FF08B172B6FEE712B0CC
:101E900070BD00BF40380240007000400248016839
:101EA00041F470010160704788ED00E070B5754A3B
:101EB000036890421FD000F140444FEAB424032C41
:101EC00003D84C6823F070032343B0F1804F16D041
:101ED000184CA04213D0184CA04210D0174CA0426E
:101EE0000DD0174CA0420AD0164CA04207D0164C79
:101EF000A04204D007E04C6823F070032343CC6871
:101F000023F4407323434E6923F080030C688D68EB
:101F1000334390420360C562846201D10969116351
:101F2000012141610169C90703D0016921F0010163
:101F3000016170BD0004004000080040000C00403A
:101F4000004001400048014000440140F0B5036AF0
:101F5000026A4C4E22F0010223F0020302628C68F6
:101F60000A68456823438469B0420CD1D1E90576FB
:101F700025F44075D1F80CC023F00C033D433543E4
:101F80002CF00406334324F073044560224382613D
:101F9000496841630362F0BDF0B5036A026A394ED5
:101FA00022F0100223F02003B04202628C680A681B
:101FB000456843EA041384690FD1D1E9057625F415
:101FC0004065D1F80CC023F0C0033E4345EA8605C6
:101FD0006FF0400606EA0C16334324F4E6444560ED
:101FE00044EA02228261496881630362F0BD00BF56
:101FF000F0B5036A026A234E22F4807223F4007360
:10200000B04202628C680A68456843EA0423C469E6
:102010000ED1CE6825F4405CD1E9057523F4406308
:102020003D43360240F2FF47BE434CEA05153343B9
:1020300024F0730445602243C2614968C1630362AE
:10204000F0BD00BFF0B5026A036A0E4F23F480535F
:10205000B842036245680C688B68C66904D14F6951
:1020600025F4804545EA8715456026F4E64545EAAE
:102070000424C4614968016422F4005141EA033137
:102080000162F0BD0000014010B5036A046A24F04B
:1020900001040462846924F0F00444EA02128261BB
:1020A00023F00A021143016210BD10B5036A046AED
:1020B00024F010040462846924F4704444EA023277
:1020C000826123F0A00242EA0111016210BDFEE725
:1020D000F8B58DF80F00642001210DF10F020123E6
:1020E00002900D48CDE9002178210022FEF73CFD49
:1020F0008FBD00BFF8B58DF80F00642001210DF1F0
:102100000F02012302900448CDE9002178214022EA
:10211000FEF72AFD8FBD00BFB8000020FEF7EAFDE4
:10212000FFF76CFEFFF796FBFFF77AFBFFF74AFB22
:10213000FFF7F2FBFFF7D2FBFFF724FCFFF792FC5F
:10214000FFF7D0FCFFF750FC13A21420032101235A
:10215000FFF7E8FC00253F26802D0DD0ECB2C5F33B
:1021600047012046FFF744FC86EA5500C1B22046ED
:10217000FFF73EFC0135EFE70A4C4FF40051002217
:102180002046FEF755FC20464FF40051FEF748FC70
:10219000FA20FEF767FBF6E768656C6C6F20776FD7
:1021A000726C64000008024002E008C8121F08C1F7
:1021B000002AFAD170477047002001E001C1121FC8
:1021C000002AFBD17047000000000000000001025F
:1021D00003040607080900000000010203040000D0
:1021E000000000000000002F0000000007000700B2
:1021F00000147F147F1400242A7F2A1200626408CE
:10220000132300364955225000000503000000004A
:102210001C224100000041221C000014083E08144A
:102220000008083E0808000000A060000008080838
:102230000808000060600000002010080402003E52
:102240005149453E0000427F4000004261514946ED
:10225000002141454B31001814127F1000274545DD
:102260004539003C4A4949300001710905030036EF
:102270004949493600064949291E00003636000002
:102280000000563600000008142241000014141407
:102290001414000041221408000201510906003202
:1022A0004959513E007C1211127C007F4949493640
:1022B000003E41414122007F4141221C007F4949AB
:1022C0004941007F09090901003E4149497A007FDF
:1022D0000808087F0000417F4100002040413F0185
:1022E000007F08142241007F40404040007F020CE4
:1022F000027F007F0408107F003E4141413E007F85
:1023000009090906003E4151215E007F091929464D
:102310000046494949310001017F0101003F404029
:10232000403F001F2040201F003F4038403F0063D7
:1023300014081463000708700807006151494543F9
:1023400000007F41410000552A552A5500004141B7
:102350007F000004020102040040404040400000B1
:1023600001020400002054545478007F484444384B
:1023700000384444442000384444487F00385454D2
:10238000541800087E0901020018A4A4A47C007F50
:10239000080404780000447D4000004080847D00F3
:1023A000007F102844000000417F4000007C04189A
:1023B0000478007C0804047800384444443800FC65
:1023C000242424180018242418FC007C0804040881
:1023D00000485454542000043F444020003C4040F6
:1023E000207C001C2040201C003C4030403C00442D
:1023F00028102844001CA0A0A07C004464544C4435
:102400001414141414140000000000000000000054
:10241000000000000000000000F8000000000000C4
:1024200000333000000000100C06100C0600000005
:1024300000000000000040C07840C0784000043F29
:1024400004043F040400007088FC083000000018F9
:1024500020FF211E0000F008F000E018000000211D
:102460001C031E211E0000F00888700000001E21C1
:1024700023241927211010160E0000000000000070
:10248000000000000000000000E01804020000004E
:1024900000071820400000020418E000000000407F
:1024A000201807000000404080F0804040000202F9
:1024B000010F01020200000000F000000000010115
:1024C000011F01010100000000000000000080B0B9
:1024D000700000000000000000000000000000018B
:1024E00001010101010100000000000000000030B6
:1024F0003000000000000000000080601804006050
:1025000018060100000000E010080810E000000FAD
:10251000102020100F00001010F800000000002014
:10252000203F20200000007008080888700000305C
:102530002824222130000030088888483000001804
:10254000202020110E000000C02010F8000000071D
:102550000424243F240000F8088888080800001993
:10256000212020110E0000E0108888180000000FC4
:10257000112020110E0000380808C838080000009B
:10258000003F000000000070880808887000001CF0
:10259000222121221C0000E010080810E0000000A9
:1025A000312222110F00000000C0C0000000000016
:1025B000003030000000000000800000000000003B
:1025C0008060000000000000804020100800000132
:1025D00002040810200040404040404040000404F5
:1025E00004040404040000081020408000000020BF
:1025F000100804020100007048080808F0000000FC
:10260000003036010000C030C828E810E00007188C
:10261000272423140B000000C038E0000000203CF9
:1026200023020227382008F8888888700000203F9D
:10263000202020110E00C0300808080838000718B4
:1026400020202010080008F808080810E000203FAB
:10265000202020100F0008F88888E8081000203F8C
:1026600020202320180008F88888E8081000203F60
:10267000200003000000C0300808083800000718D8
:102680002020221E020008F808000008F808203F59
:10269000210101213F20000808F80808000000205F
:1026A000203F2020000000000808F8080800C08033
:1026B00080807F00000008F888C028180800203FAC
:1026C00020012638200008F8080000000000203F04
:1026D00020202020300008F8F800F8F80800203FFB
:1026E000003F003F200008F830C00008F808203FF5
:1026F000200007183F00E01008080810E0000F1045
:10270000202020100F0008F808080808F000203FDB
:10271000210101010000E01008080810E0000F1876
:10272000242438504F0008F8888888887000203F9B
:102730002000030C3020007088080808380000389A
:10274000202121221C00180808F8080818000000A1
:10275000203F2000000008F808000008F808001FCB
:10276000202020201F000878880000C838080000BA
:1027700007380E010000F80800F80008F800033CD4
:102780000700073C0300081868808068180820309C
:102790002C03032C30200838C800C838080000007B
:1027A000203F2000000010080808C8380800203822
:1027B000262120201800000000FE02020200000076
:1027C000007F40404000000C30C0000000000000CE
:1027D00000010638C00000020202FE0000000040B6
:1027E00040407F00000000000402020204000000DC
:1027F00000000000000000000000000000008080D9
:1028000080808080808000020204000000000000C0
:10281000000000000000000080808080000000199F
:10282000242222223F2008F8008080000000003F80
:10283000112020110E000000008080800000000E9A
:10284000112020201100000000808088F800000E78
:10285000112020103F200000808080800000001F99
:10286000222222221300008080F08888881800200D
:10287000203F202000000000808080808000006BCE
:1028800094949493600008F8008080800000203FBA
:10289000210000203F2000809898000000000020C8
:1028A000203F20200000000000809898000000C019
:1028B0008080807F000008F8000080808000203F3A
:1028C00024022D302000000808F80000000000203D
:1028D000203F202000008080808080808000203F7A
:1028E00020003F20003F8080008080800000203F4B
:1028F000210000203F200000808080800000001F19
:10290000202020201F00808000808000000080FFA9
:10291000A12020110E000000008080808000000EA9
:10292000112020A0FF8080808000808080002020F7
:102930003F21200001000000808080808000003363
:10294000242424241900008080E0808000000000FE
:10295000001F202000008080000000808000001FF9
:10296000202020103F208080800000808080000197
:102970000E300806010080800080008080800F30CB
:102980000C030C300F00008080008080800000204D
:10299000312E0E3120008080800000808080808178
:1029A0008E701806010000808080808080000021E9
:1029B000302C2221300000000000807C0202000048
:1029C0000000003F404000000000FF000000000049
:1029D0000000FF0000000002027C800000000040B8
:1029E000403F000000000006010102020404000054
:1029F0000000000000000000182A0008000000206D
:102A000010000000A8210008282A0008100000205B
:102A100090090000B821000801000000100000002B
:082A20000024F4000000000096
:040000050800019955
:00000001FF
