:020000040800F2
:10000000A0160020AD010008494C000899420008E4
:10001000454C0008150B0008955E00080000000024
:10002000000000000000000000000000B1570008C0
:100030001D0E000800000000615700080958000864
:10004000C7010008C7010008C7010008C701000870
:10005000C7010008C7010008C7010008C701000860
:10006000C7010008C7010008C7010008C701000850
:10007000C7010008C7010008C7010008C701000840
:10008000C7010008C7010008490900080000000076
:10009000000000000000000000000000C701000890
:1000A000C7010008C7010008C7010008C701000810
:1000B000E1580008F1580008C7010008C70100080E
:1000C000C7010008C7010008C7010008C7010008F0
:1000D000C7010008C7010008C701000800000000B0
:1000E000C1100008C7010008C70100080000000097
:1000F000000000000000000000000000C701000830
:1001000000000000C7010008C7010008C70100087F
:1001100000000000000000000000000000000000DF
:10012000750C0008C7010008C7010008C7010008D6
:10013000C7010008000000000000000000000000EF
:10014000000000000000000000000000C7010008DF
:10015000C7010008C7010008C7010008C70100085F
:10016000C7010008C70100080000000000000000EF
:10017000000000000000000000000000000000007F
:1001800000000000C701000800000000000000009F
:10019000C7010008C7010008DFF80CD000F034FBED
:1001A0000048004751600008A0160020064880471C
:1001B00006480047FEE7FEE7FEE7FEE7FEE7FEE74C
:1001C000FEE7FEE7FEE7FEE7CD58000899010008CC
:1001D0002DE9F05F0546002092469B46884606467C
:1001E000814640241BE0284641464746224600F00F
:1001F00055FA53465A46C01A914110D31146184633
:10020000224600F03CFA2D1A67EB01084F462246C1
:100210000120002100F033FA17EB00094E41201EA7
:10022000A4F10104DFDC484631462A464346BDE8D6
:10023000F09F40EA01039B0703D009E008C9121FA1
:1002400008C0042AFAD203E011F8013B00F8013B90
:10025000521EF9D27047D2B201E000F8012B491EBC
:10026000FBD270470022F6E710B513460A46044653
:100270001946FFF7F0FF204610BD2DE9FE4F8046DE
:1002800081EA0300C00F0C46009021F0004123F0EA
:100290000045B8EB0200A94105D2404621469046F0
:1002A0001C460B46024623F00040104347D0270D62
:1002B000C7F30A00C3F30A510290401A0190402884
:1002C0006BDAC3F3130040F4801B0098924620B110
:1002D0000023D2EB030A63EB0B0B01985946C0F1E4
:1002E0004002504600F0CBF906460D4650465946AE
:1002F000019A00F0E3F910EB08006141002487EA5D
:10030000115284EAE7731A4340D0009A62B3019A0B
:10031000012A4FEA075215DC001B61EB02014FF086
:10032000004202EA0752CDE90042001C41F580116B
:1003300032462B4600F01AFA03B0BDE8F08F404673
:100340002146F9E7001B61EB0201001C41F5801317
:1003500000185B412018A2F5001747EB030140EAA3
:10036000D570B6196D4111E06D084FEA360645EAC1
:10037000C0754FEA0752001B61EB0201001C41F5FA
:10038000801149084FEA30000019514132462B468E
:1003900003B0BDE8F04F00F0DAB900980122400048
:1003A0000023D0EB020263EBE073009821464FEA92
:1003B000E074B8EB000061EB0401E9E783F000436F
:1003C0005BE781F0004158E72DE9FE4F81EA030425
:1003D00004F0004421F0004100944FF0000B23F0A2
:1003E000004350EA01045ED052EA03045BD0C3F339
:1003F0000A54C1F30A552C44A4F2F3340194A0FB2F
:100400000254C1F3130141F48011C3F3130343F405
:10041000801301FB024400FB034E840A970A44EA5E
:10042000815447EA8357A4FB076802958D0A05FBB0
:1004300007854FEA932C04FB0C542705029D4FEAD5
:10044000065847EA1637B5EB08056EEB070C870E22
:10045000920E47EA811742EA8312A7FB0201B6EB2C
:100460000B0164EB00042B0D43EA0C335E1844EBE4
:100470001C50DA465146E7FB0201C5F313044FEA6C
:100480000B3343EA14534FEA0432019C43EA060358
:10049000A4F10C040294009CCDE900B400F066F9CC
:1004A00003B0BDE8F08F00200146F9E72DE9F04DDB
:1004B00081EA030404F0004B21F0004514464FF09C
:1004C000000A23F0004150EA050220D054EA01025C
:1004D0001DD0C5F30A570246C5F31303C1F3130039
:1004E000C1F30A5640F4801543F48013A7EB0608C5
:1004F000101BD64608F2FD3873EB050002D308F155
:10050000010801E092185B41B8F1000F03DA002006
:100510000146BDE8F08D00204FF480110646844668
:100520000EE0171B73EB050705D3121B63EB0503E6
:1005300006434CEA010C49084FEA300092185B412F
:1005400050EA0107EDD152EA030012D082EA04001A
:1005500083EA0501084305D0101BAB4106D20122F6
:10056000002306E000224FF0004302E06FF001029A
:1005700053101AEB06004CEB085110EB0A0041EB4C
:100580000B01BDE8F04D00F0E2B830B5041E71F18A
:10059000000404DB4FF00044404264EB0101141EF0
:1005A00073F1000405DB1C464FF00043524263EB3D
:1005B0000403101A8B4101D2012030BD002030BD50
:1005C0000EB5C10F80EAE0700844CA07002140F26E
:1005D00033438DE80E000A460B4600F0C7F803B01F
:1005E00000BD70B5C1F30A5201F000450024C1F30B
:1005F000130140F2FF3341F480119A4201DA0020E6
:1006000070BD40F233439A42A2F2334203DC5242BD
:1006100000F044F800E090402C43F1D0404270BD1F
:1006200000F0004230F000400AD0C10D01F56071C9
:10063000C0F3160042EA0151C20840071143704757
:1006400000200146704701F0004330B421F0004122
:1006500050EA010206D00A0DA2F56072C1F313013F
:10066000002A02DC30BC00207047440F44EAC10479
:10067000C100E01830BC00EBC25000F031B8202AB5
:1006800004DB203A00FA02F1002070479140C2F1E9
:10069000200320FA03F3194390407047202A04DB1B
:1006A000203A21FA02F00021704721FA02F3D040EB
:1006B000C2F120029140084319467047202A06DB08
:1006C000CB17203A41FA02F043EAE07306E041FA20
:1006D00002F3D040C2F1200291400843194670470E
:1006E0000029A8BF7047401C490008BF20F0010046
:1006F000704710B4B0FA80FC00FA0CF050EA010424
:1007000004BF10BC704749B1CCF1200421FA04F4B5
:1007100011FA0CF118BF012121430843A3EB0C018E
:10072000CB1D4FEA00614FEA102042BF002010BCF1
:10073000704700EBC35010440029A4BF10BC7047A1
:10074000401C490008BF20F0010010BC704710B5E4
:10075000141E73F1000408DA401C41F100019218E4
:100760005B411A4301D120F0010010BD2DE9F04D8D
:1007700092469B4611B1B1FA81F202E0B0FA80F2E2
:1007800020329046FFF77BFF04460F4640EA0A00FE
:1007900041EA0B0153465A46084313D0114653EA27
:1007A000010019D0C8F140025046FFF777FF054617
:1007B0000E46504659464246FFF761FF084305D0B2
:1007C000012004E020463946BDE8F08D00200543B5
:1007D00046EAE0762C4337430A986305E40AA0EB27
:1007E00008000022FD0A44EA47540A3002D50020DE
:1007F0000146E9E7010510196941DDE908450019DD
:100800006941BDE8F04DA2E71CB5094800900948D0
:1008100001900546009C06E0E06840F0010394E882
:10082000070098471034AC42F6D3FFF7B9FC00003C
:10083000C4780008E47800080EB540F23341029114
:100840000021CDE900110A460B46FFF78FFF03B0E8
:1008500000BD000080B582B001900198806B0090CF
:100860000098006C10F0500F3AD1FFE70099086C27
:1008700040F40070086400980068806810F0405FE1
:100880002AD1FFE70098007E30BBFFE700980068A0
:10089000C06A10F4700F07D0FFE700980068806806
:1008A0004005002818D4FFE700980168486820F048
:1008B000200048600099086C20F48070086400985B
:1008C000006CC004002806D4FFE70099086C40F0D3
:1008D00001000864FFE7FFE7009800F025FD10E045
:1008E0000098006CC006002804D5FFE7009800F0CF
:1008F00045FD05E00098806BC16C01988847FFE7D3
:10090000FFE702B080BD000080B582B00190019881
:10091000806B00900099402008640099486C40F07A
:1009200004004864009800F029FD02B080BD00007A
:1009300080B582B001900198806B0090009800F023
:1009400013FD02B080BD000080B540F63800C2F251
:10095000000000F017FD80BD82B0019042F200302F
:10096000C4F2010000900099486820F440304860CB
:1009700001984268009948681043486001980168EE
:10098000486820F4807048600198016802694868EE
:1009900040EA0220486001980168486820F04070F1
:1009A000486001980168826848681043486001986F
:1009B0000168886820F40060886001980168C26856
:1009C0008868104388600198806A0121C0F6007130
:1009D000884219D0FFE701980168886820F07060AC
:1009E000886001980168826A88681043886001986D
:1009F0000168886820F04050886001980168C26AE8
:100A00008868104388600CE001980168886820F0CD
:100A10007060886001980168886820F040508860A4
:100A2000FFE701980168886820F00200886001985B
:100A3000027E0168886840EA42008860019890F868
:100A40002000C8B1FFE701980168486840F40060E1
:100A5000486001980168486820F460404860019847
:100A60000168426A4EF20000CFF6FF7000EB42329E
:100A700048681043486006E001980168486820F41F
:100A800000604860FFE701980168C86A20F47000C0
:100A9000C86201980168C2690020CFF6F07000EBCF
:100AA0000252C86A1043C86201980168886820F43D
:100AB00000708860019890F830200168886840EAEA
:100AC0004220886001980168886820F4806088600E
:100AD000019801684269886840EA8220886002B013
:100AE0007047000081B08DF803009DF803100720C7
:100AF000A0EBD10240F22801C2F200010A709DF879
:100B00000320904348704A7801209040887001B0DB
:100B100070470000FFE7FEE78CB00B900A918DED67
:100B2000090A0020089007900690ADF816000120F1
:100B30000490FFE704980A9988423FD2FFE70B9898
:100B4000049900EB410030F8020C00EE100AB8EEF8
:100B5000C00A9DED091AB4EE410AF1EE10FA28DA46
:100B6000FFE70B98049930F8110000EE100AB8EE78
:100B7000C00A9DED091AB4EE410AF1EE10FA18DB35
:100B8000FFE704980390BDF8160018B9FFE7039833
:100B9000089006E003980799411A069808440690C1
:100BA000FFE703980790BDF816000130ADF8160076
:100BB000FFE7FFE7049801300490BBE700200290B4
:100BC000BDF8160002281ADBFFE70698BDF81610DC
:100BD0000139B0FBF1F001909DED010AB8EE400A39
:100BE0009FED0A1A80EE010A8DED000A9DED001AB4
:100BF000B7EE000A80EE010A8DED020A02E0002045
:100C00000290FFE79DED020A0CB0704700401C46C1
:100C100080B582B001200190FFE7019807280FDC22
:100C2000FFE79DF8041047F66802C0F600020020B6
:100C3000012304F0B7FCFFE7019801300190ECE7D5
:100C400002B080BD81B08DF803009DF8031007202D
:100C5000A0EBD10240F22B01C2F200010A709DF814
:100C60000320904348704A7801209040887001B07A
:100C70007047000080B540F68000C2F2000000F02E
:100C800059FE80BD82B001900198007810384AF674
:100C9000AB21CAF6AA21A0FB01100009009000991F
:100CA00047F24800C0F60000405C0199C865009812
:100CB000042807D3FFE701990868042262F30900BA
:100CC000886506E00199086840F2FF329043886524
:100CD000FFE70198806D02B07047000086B0059074
:100CE00000208DF813000598806A039005988069AC
:100CF00010BBFFE70398029003281BD80299DFE896
:100D000001F0020D0218059890F82F00C00720B1DD
:100D1000FFE701208DF81300FFE70CE00598C06A9B
:100D2000B0F1C07F04D1FFE701208DF81300FFE789
:100D300001E000E0FFE745E005988069B0F5005F5D
:100D400025D1FFE70398019003281ED80199DFE819
:100D500001F00206021101208DF8130016E005983B
:100D600090F82F00C00720B1FFE701208DF8130095
:100D7000FFE70BE00598C06AB0F1C07F04D1FFE740
:100D800001208DF81300FFE700E0FFE719E003986A
:100D90000090032804D3FFE70098032804D00EE056
:100DA00001208DF813000BE0059890F82F00C00784
:100DB00020B1FFE701208DF81300FFE700E0FFE717
:100DC000FFE7FFE79DF8130006B0704784B003907B
:100DD00002910192009303980168086820F4802032
:100DE0000860009803990968486003988068402863
:100DF00009D1FFE70198039909688860029803996F
:100E00000968C86008E00298039909688860019839
:100E100003990968C860FFE704B070477047000095
:100E200080B584B003900291FFF7F2FE03F04AFF11
:100E3000029808B9FFE7CAE000208DF80700FFE735
:100E40009DF807007F2855DCFFE79DF80700029911
:100E50000139414340F61100C0F20420A1FB0020FB
:100E6000091A00EB5100800900900098029988420D
:100E700004D3FFE7029801380090FFE70398009938
:100E800030F811003721484340F20141C0F24001DF
:100E9000A0FB011080088DF806009DF8060023389D
:100EA00040F22001C2F200010978484323308DF856
:100EB00006009DF80600B0F1FF3F04DCFFE70020CC
:100EC0008DF8060009E09DF80600382804DBFFE7EE
:100ED00037208DF80600FFE7FFE79DF807009DF833
:100EE000061003F06DFFFFE79DF8070001308DF855
:100EF0000700A5E700208DF80700FFE79DF8070031
:100F00007F280CDCFFE79DF80700232103F00AFF90
:100F1000FFE79DF8070001308DF80700EEE7082095
:100F20008DF80600FFE79DF806003F2823DCFFE769
:100F300000208DF80700FFE79DF807007F2813DCED
:100F4000FFE79DF80700400738B9FFE79DF8070065
:100F50009DF8061003F0E6FEFFE7FFE79DF80700A7
:100F600001308DF80700E7E7FFE79DF8060008303D
:100F70008DF80600D7E700208DF80700FFE79DF801
:100F800007007F2823DCFFE79DF80700C006B8B9FB
:100F9000FFE708208DF80600FFE79DF806003F28D0
:100FA0000DDCFFE79DF807009DF8061003F0BAFE80
:100FB000FFE79DF8060001308DF80600EDE7FFE73A
:100FC000FFE79DF8070008308DF80700D7E704B069
:100FD00080BD00000000000080B58CB00021C4F28C
:100FE0004001099100200890079106900B90FFE7BF
:100FF0000B987F2855DCFFE70B98FFF7E1FA41ECEF
:10100000100B9FED291B53EC112B51EC100BFFF72C
:101010004DFA41EC100B51EC100B9FED250B53ECEE
:10102000102BFFF7D1F941EC100B51EC100B9FED99
:10103000220B53EC102BFFF7C7F941EC100B8DED91
:10104000040B9DED060B8DED020B9DED080B8DED58
:10105000000B9DED040B05F0BBFA9DED001B51EC60
:10106000110B53EC102BFFF7AFF99DED020B41EC88
:10107000110B51EC110B53EC102BFFF7FEF841EC68
:10108000100B51EC100BFFF7ACFA0A909DF82C00F6
:101090009DF8281003F094FEFFE70B9801300B90A9
:1010A000A6E70CB080BD00BF00000000000060405B
:1010B00000000000000020406E861BF0F92109406E
:1010C00080B54FF4004000F01DFF80BD80B572B6C2
:1010D000FFE740F60000C4F202004FF40051012285
:1010E00001F0F2F8F5E7000081B0009001B0704720
:1010F00085B00390029100200190FFE7039890F8DB
:101100003C00012804D1FFE702208DF8130007E11D
:101110000399012081F83C00FFE7FFE7029800688F
:101120000A281CD3FFE70298008800EB4000A0F1DA
:101130001E01072000FA01F203980168C868904375
:10114000C86002998868098801EB41011E3900FADC
:1011500001F203980168C8681043C86018E002985B
:10116000008800EB4001072000FA01F203980168B3
:1011700008699043086102998868098801EB410178
:1011800000FA01F203980168086910430861FFE75B
:101190000298406806281BD8FFE70298406800EBD9
:1011A0008000411F1F2000FA01F203980168486B7C
:1011B0009043486302990888496801EB8101053929
:1011C00000FA01F203980168486B104348633DE060
:1011D000029840680C281CD8FFE70298406800EB92
:1011E0008000A0F123011F2000FA01F2039801689A
:1011F000086B9043086302990888496801EB8101F4
:10120000233900FA01F203980168086B1043086360
:101210001BE00298406800EB8000A0F141011F2014
:1012200000FA01F203980168C86A9043C862029903
:101230000888496801EB8101413900FA01F20398FD
:101240000168C86A1043C862FFE7FFE742F2003056
:10125000C4F2010000900398006842F20001C4F259
:101260000101884210D1FFE70298006812280BD1D3
:10127000FFE70099486820F400004860009948683A
:1012800040F480004860FFE70398006842F20001E4
:10129000C4F20101884239D1FFE7029800681221A7
:1012A000C1F20001884205D0FFE7029800681128CA
:1012B0002CD1FFE70099486820F48000486000992D
:1012C000486840F400004860029800681221C1F2AA
:1012D0000001884219D1FFE740F20400C2F2000089
:1012E00000684DF68361C4F21B31A0FB0110800C35
:1012F00000EB800040000190FFE7019820B1FFE77C
:10130000019801380190F8E7FFE7FFE7FFE703994D
:10131000002081F83C00FFE700208DF81300FFE774
:101320009DF8130005B0704780B582B0019040F67B
:101330003000C2F20000006801280DD0FFE740F63F
:101340009860C2F2000040F22E01C2F200014FF498
:101350008062FEF76EFFFFE740F63001C2F2000147
:101360000120086002B080BD81B0009040F63401D9
:10137000C2F200010120086001B0704781B0009006
:1013800001B0704780B586B00590002004900390AE
:101390000598006800680290059800684068019010
:1013A000029800F002000490019800F020000390E1
:1013B000049800284AD0FFE70398002846D0FFE7AA
:1013C0000598006CC006002806D4FFE70599086C54
:1013D00040F400700864FFE705980068806810F02A
:1013E000405F2AD1FFE70598007E30BBFFE70598F4
:1013F0000068C06A10F4700F07D0FFE70598006816
:1014000080684005002818D4FFE7059801684868FF
:1014100020F0200048600599086C20F48070086472
:101420000598006CC004002806D4FFE70599086CF5
:1014300040F001000864FFE7FFE70598FFF774FF3D
:10144000059801686FF012000860FFE7029800F04D
:1014500004000490019800F0800003900498002894
:1014600058D0FFE70398002854D0FFE70598006C98
:10147000C006002806D4FFE70599086C40F4005028
:101480000864FFE705980068806810F4401F38D1B1
:10149000FFE705980068806B10F4401F07D0FFE756
:1014A000059800688068400500282AD4FFE7059861
:1014B000006840684005002823D4FFE705980068CD
:1014C000806810F0405F1CD1FFE70598007EC0B92E
:1014D000FFE705980168486820F08000486005999A
:1014E000086C20F4805008640598006CC005002842
:1014F00006D4FFE70599086C40F001000864FFE797
:10150000FFE70598FFF7F0FD059801686FF00C0004
:101510000860FFE7029800F001000490019800F0D5
:10152000400003900498C0B1FFE70398A8B1FFE71B
:10153000059800680068C00770B1FFE70599086C5E
:1015400040F480300864059800F07EF80598016842
:101550006FF001000860FFE7FFE7029800F020004D
:101560000490019800F0806003900498B0B1FFE708
:10157000039898B1FFE70599486C40F00200486471
:10158000059801686FF02000009008600598FFF74B
:10159000F5FE0098059909680860FFE706B080BD70
:1015A00080B584B0029000208DF80700029820B921
:1015B000FFE701208DF80F0042E00298806A0121C8
:1015C000C0F60071884201D0FFE7FFE70298006C87
:1015D00050B9FFE7029800F03BF8029900204864F8
:1015E000029981F83C00FFE70298006CC0060028D1
:1015F00017D4FFE70298006C40F0020020F48850F6
:10160000029908640298FFF7A7F90299002048643C
:101610000298006C40F0010020F00200029908647A
:1016200003E001208DF80700FFE7FFE702990020A3
:1016300081F83C00FFE79DF807008DF80F00FFE7F9
:101640009DF80F0004B080BD81B0009001B07047DC
:1016500080B58CB00B9000200A90099008900790FC
:1016600006900B98006842F20001C4F20101884222
:1016700068D1FFE7FFE70020059043F64400C4F27D
:101680000200016841F480710160006800F480701C
:1016900005900598FFE7FFE70020049043F630002F
:1016A000C4F20200016841F001010160006800F02D
:1016B000010004900498FFE70120069003200790A2
:1016C0000020029008900020C4F2020006A900F059
:1016D00035FC029940F68000C2F20000039046F209
:1016E0001042C4F20202026041608160C1604FF4A6
:1016F000806202614FF4006242614FF400528261E5
:101700004FF48072C2614FF400320262416200F015
:10171000A1FA18B1FFE7FFF7D9FCFFE7FFE70B9845
:1017200040F68001C2F2000181630B988863FFE7F5
:10173000122001900022114601F032F9019801F0C7
:1017400025F9FFE70CB080BD80B586B00490039109
:10175000029200200190FFE7049890F83C000128D5
:1017600004D1FFE702208DF81700DFE00499012083
:1017700081F83C00FFE7FFE704980068806800F00C
:10178000010001281ED0FFE704980168886840F036
:101790000100886040F20400C2F2000000684DF6CB
:1017A0008361C4F21B31A0FB0110800C00EB4000F0
:1017B0000190FFE7019820B1FFE7019801380190FF
:1017C000F8E7FFE7049800688068C005002807D59F
:1017D000FFE704980168886820F480708860FFE75C
:1017E000049800688068C007002800F09080FFE738
:1017F0000498006C40F4807040F2016188430499C1
:1018000008640498006840684005002809D5FFE78F
:101810000498006C40F4805020F40050049908644F
:10182000FFE70498006CC004002806D5FFE7049980
:10183000486C20F00600486403E0049900204864E6
:10184000FFE7FFE70499002081F83C00FFE742F240
:101850000030C4F2010000900498816B40F65500FE
:10186000C0F60000C8630498816B40F63110C0F6E2
:10187000000008640498816B40F60910C0F600006F
:10188000C864049801686FF0220008600498016839
:10189000486840F08060486004980168886840F4B7
:1018A0008070886004980168806B4C31039A029BB9
:1018B00000F088FA00984068C00678B9FFE70498FD
:1018C0000068806810F0405F07D1FFE70498016866
:1018D000886840F080408860FFE717E0049800685F
:1018E00042F20001C4F2010188420ED1FFE70498E0
:1018F0000068806810F0405F07D1FFE70498016836
:10190000886840F080408860FFE7FFE70AE00499BC
:10191000086C40F0100008640499486C40F0010025
:101920004864FFE700208DF81700FFE79DF81700D7
:1019300006B080BD80B586B005900020039040F2CF
:101940000400C2F20000006848F2B511C1F64E3141
:10195000A0FB0110800A02900598806D019001980B
:101960000068049004980599C96DC84000070028D4
:101970001AD5FFE70598006800684007002812D5CF
:10198000FFE705980168086820F0040008600598E2
:10199000C16D08208840019988600599486D40F024
:1019A00001004865FFE7FFE704980599C96DC84045
:1019B000C007A0B1FFE7059800684069000600284D
:1019C0000CD5FFE70598C16D01208840019988601A
:1019D0000599486D40F002004865FFE7FFE704986D
:1019E0000599C96DC8404007002814D5FFE7059840
:1019F00000680068800700280CD5FFE70598C16DD6
:101A000004208840019988600599486D40F00400E1
:101A10004865FFE7FFE704980599C96DC840C0060F
:101A2000002847D5FFE705980068006800070028F0
:101A30003FD5FFE70598C16D102088400199886067
:101A4000059800680068400300281AD5FFE705984C
:101A5000006800680003002809D4FFE70598006CBF
:101A600020B1FFE70598016C8847FFE708E005987B
:101A7000806C20B1FFE70598816C8847FFE7FFE79E
:101A800016E0059800680068C005002807D4FFE745
:101A900005980168086820F008000860FFE70598CD
:101AA000006C20B1FFE70598016C8847FFE7FFE76E
:101AB000FFE7FFE704980599C96DC8408006002834
:101AC00040F18D80FFE7059800680068C006002897
:101AD00040F18480FFE70598C16D2020884001997E
:101AE0008860059890F83500052834D1FFE70598FF
:101AF0000168086820F016000860059801684869C8
:101B000020F0800048610598006C20B9FFE7059837
:101B1000806C38B1FFE705980168086820F008007C
:101B20000860FFE70598C16D3F20884001998860F3
:101B30000599012081F83500FFE70599002081F81B
:101B40003400FFE70598006D20B1FFE70598016DAF
:101B50008847FFE77BE0059800680068400300289D
:101B60001AD5FFE70598006800680003002809D42B
:101B7000FFE70598406C20B1FFE70598416C884766
:101B8000FFE708E00598C06B20B1FFE70598C16B3F
:101B90008847FFE7FFE720E0059800680068C00578
:101BA000002811D4FFE705980168086820F01000AC
:101BB00008600599012081F83500FFE705990020AC
:101BC00081F83400FFE7FFE70598C06B20B1FFE71D
:101BD0000598C16B8847FFE7FFE7FFE7FFE7059838
:101BE000406DA0B3FFE70598406DC00730B3FFE735
:101BF0000599052081F8350005980168086820F0EE
:101C000001000860FFE703980130039002998842C1
:101C100001D9FFE707E0FFE7059800680068C00703
:101C20000028F0D1FFE70599012081F83500FFE792
:101C30000599002081F83400FFE7FFE70598C06CA4
:101C400020B1FFE70598C16C8847FFE7FFE706B0C2
:101C500080BD000080B586B004900020039000F0A5
:101C60004BFB0290049820B9FFE701208DF8170084
:101C7000A3E00498406A08B1FFE7FFE70499022057
:101C800081F83500FFE70499002081F83400FFE770
:101C900004980168086820F001000860FFE70498D4
:101CA00000680068C00790B1FFE700F025FB0299CB
:101CB000401A06280AD3FFE70499202048650499B2
:101CC000032081F835008DF8170076E0E7E70498E7
:101CD000006800680390039848F23F01CFF21001BA
:101CE00008400390049900914868D1F808C0CB6877
:101CF0000A6940EA0C00184310434A6910438A6994
:101D00001043CA691043096A0143039808430390CA
:101D10000498406A042808D1FFE70499C86A096B4F
:101D20000143039808430390FFE703980499096867
:101D300008600498006840690390039820F0070049
:101D400003900498416A0398084303900498406AFA
:101D500004281AD1FFE70498816A03980843039086
:101D60000498C06A80B1FFE70498FEF7B7FF50B14E
:101D7000FFE70499402048650499012081F8350067
:101D80008DF8170019E0FFE7FFE703980499096849
:101D900048610498FEF776FF01900498C16D3F20DA
:101DA000884001998860049900204865049A0121BF
:101DB00082F835108DF81700FFE79DF8170006B080
:101DC00080BD000080B588B0069005910492039311
:101DD00000208DF80B000698806D0190FFE70698B3
:101DE00090F83400012804D1FFE702208DF81F008D
:101DF00045E00699012081F83400FFE7FFE70698E7
:101E000090F8350001282BD1FFE70699022081F8D0
:101E1000350006990020486506980599049A039BA9
:101E2000FEF7D4FF0698C16D3F2088400199886075
:101E300006980168086840F0160008600698006C73
:101E400038B1FFE706980168086840F008000860AC
:101E5000FFE706980168086840F00100086009E0A3
:101E6000FFE70699002081F83400FFE702208DF893
:101E70000B00FFE79DF80B008DF81F00FFE79DF8B2
:101E80001F0008B080BD000080B584B0039000F052
:101E900033FA0290039801900198013048B1FFE7AE
:101EA00040F21800C2F20000017801980844019045
:101EB000FFE7FFE700F020FA0299401A01998842F3
:101EC00001D2FFE7F6E704B080BD000080B582B024
:101ED000ADF8060040F60D21C2F2000101200870A5
:101EE00040F60000C4F202004FF4005100F0D8F9AF
:101EF00040F60C21C2F2000108780130087002B0EF
:101F000080BD000080B582B0ADF8060043F61440F5
:101F1000C4F201000068BDF8061008420CD0FFE7CB
:101F2000BDF8060043F61441C4F201010860BDF893
:101F30000600FFF7CBFFFFE702B080BD8BB00A9031
:101F4000099100200790069005900890FFE70898F7
:101F50000F2800F2A281FFE708990120884007902E
:101F600009980068079908400690069807998842E2
:101F700040F08E81FFE70998406800F003000128D7
:101F800007D0FFE70998406800F0030002282FD12E
:101F9000FFE70A988068059008984100032000FA3E
:101FA00001F10598884305900998C068089949008F
:101FB00000FA01F105980843059005980A99886090
:101FC0000A98406805900899012000FA01F10598E7
:101FD0008843059009984068C0F30010089900FAFA
:101FE00001F105980843059005980A994860FFE7B4
:101FF0000998406800F00300032818D0FFE70A980A
:10200000C068059008984100032000FA01F1059886
:1020100088430590099880680899490000FA01F101
:1020200005980843059005980A99C860FFE7099844
:10203000406800F00300022826D1FFE70A980899BB
:102040006FF0030202EA51010844006A0590089803
:1020500000F0070081000F2000FA01F10598884385
:10206000059009980069089901F00701890000FAB4
:1020700001F105980843059005980A99089B02EA22
:10208000530211440862FFE70A9800680590089817
:102090004100032000FA01F1059888430590099852
:1020A000406800F003000899490000FA01F1059822
:1020B0000843059005980A99086009988079800777
:1020C000002800F0E480FFE7FFE70020049043F6DB
:1020D0004400C4F20200016841F4804101600068DC
:1020E00000F4804004900498FFE7089820F0030073
:1020F00043F60801C4F2010140580590089800F029
:10210000030081000F2000FA01F105988843059033
:102110000A980021C4F20201884203D1FFE700209F
:10212000039034E00A9840F20041C4F20201884270
:1021300003D1FFE70120029026E00A9840F6000153
:10214000C4F20201884203D1FFE70220019018E0A7
:102150000A9840F60041C4F20201884203D1FFE729
:10216000032000900AE00A9941F20002C4F2020240
:102170000720914208BF04200090FFE700980190DB
:10218000FFE701980290FFE702980390FFE70398AA
:10219000C0B2089901F00301890000FA01F1059825
:1021A000084305900598089921F0030143F60802B9
:1021B000C4F20102885043F60840C4F201000068EE
:1021C0000590069905988843059009988079C0067E
:1021D000002805D5FFE70699059808430590FFE715
:1021E000059843F60841C4F20101086043F60C402B
:1021F000C4F201000068059006990598884305908F
:10220000099880798006002805D5FFE7069905988A
:1022100008430590FFE7059843F60C41C4F201011D
:10222000086043F60440C4F2010000680590069976
:10223000059888430590099880798007002805D57E
:10224000FFE70699059808430590FFE7059843F6D0
:102250000441C4F20101086043F60040C4F20100E9
:10226000006805900699059888430590099880793B
:10227000C00728B1FFE70699059808430590FFE7D6
:10228000059843F60041C4F201010860FFE7FFE74B
:10229000FFE708980130089059E60BB0704700003E
:1022A00083B00290ADF80610029840690090009A41
:1022B000BDF8060002EA0001904340EA014002999D
:1022C000886103B07047000082B00190ADF8021041
:1022D0008DF801209DF8010028B1FFE7BDF802004C
:1022E0000199886105E0BDF8020000040199886148
:1022F000FFE702B07047000041F29820C2F20000F0
:102300000068704780B58EB00C900C9820B9FFE73C
:1023100001208DF8370043E10C9890F83D0040B95A
:10232000FFE70C99002081F83C000C9800F046FA79
:10233000FFE70C99242081F83D000C98016808689B
:1023400020F0010008600C980168086840F4004023
:1023500008600C980168086820F40040086000F0EC
:1023600079FC0A900C98406848F2A061C0F2010123
:1023700088420BD8FFE70A9948F28042C0F21E0259
:102380000020914238BF012009900AE00A9940F6E6
:102390000012C0F23D020020914238BF0120099096
:1023A000FFE70998012804D1FFE701208DF83700E5
:1023B000F6E00A984DF68361C4F21B31A0FB0110D0
:1023C000800C0B900C980068406820F03F000B993F
:1023D00008430C99096848600C980068006A20F06E
:1023E0003F0008900C98406848F2A061C0F20101DB
:1023F000884204D8FFE70B98013007900EE00B9855
:102400004FF49671484344F6D351C1F26201A0FBE8
:102410000101012000EB91100790FFE70898079950
:1024200008430C99096808620C980068C0694CF66A
:10243000FF71884306900C98406848F2A061C0F292
:10244000010188421FD8FFE70A9801380C994968B2
:102450004900B0FBF1F001306FF31F30032803D8BF
:10246000FFE7042005900BE00A9801380C994968B1
:102470004900B0FBF1F001306FF31F300590FFE72A
:10248000059804904CE00C98806868B9FFE70A98BA
:1024900001380C99496801EB4101B0FBF1F00130C2
:1024A0006FF31F3003900DE00A9801380C994968CA
:1024B00019225143B0FBF1F00130042161F31F30C8
:1024C0000390FFE70398000518B9FFE70120029089
:1024D00023E00C98806868B9FFE70A9801380C99E6
:1024E000496801EB4101B0FBF1F001306FF31F309F
:1024F00001900DE00A9801380C994968192251435E
:10250000B0FBF1F00130042161F31F300190FFE7CF
:10251000019840F400400290FFE702980490FFE722
:102520000698049908430C990968C8610C980068DA
:10253000006820F0C0000C9B1968DA691B6A1A4316
:10254000104308600C980068806848F2FF318843A7
:102550000C9A1168D36812691A43104388600C986A
:102560000068C06820F0FF000C9B19685A699B69DD
:102570001A431043C8600C980168086840F00100D5
:1025800008600C99002008640C9A202182F83D1004
:102590000C9908630C9981F83E008DF83700FFE72D
:1025A0009DF837000EB080BD10B588B084460C98F9
:1025B0000B98DDF828E0CDF818C0ADF81610ADF88E
:1025C0001420ADF81230ADF81000FFF795FE03901F
:1025D000069890F83D00202840F0E880FFE7069834
:1025E00003996A4611600221C0F2100101221923E9
:1025F00001F07AFF20B1FFE702208DF81F00D9E03B
:10260000FFE7069890F83C00012804D1FFE702207C
:102610008DF81F00CEE00699012081F83C00FFE70D
:10262000FFE706980068006800F00100012807D065
:10263000FFE706980168086840F001000860FFE7BE
:1026400006980168086820F4006008600699212057
:1026500081F83D000699402081F83E00069900204F
:1026600008640A9806994862BDF8100006994885E2
:102670000698408D0699088506990020CFF6FF70D0
:10268000C8620698BDF81610BDF81420BDF81230C7
:10269000DDF830C0039CEE46CEF80440CEF800C012
:1026A00001F02EFE20B1FFE701208DF81F0081E030
:1026B000FFE70698008D002849D0FFE706980C999F
:1026C000039A02F03FF880B1FFE70698006C0428F7
:1026D00007D1FFE706980168086840F400700860B9
:1026E000FFE701208DF81F0064E006980168406A4A
:1026F000007808610699486A013048620699088D99
:10270000013808850699488D013848850698006883
:10271000406900F004010120B0EB910F16D1FFE7F2
:102720000698008D90B1FFE706980168406A00782E
:1027300008610699486A013048620699088D013897
:1027400008850699488D01384885FFE7B1E7069866
:102750000C99039A01F072FE80B1FFE70698006CB5
:10276000042807D1FFE706980168086840F4007064
:102770000860FFE701208DF81F001BE00698016844
:10278000086840F4007008600699202081F83D0038
:102790000699002081F83E00FFE70699002081F8A5
:1027A0003C00FFE700208DF81F0003E002208DF8B9
:1027B0001F00FFE79DF81F0008B010BD80B58EB068
:1027C0000D9000200C900B900A90099008900D98A5
:1027D000006845F60001C4F2000188424CD1FFE7D1
:1027E000FFE70020079043F63000C4F202000168C2
:1027F00041F002010160006800F0020007900798B4
:10280000FFE74FF4806008901220019009900020AB
:1028100002900A90032003900B9004200C9040F249
:102820000040C4F20200049008A90591FFF786FB5E
:10283000DDF804C0029B039A049805994FF4007ECA
:10284000CDF820E0CDF824C00A930B9209220C9217
:10285000FFF774FBFFE70020069043F64000C4F248
:102860000200016841F480010160006800F480000A
:1028700006900698FFE7FFE70EB080BD40F2180013
:10288000C2F20000027841F29821C2F20001086809
:10289000104408607047000080B543F60041C4F260
:1028A0000201086840F400700860086840F4806025
:1028B0000860086840F480700860032000F08AF81F
:1028C0000F2000F005F800F03BF8002080BD00006C
:1028D00080B582B0009040F20400C2F200000068AF
:1028E00040F21801C2F200010A784FF47A71B1FB8C
:1028F000F2F1B0FBF1F000F093FD20B1FFE7012011
:102900008DF8070018E000980F280DD8FFE7009910
:102910004FF0FF30002200F043F8009840F21C0115
:10292000C2F20001086003E001208DF8070003E017
:1029300000208DF80700FFE79DF8070002B080BD7A
:1029400082B0FFE70020019043F64400C4F2020089
:10295000016841F480410160006800F4804001900A
:102960000198FFE7FFE70020009043F64000C4F223
:102970000200016841F080510160006800F0805061
:1029800000900098FFE702B07047000080B582B069
:102990008DF807009DF9070003F0F8FA02B080BD3A
:1029A00080B586B08DF81700049103920020029044
:1029B00003F004FB02909DF917000190029804991E
:1029C000039A02F043F90146019803F0FFFA06B0BA
:1029D00080BD000080B582B00190019803F018FB23
:1029E00002B080BD80B584B002900191029820B9F8
:1029F000FFE701208DF80F0021E1019843F6004127
:102A0000C4F20201096801F00701884212D9FFE708
:102A1000019943F60040C4F202000170006800F022
:102A200007000199884204D0FFE701208DF80F00CC
:102A300005E1FFE702980078800700282AD5FFE724
:102A4000029800784007002809D5FFE743F60801FF
:102A5000C4F20201086840F4E0500860FFE7029801
:102A600000780007002809D5FFE743F60801C4F203
:102A70000201086840F460400860FFE743F608017F
:102A8000C4F20201086820F0F000029A9268104334
:102A90000860FFE702980078C00700286ED0FFE7C3
:102AA00002984068012811D1FFE743F60000C4F204
:102AB0000200006800F400310020B0EB514F04D157
:102AC000FFE701208DF80F00B9E02CE00298406884
:102AD000022805D0FFE702984068032811D1FFE7DC
:102AE00043F60000C4F20200006800F0007100200C
:102AF000B0EB516F04D1FFE701208DF80F009EE08D
:102B000010E043F60000C4F20200006800F0020189
:102B10000020B0EB510F04D1FFE701208DF80F002A
:102B20008DE0FFE7FFE743F60801C4F20201086801
:102B300020F00300029A526810430860FFF7DCFBA4
:102B40000090FFE743F60800C4F20200006800F0BE
:102B50000C0002994968B0EB810F0ED0FFE7FFF738
:102B6000CBFB0099401A41F28931884204D3FFE738
:102B700003208DF80F0062E0E4E7FFE7019843F6D9
:102B80000041C4F20201096801F00701884212D233
:102B9000FFE7019943F60040C4F2020001700068AB
:102BA00000F007000199884204D0FFE701208DF86A
:102BB0000F0044E0FFE702980078400700280CD59A
:102BC000FFE743F60801C4F20201086820F4E05070
:102BD000029AD26810430860FFE702980078000765
:102BE00000280DD5FFE743F60801C4F2020108688A
:102BF00020F46040029A126940EAC2000860FFE7D0
:102C000000F03AF843F60801C4F202010968C9B2BB
:102C10000A0947F23001C0F60001895CC84040F261
:102C20000401C2F20001086040F21C00C2F2000080
:102C30000068FFF74DFE00208DF80F00FFE79DF8BC
:102C40000F0004B080BD000040F20400C2F200009A
:102C50000068704780B5FFF7F7FF43F60801C4F23C
:102C600002010968C1F3822247F24001C0F6000167
:102C7000895CC84080BD000080B586B0002005900A
:102C800004900390029043F60800C4F2020000682A
:102C900000F00C000146019140B1FFE701980428C3
:102CA0000AD0FFE7019808280CD04FE042F200401C
:102CB000C0F2F40002904FE047F64000C0F27D10F1
:102CC000029049E043F60400C4F20200016801F0FA
:102CD0003F01059100684002002813D5FFE743F645
:102CE0000400C4F202000068C0F3881047F64001F7
:102CF000C0F27D11A0FB0101059A0023FDF768FADF
:102D0000049012E043F60400C4F202000068C0F32D
:102D1000881042F20041C0F2F401A0FB0101059AC3
:102D20000023FDF755FA0490FFE743F60400C4F2D0
:102D30000200006800F44031022000EBD130039023
:102D400004980399B0FBF1F0029005E042F20040D4
:102D5000C0F2F4000290FFE7029806B080BD0000C8
:102D600080B586B00490049820B9FFE701208DF863
:102D7000170050E304980078C007002800F0A580F1
:102D8000FFE743F60800C4F20200006800F00C0000
:102D9000042813D0FFE743F60800C4F202000068DD
:102DA00000F00C0008281ED1FFE743F60400C4F22F
:102DB000020000684002002815D5FFE743F6000036
:102DC000C4F20200006800F400310020B0EB514F63
:102DD00008D0FFE70498406820B9FFE701208DF88C
:102DE000170018E370E0FFE704984068B0F5803FF3
:102DF00009D1FFE743F60001C4F20201086840F47C
:102E00008030086020E004984068B0F5A02F0DD114
:102E1000FFE743F60001C4F20201086840F4802095
:102E20000860086840F4803008600CE043F6000158
:102E3000C4F20201086820F480300860086820F4B9
:102E400080200860FFE7FFE7FFE704984068E8B1EB
:102E5000FFE7FFF751FA0390FFE743F60000C4F2E3
:102E60000200006800F400310020B0EB514F0CD19B
:102E7000FFE7FFF741FA0399401A652804D3FFE7FB
:102E800003208DF81700C6E2E7E71CE0FFF734FAED
:102E90000390FFE743F60000C4F20200006800F46C
:102EA00000310020B0EB514F0CD0FFE7FFF724FAC0
:102EB0000399401A652804D3FFE703208DF8170013
:102EC000A9E2E7E7FFE7FFE7FFE70498007880075C
:102ED000002840F19680FFE743F60800C4F20200A4
:102EE000006810F00C0F13D0FFE743F60800C4F29F
:102EF0000200006800F00C0008282CD1FFE743F620
:102F00000400C4F2020000684002002823D4FFE756
:102F100043F60000C4F20200006800F00201002045
:102F2000B0EB510F09D0FFE70498C068012804D026
:102F3000FFE701208DF817006DE243F60001C4F2AF
:102F40000201086820F0F800049A126940EAC20001
:102F50000860FFE754E00498C06870B3FFE7002101
:102F6000C4F2472101200860FFF7C6F90390FFE78C
:102F700043F60000C4F20200006800F002010020E5
:102F8000B0EB510F0CD1FFE7FFF7B6F90399401AE8
:102F9000032804D3FFE703208DF817003BE2E7E79F
:102FA00043F60001C4F20201086820F0F800049A18
:102FB000126940EAC200086021E00021C4F2472102
:102FC00000200860FFF798F90390FFE743F6000040
:102FD000C4F20200006800F002010020B0EB510FC3
:102FE0000CD0FFE7FFF788F90399401A032804D3B0
:102FF000FFE703208DF817000DE2E7E7FFE7FFE7A3
:10300000FFE704980078000700284BD5FFE70498F5
:10301000406918B3FFE740F68061C4F24721012000
:103020000860FFF769F90390FFE743F67400C4F204
:103030000200006800F002010020B0EB510F0CD13B
:10304000FFE7FFF759F90399401A032804D3FFE774
:1030500003208DF81700DEE1E7E722E040F680610B
:10306000C4F2472100200860FFF746F90390FFE70C
:1030700043F67400C4F20200006800F00201002070
:10308000B0EB510F0CD0FFE7FFF736F90399401A68
:10309000032804D3FFE703208DF81700BBE1E7E71F
:1030A000FFE7FFE7049800784007002840F1CE8052
:1030B000FFE700208DF8070043F64000C4F202004D
:1030C0000068C000002815D4FFE7FFE7002000904B
:1030D00043F64000C4F20200016841F080510160F3
:1030E000006800F0805000900098FFE701208DF804
:1030F0000700FFE747F20000C4F200000068C005C7
:10310000002822D4FFE747F20001C4F2000108685A
:1031100040F480700860FFF7EFF80390FFE747F294
:103120000000C4F200000068C00500280CD4FFE7CE
:10313000FFF7E2F80399401A032804D3FFE70320BE
:103140008DF8170067E1EAE7FFE7FFE7049880687A
:10315000012809D1FFE743F67001C4F202010868B3
:1031600040F0010008601FE00498806805280DD138
:10317000FFE743F67001C4F20201086840F0040062
:103180000860086840F0010008600CE043F6700138
:10319000C4F20201086820F001000860086820F00D
:1031A00004000860FFE7FFE7FFE704988068F8B1D4
:1031B000FFE7FFF7A1F80390FFE743F67000C4F2C2
:1031C0000200006800F002010020B0EB510F0ED1A8
:1031D000FFE7FFF791F80399401A41F289318842DD
:1031E00004D3FFE703208DF8170014E1E5E71EE0A4
:1031F000FFF782F80390FFE743F67000C4F2020085
:10320000006800F002010020B0EB510F0ED0FFE784
:10321000FFF772F80399401A41F28931884204D3CA
:10322000FFE703208DF81700F5E0E5E7FFE79DF8DD
:103230000700012809D1FFE743F64001C4F202016B
:10324000086820F080500860FFE7FFE70498806975
:10325000002800F0DC80FFE743F60800C4F202001B
:10326000006800F00C00082800F08580FFE7049853
:10327000806902285CD1FFE76021C4F24721002069
:103280000860FFF739F80390FFE743F60000C4F247
:103290000200006800F000710020B0EB516F0CD00C
:1032A000FFE7FFF729F80399401A032804D3FFE743
:1032B00003208DF81700AEE0E7E70499C869D1F85C
:1032C00020C04B6A8A6A40EA0C0040EA8310D203AD
:1032D0004FF6FF739A43A2F580321043C96A40EA61
:1032E000016043F60401C4F2020108606021C4F2E7
:1032F000472101200860FEF7FFFF0390FFE743F638
:103300000000C4F20200006800F000710020B0EB81
:10331000516F0CD1FFE7FEF7EFFF0399401A032826
:1033200004D3FFE703208DF8170074E0E7E721E0FE
:103330006021C4F2472100200860FEF7DDFF039002
:10334000FFE743F60000C4F20200006800F00071DD
:103350000020B0EB516F0CD0FFE7FEF7CDFF0399D3
:10336000401A032804D3FFE703208DF8170052E02A
:10337000E7E7FFE74AE004988069012804D1FFE706
:1033800001208DF8170046E043F60400C4F2020065
:103390000068029004988069012831D0FFE7029804
:1033A00000F480000499C969884229D1FFE7029896
:1033B00000F03F000499096A884221D1FFE7029892
:1033C00047F6C07108400499496AB0EB811F17D1D4
:1033D000FFE7029800F440300499896AC9034FF668
:1033E000FF729143A1F58031884209D1FFE702982D
:1033F00000F070600499C96AB0EB016F04D0FFE778
:1034000001208DF8170006E0FFE7FFE7FFE7002047
:103410008DF81700FFE79DF8170006B080BD00008B
:1034200080B582B00190019802F0C4F902B080BD6D
:1034300081B0009001B0704781B0009001B070473A
:1034400085B003900291FFE7039890F83C000128B3
:1034500004D1FFE702208DF813006CE003990120EE
:1034600081F83C00FFE7FFE70399022081F83D0067
:103470000398006840680190039800688068009095
:10348000019820F0700001900298016801980843AB
:103490000190019803990968486003980068002129
:1034A000C4F2010188422AD0FFE703980068B0F116
:1034B000804F24D0FFE70398006840F20041C4F237
:1034C000000188421BD0FFE70398006840F6000126
:1034D000C4F20001884212D0FFE70398006840F66A
:1034E0000041C4F20001884209D0FFE70398006858
:1034F00044F20001C4F2010188420ED1FFE70098B6
:1035000020F08000009002984168009808430090E5
:103510000098039909688860FFE70399012081F802
:103520003D00FFE70399002081F83C00FFE7002001
:103530008DF81300FFE79DF8130005B070470000F9
:1035400080B582B00090009820B9FFE701208DF887
:1035500007003FE0009890F83D0040B9FFE7009970
:10356000002081F83C00009800F038F8FFE700994F
:10357000022081F83D00009951F8040B02F0C0F9D7
:103580000099012081F84600FFE70099012081F8A9
:103590003E00009981F83F00009981F840000099B1
:1035A00081F84100FFE7FFE70099012081F8420020
:1035B000009981F84300009981F84400009981F84E
:1035C0004500FFE70099012081F83D0000208DF8BB
:1035D0000700FFE79DF8070002B080BD80B586B008
:1035E000059005980068B0F1804F1BD1FFE7FFE719
:1035F0000020049043F64000C4F20200016841F04C
:1036000001010160006800F0010004900498FFE7E8
:103610001C20029002210022FFF7C2F90298FFF756
:10362000B5F924E00598006840F20041C4F20001B9
:1036300088421BD1FFE7FFE70020039043F64000DC
:10364000C4F20200016841F002010160006800F06C
:10365000020003900398FFE71D200190002211460D
:10366000FFF79EF90198FFF791F9FFE7FFE706B032
:1036700080BD000083B00190019890F83D000128C2
:1036800004D0FFE701208DF80B0052E001990220E1
:1036900081F83D00019800680021C4F201018842D0
:1036A0002AD0FFE701980068B0F1804F24D0FFE7EF
:1036B0000198006840F20041C4F2000188421BD02A
:1036C000FFE70198006840F60001C4F2000188425B
:1036D00012D0FFE70198006840F60041C4F20001F3
:1036E000884209D0FFE70198006844F20001C4F263
:1036F0000101884212D1FFE701980068806800F05C
:10370000070000900098062807D0FFE7019801689D
:10371000086840F001000860FFE706E001980168D2
:10372000086840F001000860FFE700208DF80B00FA
:10373000FFE79DF80B0003B07047000083B00190D5
:10374000019890F83D00012804D0FFE701208DF892
:103750000B0058E00199022081F83D0001980168B2
:10376000C86840F00100C860019800680021C4F2F8
:10377000010188422AD0FFE701980068B0F1804F2C
:1037800024D0FFE70198006840F20041C4F2000134
:1037900088421BD0FFE70198006840F60001C4F2A0
:1037A0000001884212D0FFE70198006840F600410E
:1037B000C4F20001884209D0FFE70198006844F292
:1037C0000001C4F20101884212D1FFE701980068AC
:1037D000806800F0070000900098062807D0FFE7F7
:1037E00001980168086840F001000860FFE706E002
:1037F00001980168086840F001000860FFE70020B8
:103800008DF80B00FFE79DF80B0003B07047000038
:1038100080B586B00490039100208DF80B00FFE77F
:10382000049890F83C00012804D1FFE702208DF8AD
:103830001700ABE00499012081F83C00FFE7FFE7A7
:103840000499022081F83D00049800688068019086
:10385000019820F077000190019820F47F400190BA
:10386000019804990968886003980068009000280E
:1038700072D0FFE7009810286ED0FFE7009820284C
:103880006AD0FFE70098302866D0FFE7009840280C
:1038900055D0FFE70098502837D0FFE70098602800
:1038A00040D0FFE7009870280BD0FFE70098B0F5F4
:1038B000805F05D0FFE70098B0F5005F16D052E0BA
:1038C00055E004980068039B5A689968DB6802F029
:1038D000DBF80498006880680190019840F0770058
:1038E0000190019804990968886040E00498006894
:1038F000039B5A689968DB6802F0C6F8049801686F
:10390000886840F48040886031E004980068039A39
:103910005168D26802F06CFA04980068502102F0F5
:10392000CDF824E004980068039A5168D26802F048
:1039300087FA04980068602102F0C0F817E0049844
:103940000068039A5168D26802F052FA049800683D
:10395000402102F0B3F80AE004980068039909686E
:1039600002F0ACF803E001208DF80B00FFE70499AA
:10397000012081F83D00FFE70499002081F83C0018
:10398000FFE79DF80B008DF81700FFE79DF8170083
:1039900006B080BD80B586B004900391049820B92C
:1039A000FFE701208DF8170088E0049890F83D00AB
:1039B00040B9FFE70499002081F83C00049800F02A
:1039C00081F8FFE70499022081F83D00049801681E
:1039D000886844F2070290438860049951F8040B08
:1039E00001F08EFF049800688068029004980068D7
:1039F0008069019004980068006A0090039801684B
:103A0000029808430290019840F2033188430190E4
:103A100003998868896940EA012101980843019067
:103A2000019840F60C418843019001984FF2F00153
:103A3000884301900399C868C96940EA0121019847
:103A40000843019003990869096A000140EA0131BD
:103A5000019808430190009820F0220000900098FF
:103A600020F08800009003994868496940EA0111F4
:103A700000980843009002980499096888600198AA
:103A80000499096888610098049909680862049992
:103A9000012081F84600049981F83E00049981F8DC
:103AA0003F00049981F84200049981F84300049989
:103AB00081F83D0000208DF81700FFE79DF8170002
:103AC00006B080BD80B588B00790002006900590B4
:103AD000049003900290079800680021C4F201014D
:103AE000884233D1FFE7FFE70020019043F644000E
:103AF000C4F20200016841F001010160006800F0B9
:103B0000010001900198FFE7FFE70020009043F6D5
:103B10003000C4F20200016841F001010160006858
:103B200000F0010000900098FFE74FF44070029011
:103B300002200390002004900590012006900020B0
:103B4000C4F2020002A9FEF7F9F9FFE708B080BD50
:103B500080B586B004900391049890F83E008DF8EB
:103B60000B00049890F83F008DF80A00049890F834
:103B700042008DF80900049890F843008DF8080081
:103B80000398B8B9FFE79DF80B00012805D1FFE7BE
:103B90009DF80900012804D0FFE701208DF81700E7
:103BA00079E00499022081F83E00049981F84200EE
:103BB000FFE742E00398042817D1FFE79DF80A00C9
:103BC000012805D1FFE79DF80800012804D0FFE790
:103BD00001208DF817005EE00499022081F83F0073
:103BE000049981F84300FFE726E09DF80B000128C7
:103BF0000FD1FFE79DF80A0001280AD1FFE79DF8E1
:103C00000900012805D1FFE79DF80800012804D02C
:103C1000FFE701208DF817003DE00499022081F8AC
:103C20003E00049981F83F00049981F8420004990C
:103C300081F84300FFE7FFE7FFE70398019020B119
:103C4000FFE70198042807D00DE0049800680021E0
:103C5000012201F0FDFE14E0049800680421012215
:103C600001F0F6FE0DE004980068002101220092A8
:103C700001F0EEFE009A04980068042101F0E8FECD
:103C8000FFE704980168086840F001000860002020
:103C90008DF81700FFE79DF8170006B080BD000003
:103CA00081B0009001B0704780B584B00390039854
:103CB0000068C068029003980068006901909DF850
:103CC00004008007002824D5FFE79DF8080080073E
:103CD00000281DD5FFE7039801686FF00200086116
:103CE000039901200877039800688069800720B154
:103CF000FFE70398FFF7D4FF06E0039800F014F9FC
:103D0000039800F009FAFFE7039900200877FFE71E
:103D1000FFE79DF804004007002825D5FFE79DF840
:103D20000800400700281ED5FFE7039801686FF0E0
:103D300004000861039902200877039800688069ED
:103D400010F4407F04D0FFE70398FFF7A9FF06E0D7
:103D5000039800F0E9F8039800F0DEF9FFE7039913
:103D600000200877FFE7FFE79DF804000007002820
:103D700024D5FFE79DF80800000700281DD5FFE7C0
:103D8000039801686FF00800086103990420087720
:103D900003980068C069800720B1FFE70398FFF728
:103DA0007FFF06E0039800F0BFF8039800F0B4F935
:103DB000FFE7039900200877FFE7FFE79DF804007D
:103DC000C006002825D5FFE79DF80800C00600289A
:103DD0001ED5FFE7039801686FF010000861039992
:103DE0000820087703980068C06910F4407F04D069
:103DF000FFE70398FFF754FF06E0039800F094F8FC
:103E0000039800F089F9FFE7039900200877FFE79E
:103E1000FFE79DF80400C00778B1FFE79DF80800B0
:103E2000C00748B1FFE7039801686FF0010008611F
:103E3000039800F075F9FFE7FFE79DF8040000061E
:103E4000002810D5FFE79DF808000006002809D5D6
:103E5000FFE7039801686FF0800008610398FFF79F
:103E6000E7FAFFE7FFE79DF804004006002810D5B9
:103E7000FFE79DF808004006002809D5FFE70398F2
:103E800001686FF040000861039800F001FAFFE755
:103E9000FFE79DF804008006002810D5FFE79DF895
:103EA00008008006002809D5FFE7039801686FF035
:103EB000200008610398FFF7BFFAFFE7FFE704B0AF
:103EC00080BD000080B588B0079000200690059066
:103ED00004900390029007980068B0F1804F21D1C0
:103EE000FFE7FFE70020019043F63000C4F2020034
:103EF000016841F001010160006800F001000190DB
:103F00000198FFE70820029002200390002004900F
:103F10000590012006900020C4F2020002A9FEF7DD
:103F20000DF8FFE708B080BD81B0009001B0704788
:103F300080B586B004900391029200208DF80700AE
:103F4000FFE7049890F83C00012804D1FFE7022025
:103F50008DF8170089E00499012081F83C00FFE703
:103F6000FFE7029800900C2800F270800099DFE8CB
:103F700001F0076D6D6D206D6D6D3A6D6D6D5300C7
:103F800004980068039901F0AFFD049801688869FE
:103F900040F00800886104980168886920F00400F6
:103FA00088610398026904980168886910438861F0
:103FB00050E004980068039901F0FCFD0498016842
:103FC000886940F40060886104980168886920F479
:103FD000806088610398026904980168886940EAF2
:103FE0000220886136E004980068039901F04CFED5
:103FF00004980168C86940F00800C8610498016825
:10400000C86920F00400C861039802690498016837
:10401000C8691043C8611DE004980068039901F065
:104020009DFE04980168C86940F40060C861049866
:104030000168C86920F48060C86103980269049827
:104040000168C86940EA0220C86103E001208DF8D8
:104050000700FFE7FFE70499002081F83C00FFE735
:104060009DF807008DF81700FFE79DF8170006B0D0
:1040700080BD000080B582B00090009820B9FFE7B5
:1040800001208DF807003FE0009890F83D0040B90E
:10409000FFE70099002081F83C00009800F038F814
:1040A000FFE70099022081F83D00009951F8040BC8
:1040B00001F026FC0099012081F84600FFE70099F5
:1040C000012081F83E00009981F83F00009981F8B5
:1040D0004000009981F84100FFE7FFE700990120C7
:1040E00081F84200009981F84300009981F844006A
:1040F000009981F84500FFE70099012081F83D0013
:1041000000208DF80700FFE79DF8070002B080BD92
:1041100081B0009001B0704781B0009001B070474D
:1041200080B58AB0099009980068B0F1804F01D13C
:10413000FFE79BE00998006840F20041C4F20001EB
:10414000884240F09280FFE740F61060C2F2000023
:1041500090ED000B9FED461B53EC112B51EC100B17
:10416000FCF732F941EC100B51EC100B9FED420BB8
:1041700053EC102BFCF79AF941EC100B51EC100B9F
:10418000FCF72FFAADF82200BDF82200802804DBEE
:10419000FFE70020ADF82200FFE7BDF8221040F64F
:1041A0001860C2F20000405C8DF821009DF82100EB
:1041B00001F09EFE40F21000C2F2000090ED000BF4
:1041C00051EC100B9FED2C0B53EC102B059304922C
:1041D000FCF7FAF841EC100B40F61060C2F2000058
:1041E000069090ED001B8DED021B51EC100B9FED26
:1041F000240B53EC102BFCF7E7F89DED020B41EC80
:10420000110B51EC110B53EC102BFCF736F8049A00
:10421000059B84460698CDF81CC08C4607994CEC4B
:10422000101B80ED000B90ED000B51EC100BFCF718
:10423000ACF9C8B9FFE740F61060C2F20000009088
:1042400090ED000B9FED101B53EC112B51EC100B5C
:10425000FCF713F80246009801920A46019942ECD5
:10426000101B80ED000BFFE7FFE7FFE70AB080BD02
:1042700000000000000060406E861BF0F92119402C
:104280002D431CEBE2361A3F6E861BF0F92119C054
:1042900081B0009001B07047FFE7FEE782B0009068
:1042A00000980068406900F480610120B0EB912F14
:1042B0001ED1FFE7009801686FF4806048610099A3
:1042C00000200863009A202182F83D10009981F8AF
:1042D0003E000099086C40F004000864FFE7009974
:1042E000002081F83C00FFE701208DF8070003E083
:1042F00000208DF80700FFE79DF8070002B0704727
:1043000080B586B0DDF824C0DDF820C00490ADF89B
:104310000E10ADF80C20ADF80A300498016808685A
:1043200040F4807008600498089B09996A461160FF
:104330004FF00111002200F0D7F880B1FFE7049898
:1043400000680068C005002805D5FFE704994FF410
:1043500000700864FFE703208DF8170069E0BDF8DE
:104360000E0000F0FE000499096808610498089A9C
:10437000099B0221C0F2010100F03AF920B1FFE7E8
:1043800001208DF8170054E0FFE700200190049809
:104390000068406901900498006880690190019864
:1043A000FFE704980899099A00F0CCF980B1FFE77B
:1043B0000498006C042807D1FFE704980168086896
:1043C00040F400700860FFE701208DF8170030E02E
:1043D000BDF80A00012806D1FFE79DF80C000499FA
:1043E0000968086121E09DF80D00049909680861D9
:1043F00004980899099A00F0A5F980B1FFE704989C
:10440000006C042807D1FFE704980168086840F4AD
:1044100000700860FFE701208DF8170009E09DF8A3
:104420000C00049909680861FFE700208DF8170067
:10443000FFE79DF8170006B080BD000080B584B08E
:10444000029001910092FFE702980068406900F035
:1044500004010020B0EB910F3ED1FFE70298FFF777
:104460001DFF20B1FFE701208DF80F0038E0019813
:10447000013080B3FFE7FDF73FFF0099401A019933
:10448000884203D8FFE7019820BBFFE70298006845
:10449000406900F004010020B0EB910F19D1FFE753
:1044A000029900200863029A202182F83D100299A7
:1044B00081F83E000299086C40F020000864FFE794
:1044C0000299002081F83C00FFE701208DF80F00E1
:1044D00006E0FFE7FFE7B7E700208DF80F00FFE7F2
:1044E0009DF80F0004B080BD80B588B0DDF828C00D
:1044F000069005918DF813200393FFE79DF81600B1
:1045000001280CD1FFE7069800684069BDF8141037
:104510000840401AB0FA80F0400902900BE006987B
:1045200000688069BDF814100840401AB0FA80F0A5
:1045300040090290FFE702989DF8131088424FD17E
:10454000FFE703980130002849D0FFE7FDF7D4FECC
:104550000A99401A0399884203D8FFE70398E8BBF9
:10456000FFE79DF8160001280CD1FFE706980068C8
:104570004069BDF814100840401AB0FA80F04009B4
:1045800001900BE0069800688069BDF8141008409F
:10459000401AB0FA80F040090190FFE701989DF8B9
:1045A0001310884219D1FFE7069900200863069A84
:1045B000202182F83D10069981F83E000699086C8A
:1045C00040F020000864FFE70699002081F83C00D5
:1045D000FFE701208DF81F0006E0FFE7FFE78DE70A
:1045E00000208DF81F00FFE79DF81F0008B080BD78
:1045F00080B588B00690059104920393FFE79DF87B
:10460000160001280CD1FFE7069800684069BDF844
:1046100014100840401AB0FA80F0400902900BE0F4
:10462000069800688069BDF814100840401AB0FA76
:1046300080F040090290FFE7029800287AD1FFE756
:1046400006980068406900F480610120B0EB912F6A
:1046500024D1FFE706980168086840F400700860FC
:10466000069801686FF4806048610699002008632D
:10467000069A202182F83D10069981F83E0006999D
:10468000086C40F004000864FFE70699002081F8F8
:104690003C00FFE701208DF81F004FE00498013037
:1046A000002846D0FFE7FDF727FE0399401A04993A
:1046B000884203D8FFE70498D0BBFFE79DF81600B7
:1046C00001280CD1FFE7069800684069BDF8141076
:1046D0000840401AB0FA80F0400901900BE00698BB
:1046E00000688069BDF814100840401AB0FA80F0E4
:1046F00040090190FFE70198C8B9FFE7069900203B
:104700000863069A202182F83D10069981F83E0040
:104710000699086C40F020000864FFE70699002025
:1047200081F83C00FFE701208DF81F0006E0FFE75D
:10473000FFE764E700208DF81F00FFE79DF81F00EA
:1047400008B080BD80B584B0029001910092FFE76F
:10475000029800684069C1B20020B0EBD11F3DD182
:10476000FFE70298FFF79AFD20B1FFE701208DF8DF
:104770000F0037E00198013078B3FFE7FDF7BCFD8B
:104780000099401A0199884203D8FFE7019818BBA5
:10479000FFE7029800684069C1B20020B0EBD11F6A
:1047A00019D1FFE7029900200863029A202182F8BC
:1047B0003D10029981F83E000299086C40F02000FB
:1047C0000864FFE70299002081F83C00FFE7012020
:1047D0008DF80F0006E0FFE7FFE7B9E700208DF84E
:1047E0000F00FFE79DF80F0004B080BD80B586B0D4
:1047F00000210091059104910391029140F6380047
:10480000C2F20000019042F20002C4F20102026012
:104810004FF48032426081600161017680F820109F
:104820004FF08052C2624FF0C0628262C1600121CB
:10483000C16180F830104161FCF7B2FE18B1FFE7AA
:10484000FCF744FCFFE70020029001210391049053
:1048500040F63800C2F2000002A9FCF749FC18B18A
:10486000FFE7FCF733FCFFE740F63800C2F2000038
:10487000FCF7EEFE06B080BD80B582B0FFE70020F9
:10488000019043F63000C4F20200016841F4800157
:104890000160006800F4800001900198FFE7382073
:1048A000009001210022FEF77BF80098FEF76EF8D9
:1048B00002B080BD80B594B000201390129011908A
:1048C00010900F90FFE700200E9043F63000C4F2E6
:1048D0000200016841F004010160006800F004007A
:1048E0000E900E98FFE7FFE700200D9043F6300092
:1048F000C4F20200016841F080010160006800F02C
:1049000080000D900D98FFE7FFE700200C9043F624
:104910003000C4F20200016841F00101016000684A
:1049200000F001000C900C98FFE7FFE700200B90CF
:1049300043F63000C4F20200016841F00201016058
:10494000006800F002000B900B98FFE740F60000B3
:10495000C4F2020002904FF400510191002209922A
:10496000FDF7B2FC099A0020C4F202000490F6217F
:104970000391FDF7A9FC099A40F20040C4F202003D
:10498000079003210591FDF79FFC019A0298099970
:104990000F92012206921092119112910FA9089183
:1049A000FDF7CCFADDF80CC00498069B0899099A2B
:1049B000CDF83CC0109311921292FDF7BFFADDF8CA
:1049C00014C0069B07980899099ACDF83CC010932B
:1049D00011921292FDF7B2FA07980899099A4FF4CA
:1049E00000430F934FF4881310931192FDF7A6FA2A
:1049F000099A28200A900421FDF7D2FF0A98FDF7B2
:104A0000C5FF14B080BD000080B582B040F6E00064
:104A1000C2F20000019045F60001C4F200010160FD
:104A200041F68021C0F20601416000218160C16031
:104A30004FF48042026141618161C1610162FDF711
:104A400061FC18B1FFE7FCF741FBFFE702B080BD56
:104A500080B58EB005A800902421FBF703FC0099D7
:104A6000002301930493039340F63410C2F2000034
:104A700002900022C4F2010202604FF0020EC0F860
:104A800004E083604FF6FF72C2600361436183619B
:104A90004FF0010CCDF814C00693CDF81CC008935C
:104AA0000F220992CDF828E0CDF82CC00C930D927E
:104AB000FEF770FF18B1FFE7FCF708FBFFE70020E7
:104AC0000390049040F63410C2F2000003A9FEF7F0
:104AD000B7FC18B1FFE7FCF7F9FAFFE70EB080BDAD
:104AE00080B58EB0002100910D910C910B910A912F
:104AF0000991089107910691059104910391029102
:104B0000019140F67C10C2F200004FF0804202603A
:104B10000922426081604FF0FF32C2600161802152
:104B20008161FEF70DFD18B1FFE7FCF7CFFAFFE753
:104B30004FF480500A9040F67C10C2F200000AA99F
:104B4000FEF766FE18B1FFE7FCF7C0FAFFE740F694
:104B50007C10C2F20000FFF78DFA18B1FFE7FCF7F6
:104B6000B5FAFFE7202008900020099040F67C105D
:104B7000C2F2000008A9FEF763FC18B1FFE7FCF7DA
:104B8000A5FAFFE7602001904FF4FA700290002030
:104B90000390059040F67C10C2F2000001A90C229F
:104BA000FFF7C6F918B1FFE7FCF790FAFFE740F608
:104BB0007C10C2F20000FFF785F90EB080BD000046
:104BC00080B588B00021019107910691059104916B
:104BD0000391029140F6C410C2F2000040F200427C
:104BE000C4F200020260416081604FF6FF72C26051
:104BF00001618161FEF7A4FC18B1FFE7FCF766FADA
:104C0000FFE74FF48050049040F6C410C2F2000059
:104C100004A9FEF7FDFD18B1FFE7FCF757FAFFE71F
:104C200000200290039040F6C410C2F2000002A9D6
:104C3000FEF706FC18B1FFE7FCF748FAFFE708B0FB
:104C400080BD0000FFE7FEE7FFE7FEE788B00790C2
:104C500006910592079800F0070004900498C0F1AF
:104C60000700052803D3FFE70420019004E004981F
:104C7000C0F107000190FFE7019803900498043009
:104C8000062803D8FFE70020009003E004980338CB
:104C90000090FFE70098029006980399012202FA1B
:104CA00001F101390840029B984005999A40013A68
:104CB0001140084308B0704780B5002000F0DAF9D1
:104CC00080BD000081B000208DF80300FFE79DF853
:104CD0000300072823DCFFE700208DF80200FFE730
:104CE0009DF802007F2813DCFFE79DF8031040F6D3
:104CF0000E20C2F2000000EBC1119DF8022000203E
:104D00008854FFE79DF8020001308DF80200E7E7C4
:104D1000FFE79DF8030001308DF80300D7E701B0ED
:104D20007047000080B582B08DF807008DF806103E
:104D30009DF807007F2805DCFFE79DF80600402866
:104D400001DBFFE73AE09DF80600C0088DF805009A
:104D50009DF8060000F007008DF804009DF804108F
:104D6000012000FA01F39DF8051040F60E20C2F272
:104D70000000009000EBC1119DF80720885C1843EB
:104D800088549DF80500B030C0B201F085F89DF858
:104D9000070000F00F0001F07FF89DF80700000900
:104DA000103001F079F800989DF8051000EBC11063
:104DB0009DF80710405C01F085F8FFE702B080BD68
:104DC00080B588B08DF81F008DF81E109DF81E006C
:104DD000FBF738FF40F22800C2F20000007840F2F2
:104DE0002B01C2F200010978401A8DF81D009DF9CF
:104DF0001D0001284BDBFFE740F22800C2F2000053
:104E0000059000788DF81C009DF81C009DF81F107F
:104E100000F0EEF9059880780138C0B201F052F840
:104E20009DF81C0001388DF81C0000208DF81B0037
:104E3000FFE79DF81B009DF91D100139884215DA26
:104E4000FFE79DF81C009DF81F1000F0D1F9FF202E
:104E500001F038F89DF81C0001388DF81C00FFE7C0
:104E60009DF81B0001308DF81B00E2E79DF81C0047
:104E70009DF81F1000F0BCF940F22B00C2F20000B8
:104E80004178FF208840C0B201F01CF8C1E09DF9D4
:104E90001D00002866D1FFE740F22B00C2F200009F
:104EA000407840F22801C2F20001497888420FD1CF
:104EB000FFE740F22B00C2F20000049000789DF85A
:104EC0001F1000F095F90498807800F0FBFF48E08F
:104ED00040F22B00C2F20000407840F22801C2F2FA
:104EE00000014978884217DDFFE740F22B00C2F24B
:104EF0000000039000789DF81F1000F079F90398E6
:104F0000817840F22800C2F200008078081A084335
:104F1000C0B200F0D7FF23E040F22B00C2F2000045
:104F2000407840F22801C2F200014978884216DA3E
:104F3000FFE740F22B00C2F20000029000789DF8DB
:104F40001F1000F055F9029940F22800C2F200004B
:104F500080788978401AC0B200F0B4FFFFE7FFE71D
:104F6000FFE755E09DF91D00B0F1FF3F4FDCFFE783
:104F700040F22B00C2F20000019000788DF81C0076
:104F80009DF81C009DF81F1000F032F901988178FF
:104F90004FF0FF3000EB4100C0B200F093FF9DF8EE
:104FA0001C0001388DF81C0000208DF81B00FFE765
:104FB0009DF81B009DF91D10C943884215DAFFE7D3
:104FC0009DF81C009DF81F1000F012F9FF2000F062
:104FD00079FF9DF81C0001388DF81C00FFE79DF853
:104FE0001B0001308DF81B00E2E79DF81C009DF8C6
:104FF0001F1000F0FDF840F22800C2F200004078D7
:10500000411CFF208840C0B200F05CFFFFE7FFE7D3
:10501000FFE79DF81E00FBF765FD00208DF81B00E3
:10502000FFE79DF81B00072822DCFFE79DF81B0027
:105030009DF81F100131C9B200F0DAF800208DF898
:105040001A00FFE79DF81A0000280ADCFFE700209D
:1050500000F038FFFFE79DF81A0001308DF81A00C4
:10506000F0E7FFE79DF81B0001308DF81B00D8E743
:1050700008B080BD80B582B08DF8070000208DF8A3
:105080000600FFE79DF80600072828DCFFE79DF8EB
:105090000600B030C0B200F0FFFE0020009000F02B
:1050A000FBFE102000F0F8FE00988DF80500FFE7E9
:1050B0009DF805007F280BDCFFE79DF8070000F056
:1050C00001FFFFE79DF8050001308DF80500EFE7CF
:1050D000FFE79DF8060001308DF80600D2E702B028
:1050E00080BD000080B584B06420FCF7CDFEAE200A
:1050F00000F0D2FE2020039000F0CEFE10200190A0
:1051000000F0CAFEB02000F0C7FEC82000F0C4FEC8
:105110000020029000F0C0FE019800F0BDFE40208B
:1051200000F0BAFE812000F0B7FEFF2000F0B4FED0
:10513000A12000F0B1FEA62000F0AEFEA82000F0F5
:10514000ABFE3F2000F0A8FEA42000F0A5FED32077
:1051500000F0A2FE029800F09FFED52000F09CFE19
:10516000F02000F099FED92000F096FE222000F0F9
:1051700093FEDA2000F090FE122000F08DFEDB207E
:1051800000F08AFE039800F087FE8D2000F084FE78
:10519000142000F081FEAF2000F07EFE04B080BD40
:1051A00080B58D2000F078FE142000F075FEAF2051
:1051B00000F072FE80BD000080B582B08DF807005F
:1051C0008DF806109DF80600B030C0B200F064FE05
:1051D0009DF807000009103000F05EFE9DF8070002
:1051E00040F0010000F00F0000F056FE02B080BD5C
:1051F00080B582B08DF807008DF806109DF8070085
:10520000B030C0B200F048FE9DF8060000F00F007C
:1052100000F042FE9DF806000009103000F03CFE50
:1052200002B080BD80B582B08DF807008DF8061001
:105230008DF805208DF8043000208DF803008DF8DE
:1052400002009DF8050020388DF803009DF8070046
:10525000802809DBFFE700208DF807009DF8060095
:1052600002308DF80600FFE79DF8040010284AD1AF
:10527000FFE79DF807009DF80610FFF79DFF00204F
:105280008DF80200FFE79DF80200072814DCFFE715
:105290009DF803109DF8020000EB011147F2782001
:1052A000C0F60000405C00F00DFEFFE79DF8020034
:1052B00001308DF80200E6E79DF807009DF8061022
:1052C0000131C9B2FFF778FF00208DF80200FFE737
:1052D0009DF80200072815DCFFE79DF803109DF8F4
:1052E000020000EB011047F27821C0F600010844EB
:1052F000007A00F0E7FDFFE79DF8020001308DF82D
:105300000200E5E725E09DF807009DF80610FFF78D
:1053100053FF00208DF80200FFE79DF802000528EA
:1053200016DCFFE79DF8030000EB400147F2500058
:10533000C0F6000000EB41009DF80210405C00F058
:10534000C1FDFFE79DF8020001308DF80200E4E79F
:10535000FFE702B080BD000010B58CB00DF11C0C51
:10536000CDF80CC08C46039986460E988DF82FE038
:105370008DF82EC081ED030A8DF827208DF8263098
:105380008DF825009DF826100A2001F0F1F801465D
:105390000398089190ED030A90ED011AB8EE411AB6
:1053A00020EE010AB6EE001A30EE010ABCEEC00A89
:1053B00080ED000A07980899B0FBF1F00690079A73
:1053C0000899B2FBF1F000FB112005909DF82F0029
:1053D0009DF82E10069A9DF827309DF825C0EE46C0
:1053E000CEF800C000F064F89DF8260008B9FFE789
:1053F0005BE09DF827109DF82500484300EB400036
:105400008DF813009DF82F009DF8131008449DF8A7
:105410002E109DF82530C0B22E22FFF703FF00208A
:105420008DF81200FFE79DF812009DF826108842C3
:105430003BDAFFE7059802909DF826109DF81200D0
:10544000C0430844C1B20A2001F092F80146029814
:10545000B0FBF1F04CF6CD41CCF6CC41A0FB0121E4
:10546000C90801EB8101A0EB41008DF811009DF806
:105470002F009DF8131008449DF825309DF8121058
:105480000131594301EB410108449DF82E109DF86C
:1054900011203032C0B2D2B2FFF7C4FEFFE79DF850
:1054A000120001308DF81200BDE70CB010BD0000F5
:1054B00080B586B0844608988DF817C08DF8161010
:1054C00004928DF80F308DF80E0000208DF80B003F
:1054D0008DF80D00FFE79DF80D009DF80F10884234
:1054E0005DDAFFE7049801909DF80F109DF80D001C
:1054F000C0430844C1B20A2001F03AF801460198BD
:10550000B0FBF1F04CF6CD41CCF6CC41A0FB012133
:10551000C90801EB8101A0EB41008DF80C009DF85A
:105520000B0010BBFFE79DF80D009DF80F1001392F
:1055300088421ADAFFE79DF80C0088B9FFE79DF86A
:1055400017009DF80E309DF80D10594301EB4101F5
:1055500008449DF81610C0B22022FFF763FE18E041
:1055600001208DF80B00FFE7FFE79DF817009DF87D
:105570000E309DF80D10594301EB410108449DF890
:1055800016109DF80C203032C0B2D2B2FFF74AFE9E
:10559000FFE79DF80D0001308DF80D009BE706B088
:1055A00080BD000080B584B08DF80F008DF80E101E
:1055B00002928DF8073000208DF806008DF8050066
:1055C0008DF804009DF8070001460091012804D0E1
:1055D000FFE7009802284ED0BFE0FFE702989DF851
:1055E0000410405C002845D0FFE702989DF80410A5
:1055F000405C20388DF806009DF80F007F2809DBFD
:10560000FFE700208DF80F009DF80E0001308DF8A7
:105610000E00FFE79DF80F009DF80E10FFF7CCFD80
:1056200000208DF80500FFE79DF80500052816DC31
:10563000FFE79DF8060000EB400147F25000C0F67E
:10564000000000EB41009DF80510405C00F03AFCC2
:10565000FFE79DF8050001308DF80500E4E79DF8AF
:105660000F0006308DF80F009DF8040001308DF812
:105670000400B3E771E0FFE702989DF80410405C76
:10568000002869D0FFE702989DF80410405C20389C
:105690008DF806009DF80F00792809DBFFE7002050
:1056A0008DF80F009DF80E0001308DF80E00FFE719
:1056B0009DF80F009DF80E10FFF77EFD00208DF87D
:1056C0000500FFE79DF80500072814DCFFE79DF8BB
:1056D00006109DF8050000EB011147F27820C0F696
:1056E0000000405C00F0EEFBFFE79DF80500013094
:1056F0008DF80500E6E79DF80F009DF80E100131CA
:10570000C9B2FFF759FD00208DF80500FFE79DF8AD
:105710000500072815DCFFE79DF806109DF8050039
:1057200000EB011047F27821C0F600010844007A2E
:1057300000F0C8FBFFE79DF8050001308DF805007B
:10574000E5E79DF80F0008308DF80F009DF8040084
:1057500001308DF804008FE7FFE704B080BD000042
:105760007047000085B004900391002002900190E2
:10577000FFE70198039988420CD2FFE7049801994A
:1057800030F81110029808440290FFE701980130A8
:105790000190EEE702980399B0FBF1F000EE100AD9
:1057A000B8EE400A8DED000A9DED000A05B0704785
:1057B0007047000080B582B0009000980138B0F1C9
:1057C000807F03D3FFE70120019019E000980138A2
:1057D0004EF21401CEF2000108604FF0FF300F21AD
:1057E00000F0F4FB4EF21801CEF200010020086038
:1057F0004EF21002CEF20002072111600190FFE785
:10580000019802B080BD000080B5FDF737F880BD7B
:1058100080B594B008A83021FAF724FD0020079045
:105820000690059004900390FFE70020029043F655
:105830004000C4F20200016841F08051016000683C
:1058400000F0805002900298FFE7FFE700200190EF
:1058500047F20000C4F20000016841F440410160D9
:10586000006800F4404001900198FFE70120089093
:105870004FF48030099002200E904FF480000F907A
:10588000102010904FF4807011900420129013900B
:1058900008A8FDF765FA18B1FFE7FBF717FCFFE76B
:1058A0000F20039002200490002005904FF48051B7
:1058B0000691079003A80321FDF794F818B1FFE7BC
:1058C000FBF704FCFFE714B080BD00004EF68851E2
:1058D000CEF20001086840F47000086070470000D4
:1058E00080B540F67C10C2F20000FEF7DDF980BD05
:1058F00080B540F6C410C2F20000FEF7D5F980BDB5
:1059000083B00290019102980068009002980021F3
:10591000C4F2010188421DD0FFE70298B0F1804F28
:1059200018D0FFE7029840F20041C4F2000188421B
:1059300010D0FFE7029840F60001C4F2000188424F
:1059400008D0FFE7029840F60041C4F20001884207
:105950000AD1FFE7009820F070000090019841689C
:10596000009808430090FFE702980021C4F201016B
:10597000884235D0FFE70298B0F1804F30D0FFE782
:10598000029840F20041C4F20001884228D0FFE7AB
:10599000029840F60001C4F20001884220D0FFE7DF
:1059A000029840F60041C4F20001884218D0FFE797
:1059B000029844F20001C4F20101884210D0FFE7CE
:1059C000029844F20041C4F20101884208D0FFE786
:1059D000029844F60001C4F2010188420AD1FFE7AF
:1059E000009820F4407000900198C1680098084326
:1059F0000090FFE7009820F0800001994969084372
:105A00000090009802990860019880680299C86225
:105A1000019800680299886202980021C4F201018D
:105A2000884205D1FFE70198006902990863FFE702
:105A300002990120486102980069C00730B1FFE770
:105A40000299086920F001000861FFE703B0704780
:105A500084B0039002910192029800F01F0101208E
:105A600088400090009A0399086A90430862019860
:105A7000029901F01F0100FA01F20399086A10432C
:105A8000086204B07047000085B004900391029250
:105A90000193049880680090009820F47F40009063
:105AA00003980299019A41EA0221014300980843B0
:105AB000009000980499886005B0704783B0029008
:105AC0000191029880680090009820F0700000908A
:105AD00001980099084340F007000090009802994F
