:020000040800F2
:10000000F018002065020008C9480008313F0008C8
:10001000C5480008290800081D5B00080000000012
:10002000000000000000000000000000395400083B
:10003000310B000800000000E9530008915400084B
:100040007F020008E15300087F0200087F020008D9
:100050007F0200087F0200087F0200087F0200087C
:100060007F0200087F0200087F0200087F0200086C
:100070007F0200087F0200087F0200087F0200085C
:100080007F0200087F0200085D06000800000000F3
:100090000000000000000000000000007F020008D7
:1000A0007F0200087F0200087F0200087F0200082C
:1000B00069550008795500087F0200087F02000892
:1000C0007F0200087F0200087F0200087F0200080C
:1000D0007F0200087F0200087F0200080000000085
:1000E0007F0200087F0200087F0200080000000075
:1000F0000000000000000000000000007F02000877
:10010000000000007F0200087F0200087F02000854
:1001100000000000000000000000000000000000DF
:10012000890900087F0200087F0200087F0200089A
:100130007F02000800000000000000000000000036
:100140000000000000000000000000007F02000826
:100150007F0200087F0200087F0200087F0200087B
:100160007F0200087F02000800000000000000007D
:10017000000000000000000000000000000000007F
:10018000000000007F0200080000000000000000E6
:100190007F0200087F02000800F002F800F052F829
:1001A00014A696E8000CB244B344DA4501D100F03D
:1001B00049F8BAE80F000FA696E83000A5EB040551
:1001C00004EB0607AAEB0704A7F101074FEA151590
:1001D0004FEA3414A4F10104AC4201D300F032F828
:1001E00013F0010F18BFFB1A43F0010300F001F8F0
:1001F000DBE71847B07D0000D07D0000103A24BF37
:1002000078C878C1FAD8520724BF30C830C144BF7B
:1002100004680C6070470000704700000023002451
:1002200000250026103A28BF78C1FBD8520728BF06
:1002300030C148BF0B6070471FB507F0D8F91FBD2C
:1002400010B510BD00F05AF91146FFF7F5FF05F0A3
:1002500043FD00F078F903B4FFF7F2FF03BC00F0B0
:100260007BF900000948804709480047FEE7FEE7A0
:10027000FEE7FEE7FEE7FEE7FEE7FEE7FEE7FEE756
:1002800004480549054A064B7047000055550008CB
:1002900099010008F0120020F0180020F01400204E
:1002A000F014002053EA020C00F069802DE9F04BB5
:1002B0004FF00006002B1FBFB3FA83F503FA05F4D5
:1002C00024FA05F65E4012BF1643B2FA82F502FA2E
:1002D00005F4C5F120051EBF22FA05FC44EA0C0412
:1002E000203556EA044C4FEA144418BF641C4FF002
:1002F00000084FF00009904271EB030C39D300293C
:1003000019BFB1FA81F701FA07F6B0FA80F700FADF
:1003100007F6C7F120071EBF20FA07FC46EA0C06C5
:100320002037B6FBF4FCA7EB0507103F07F01F0BC7
:10033000CBF120062CFA06F60CFA0BFB44BFB346B1
:100340000026202FA4BF5E464FF0000B5BEA060C90
:1003500008BF4FF0010B19EB0B0948EB0608ABFB8C
:10036000027C06FB02CC0BFB03CCC01B71EB0C0127
:10037000C1E70B46024641464846BDE8F08B13B53F
:10038000084318BF4FF0FF300146AFF30080BDE8CF
:100390001C407047032A40F2308010F0030C00F03C
:1003A000158011F8013BBCF1020F624498BF11F8AF
:1003B00001CB00F8013B38BF11F8013BA2F1040268
:1003C00098BF00F801CB38BF00F8013B11F00303E0
:1003D00000F05A80083AC0F0088051F8043B083A0F
:1003E00051F804CBA0E80810F5E7121D5CBF51F8E6
:1003F000043B40F8043BAFF30080D20724BF11F860
:10040000013B11F801CB48BF11F8012B24BF00F8C4
:10041000013B00F801CB48BF00F8012B70474FF0BB
:10042000000200B5134694469646203922BFA0E844
:100430000C50A0E80C50B1F12001BFF4F7AF090750
:1004400028BFA0E80C5048BF0CC05DF804EB890041
:1004500028BF40F8042B08BF704748BF20F8022B84
:1004600011F0804F18BF00F8012B7047704770479C
:10047000704710B500F03AF8006810BD10B504469A
:1004800000F034F8046010BD10B5203AC0F00B80C5
:10049000B1E81850A0E81850B1E81850A0E818507A
:1004A000203ABFF4F5AF5FEA027C24BFB1E81850F0
:1004B000A0E8185044BF18C918C0BDE810405FEA52
:1004C000827C24BF51F8043B40F8043B08BF7047CE
:1004D000D20728BF31F8023B48BF11F8012B28BFD3
:1004E00020F8023B48BF00F8012B704700487047D6
:1004F0001800002000487047180000207546FFF7DC
:10050000F9FFAE4605006946534620F007008546D0
:1005100018B020B5FFF7B4FEBDE820404FF000064C
:100520004FF000074FF000084FF0000BAC46ACE86E
:10053000C009ACE8C009ACE8C009ACE8C00921F0CA
:1005400007018D46704710B50446AFF30080204682
:10055000BDE81040FFF77FBE01491820ABBEFEE7A3
:10056000260002007047000080B582B0019001981B
:10057000806B00900098006C10F0500F3AD1FFE7AC
:100580000099086C40F40070086400980068806866
:1005900010F0405F2AD1FFE70098007E30BBFFE7F4
:1005A00000980068C06A10F4700F07D0FFE7009849
:1005B000006880684005002818D4FFE700980168AB
:1005C000486820F0200048600099086C20F4807092
:1005D00008640098006CC004002806D4FFE7009966
:1005E000086C40F001000864FFE7FFE7009800F0A6
:1005F000FDFC10E00098006CC006002804D5FFE761
:10060000009800F01DFD05E00098806BC16C01981A
:100610008847FFE7FFE702B080BD000080B582B0E9
:1006200001900198806B0090009940200864009927
:10063000486C40F004004864009800F001FD02B0EE
:1006400080BD000080B582B001900198806B009061
:10065000009800F0EBFC02B080BD000080B540F6D1
:100660008800C2F2000000F0EFFC80BD82B0019073
:1006700042F20030C4F2010000900099486820F472
:1006800040304860019842680099486810434860CB
:1006900001980168486820F48070486001980168FA
:1006A0000269486840EA0220486001980168486889
:1006B00020F04070486001980168826848681043E3
:1006C000486001980168886820F40060886001989B
:1006D0000168C2688868104388600198806A0121B7
:1006E000C0F60071884219D0FFE701980168886858
:1006F00020F07060886001980168826A8868104301
:10070000886001980168886820F0405088600198EE
:100710000168C26A8868104388600CE0019801682B
:10072000886820F07060886001980168886820F00F
:1007300040508860FFE701980168886820F0020057
:1007400088600198027E0168886840EA42008860FB
:10075000019890F82000C8B1FFE701980168486847
:1007600040F40060486001980168486820F46040E7
:10077000486001980168426A4EF20000CFF6FF70AF
:1007800000EB423248681043486006E00198016877
:10079000486820F400604860FFE701980168C86A73
:1007A00020F47000C86201980168C2690020CFF689
:1007B000F07000EB0252C86A1043C86201980168E9
:1007C000886820F400708860019890F830200168F3
:1007D000886840EA4220886001980168886820F4AF
:1007E00080608860019801684269886840EA8220D8
:1007F000886002B07047000081B08DF803009DF85A
:1008000003100720A0EBD10240F27801C2F20001F0
:100810000A709DF80320904348704A780120904068
:10082000887001B070470000FFE7FEE78CB00B90C6
:100830000A918DED090A0020089007900690ADF806
:10084000160001200490FFE704980A9988423FD2DD
:10085000FFE70B98049900EB410030F8020C00EE22
:10086000100AB8EEC00A9DED091AB4EE410AF1EE85
:1008700010FA28DAFFE70B98049930F8110000EE1F
:10088000100AB8EEC00A9DED091AB4EE410AF1EE65
:1008900010FA18DBFFE704980390BDF8160018B9AA
:1008A000FFE70398089006E003980799411A069815
:1008B00008440690FFE703980790BDF81600013042
:1008C000ADF81600FFE7FFE7049801300490BBE79E
:1008D00000200290BDF8160002281ADBFFE70698F8
:1008E000BDF816100139B0FBF1F001909DED010A41
:1008F000B8EE400A9FED0A1A80EE010A8DED000A5B
:100900009DED001AB7EE000A80EE010A8DED020A95
:1009100002E000200290FFE79DED020A0CB0704754
:1009200000401C4680B582B001200190FFE701988D
:1009300007280FDCFFE79DF8041047F67872C0F631
:1009400000020020012304F06DFCFFE70198013054
:100950000190ECE702B080BD81B08DF803009DF8F6
:1009600003100720A0EBD10240F27B01C2F200018C
:100970000A709DF80320904348704A780120904007
:10098000887001B07047000080B540F6D000C2F218
:10099000000000F031FE80BD82B001900198007827
:1009A00010384AF6AB21CAF6AA21A0FB01100009B3
:1009B0000090009947F25870C0F60000405C019921
:1009C000C8650098042807D3FFE701990868042246
:1009D00062F30900886506E00199086840F2FF3279
:1009E00090438865FFE70198806D02B07047000072
:1009F00086B0059000208DF813000598806A03905A
:100A00000598806910BBFFE70398029003281BD864
:100A10000299DFE801F0020D0218059890F82F0006
:100A2000C00720B1FFE701208DF81300FFE70CE0BD
:100A30000598C06AB0F1C07F04D1FFE701208DF8AE
:100A40001300FFE701E000E0FFE745E0059880695B
:100A5000B0F5005F25D1FFE70398019003281ED869
:100A60000199DFE801F00206021101208DF8130060
:100A700016E0059890F82F00C00720B1FFE701208D
:100A80008DF81300FFE70BE00598C06AB0F1C07F56
:100A900004D1FFE701208DF81300FFE700E0FFE736
:100AA00019E003980090032804D3FFE70098032877
:100AB00004D00EE001208DF813000BE0059890F8AB
:100AC0002F00C00720B1FFE701208DF81300FFE7DA
:100AD00000E0FFE7FFE7FFE79DF8130006B070476F
:100AE00084B0039002910192009303980168086812
:100AF00020F48020086000980399096848600398F2
:100B00008068402809D1FFE7019803990968886047
:100B1000029803990968C86008E002980399096877
:100B20008860019803990968C860FFE704B07047BE
:100B30007047000080B584B003900291FFF7F2FE89
:100B400003F000FF029808B9FFE7AAE000208DF843
:100B50000700FFE79DF807007F2835DCFFE79DF8D9
:100B6000070002990139414340F61100C0F2042008
:100B7000A1FB0020091A00EB5100800900900098A9
:100B80000299884204D3FFE7029801380090FFE7FA
:100B90000398009930F811003721484340F2014191
:100BA000C0F24001A0FB011080088DF806009DF8FE
:100BB00007009DF8061003F043FFFFE79DF80700CC
:100BC00001308DF80700C5E700208DF80700FFE72A
:100BD0009DF807007F280CDCFFE79DF80700232124
:100BE00003F0E0FEFFE79DF8070001308DF80700F5
:100BF000EEE708208DF80600FFE79DF806003F2885
:100C000023DCFFE700208DF80700FFE79DF80700D1
:100C10007F2813DCFFE79DF80700400738B9FFE79E
:100C20009DF807009DF8061003F0BCFEFFE7FFE704
:100C30009DF8070001308DF80700E7E7FFE79DF812
:100C4000060008308DF80600D7E700208DF8070071
:100C5000FFE79DF807007F2823DCFFE79DF80700EA
:100C6000C006B8B9FFE708208DF80600FFE79DF839
:100C700006003F280DDCFFE79DF807009DF80610F1
:100C800003F090FEFFE79DF8060001308DF80600A6
:100C9000EDE7FFE7FFE79DF8070008308DF8070054
:100CA000D7E704B080BD000080B58CB00021C4F24D
:100CB0004001099100200890079106900B90FFE7F2
:100CC0000B987F2855DCFFE70B9806F05AF941ECAA
:100CD000100B9FED291B53EC112B51EC100B05F061
:100CE00089FF41EC100B51EC100B9FED250B53ECE1
:100CF000102B06F0E9F941EC100B51EC100B9FEDB5
:100D0000220B53EC102B06F0DFF941EC100B8DEDAC
:100D1000040B9DED060B8DED020B9DED080B8DED8B
:100D2000000B9DED040B05F0EFF99DED001B51EC60
:100D3000110B53EC102B06F0C7F99DED020B41ECA3
:100D4000110B51EC110B53EC102B05F09FFE41ECF5
:100D5000100B51EC100B06F0E5F80A909DF82C00F2
:100D60009DF8281003F06CFEFFE70B9801300B9004
:100D7000A6E70CB080BD00BF00000000000060408E
:100D800000000000000020406E861BF0F9210940A1
:100D900080B572B6FFE740F60000C4F202004FF4DF
:100DA0000051012201F0BAF8F5E7000081B000908F
:100DB00001B0704785B00390029100200190FFE7D9
:100DC000039890F83C00012804D1FFE702208DF839
:100DD000130007E10399012081F83C00FFE7FFE7DA
:100DE000029800680A281CD3FFE70298008800EBED
:100DF0004000A0F11E01072000FA01F203980168EB
:100E0000C8689043C86002998868098801EB41016D
:100E10001E3900FA01F203980168C8681043C860DF
:100E200018E00298008800EB4001072000FA01F268
:100E300003980168086990430861029988680988E5
:100E400001EB410100FA01F20398016808691043BF
:100E50000861FFE70298406806281BD8FFE7029860
:100E6000406800EB8000411F1F2000FA01F2039848
:100E70000168486B9043486302990888496801EB10
:100E80008101053900FA01F203980168486B1043AB
:100E900048633DE0029840680C281CD8FFE70298A0
:100EA000406800EB8000A0F123011F2000FA01F24E
:100EB00003980168086B90430863029908884968A1
:100EC00001EB8101233900FA01F203980168086BF4
:100ED000104308631BE00298406800EB8000A0F11B
:100EE00041011F2000FA01F203980168C86A90438B
:100EF000C86202990888496801EB8101413900FA0A
:100F000001F203980168C86A1043C862FFE7FFE76F
:100F100042F20030C4F2010000900398006842F2EF
:100F20000001C4F20101884210D1FFE70298006875
:100F300012280BD1FFE70099486820F400004860B0
:100F40000099486840F480004860FFE70398006813
:100F500042F20001C4F20101884239D1FFE7029850
:100F600000681221C1F20001884205D0FFE7029813
:100F7000006811282CD1FFE70099486820F4800010
:100F800048600099486840F4000048600298006892
:100F90001221C1F20001884219D1FFE740F200009E
:100FA000C2F2000000684DF68361C4F21B31A0FB61
:100FB0000110800C00EB800040000190FFE70198D9
:100FC00020B1FFE7019801380190F8E7FFE7FFE75C
:100FD000FFE70399002081F83C00FFE700208DF82F
:100FE0001300FFE79DF8130005B0704780B582B08D
:100FF000019040F68000C2F20000006801280DD088
:10100000FFE740F6E860C2F2000040F27E01C2F263
:1010100000014FF48062FFF7BDF9FFE740F6800161
:10102000C2F200010120086002B080BD81B00090D2
:1010300040F68401C2F200010120086001B070474F
:1010400081B0009001B0704780B586B00590002057
:101050000490039005980068006802900598006865
:1010600040680190029800F002000490019800F09E
:1010700020000390049800284AD0FFE70398002836
:1010800046D0FFE70598006CC006002806D4FFE7AD
:101090000599086C40F400700864FFE70598006843
:1010A000806810F0405F2AD1FFE70598007E30BBD2
:1010B000FFE705980068C06A10F4700F07D0FFE7DB
:1010C0000598006880684005002818D4FFE7059857
:1010D0000168486820F0200048600599086C20F4F9
:1010E000807008640598006CC004002806D4FFE7EF
:1010F0000599086C40F001000864FFE7FFE70598D8
:10110000FFF774FF059801686FF012000860FFE7B1
:10111000029800F004000490019800F08000039011
:101120000498002858D0FFE70398002854D0FFE720
:101130000598006CC006002806D4FFE70599086CE6
:1011400040F400500864FFE705980068806810F4D8
:10115000401F38D1FFE705980068806B10F4401FEE
:1011600007D0FFE7059800688068400500282AD46A
:10117000FFE70598006840684005002823D4FFE792
:1011800005980068806810F0405F1CD1FFE7059863
:10119000007EC0B9FFE705980168486820F080002C
:1011A00048600599086C20F4805008640598006C2C
:1011B000C005002806D4FFE70599086C40F001003F
:1011C0000864FFE7FFE70598FFF7F0FD0598016861
:1011D0006FF00C000860FFE7029800F00100049037
:1011E000019800F0400003900498C0B1FFE7039815
:1011F000A8B1FFE7059800680068C00770B1FFE775
:101200000599086C40F480300864059800F07EF879
:10121000059801686FF001000860FFE7FFE702989A
:1012200000F020000490019800F080600390049882
:10123000B0B1FFE7039898B1FFE70599486C40F01B
:1012400002004864059801686FF020000090086073
:101250000598FFF7F5FE0098059909680860FFE713
:1012600006B080BD80B584B0029000208DF80700E4
:10127000029820B9FFE701208DF80F0042E00298A4
:10128000806A0121C0F60071884201D0FFE7FFE7C4
:101290000298006C50B9FFE7029800F03BF8029901
:1012A00000204864029981F83C00FFE70298006C36
:1012B000C006002817D4FFE70298006C40F0020037
:1012C00020F48850029908640298FFF7CFF9029938
:1012D000002048640298006C40F0010020F00200F9
:1012E0000299086403E001208DF80700FFE7FFE79B
:1012F0000299002081F83C00FFE79DF807008DF877
:101300000F00FFE79DF80F0004B080BD81B0009092
:1013100001B0704780B58CB00B9000200A90099006
:101320000890079006900B98006842F20001C4F202
:101330000101884268D1FFE7FFE70020059043F6EE
:101340004400C4F20200016841F480710160006849
:1013500000F4807005900598FFE7FFE700200490F7
:1013600043F63000C4F20200016841F0010101605F
:10137000006800F0010004900498FFE70120069047
:10138000032007900020029008900020C4F2020081
:1013900006A900F0FDFB029940F6D000C2F2000061
:1013A000039046F21042C4F2020202604160816082
:1013B000C1604FF4806202614FF4006242614FF4F9
:1013C000005282614FF48072C2614FF400320262B7
:1013D000416200F0A1FA18B1FFE7FFF7D9FCFFE77F
:1013E000FFE70B9840F6D001C2F2000181630B9831
:1013F0008863FFE7122001900022114601F004F9F2
:10140000019801F0F7F8FFE70CB080BD80B586B019
:1014100004900391029200200190FFE7049890F855
:101420003C00012804D1FFE702208DF81700DFE01F
:101430000499012081F83C00FFE7FFE70498006869
:10144000806800F0010001281ED0FFE704980168C1
:10145000886840F00100886040F20000C2F200009D
:1014600000684DF68361C4F21B31A0FB0110800CB3
:1014700000EB40000190FFE7019820B1FFE70198E1
:1014800001380190F8E7FFE7049800688068C0051C
:10149000002807D5FFE704980168886820F4807069
:1014A0008860FFE7049800688068C007002800F0A3
:1014B0009080FFE70498006C40F4807040F2016176
:1014C000884304990864049800684068400500282F
:1014D00009D5FFE70498006C40F4805020F40050D8
:1014E00004990864FFE70498006CC004002806D53E
:1014F000FFE70499486C20F00600486403E0049973
:1015000000204864FFE7FFE70499002081F83C00D1
:10151000FFE742F20030C4F2010000900498816BB2
:1015200040F26950C0F60000C8630498816B40F235
:101530004560C0F6000008640498816B40F21D60AD
:10154000C0F60000C864049801686FF022000860CB
:1015500004980168486840F0806048600498016819
:10156000886840F48070886004980168806B4C3112
:10157000039A029B00F088FA00984068C00678B988
:10158000FFE704980068806810F0405F07D1FFE72C
:1015900004980168886840F080408860FFE717E0A1
:1015A0000498006842F20001C4F2010188420ED1A1
:1015B000FFE704980068806810F0405F07D1FFE7FC
:1015C00004980168886840F080408860FFE7FFE782
:1015D0000AE00499086C40F0100008640499486C13
:1015E00040F001004864FFE700208DF81700FFE796
:1015F0009DF8170006B080BD80B586B0059000202C
:10160000039040F20000C2F20000006848F2B511F9
:10161000C1F64E31A0FB0110800A02900598806D42
:10162000019001980068049004980599C96DC8401C
:10163000000700281AD5FFE70598006800684007F2
:10164000002812D5FFE705980168086820F004001B
:1016500008600598C16D0820884001998860059947
:10166000486D40F001004865FFE7FFE704980599E1
:10167000C96DC840C007A0B1FFE705980068406980
:10168000000600280CD5FFE70598C16D01208840B1
:10169000019988600599486D40F002004865FFE7B0
:1016A000FFE704980599C96DC8404007002814D584
:1016B000FFE7059800680068800700280CD5FFE761
:1016C0000598C16D04208840019988600599486D8E
:1016D00040F004004865FFE7FFE704980599C96DED
:1016E000C840C006002847D5FFE705980068006895
:1016F000000700283FD5FFE70598C16D10208840FE
:1017000001998860059800680068400300281AD590
:10171000FFE70598006800680003002809D4FFE788
:101720000598006C20B1FFE70598016C8847FFE73A
:1017300008E00598806C20B1FFE70598816C884728
:10174000FFE7FFE716E0059800680068C00500287D
:1017500007D4FFE705980168086820F008000860D2
:10176000FFE70598006C20B1FFE70598016C8847FA
:10177000FFE7FFE7FFE7FFE704980599C96DC84059
:101780008006002840F18D80FFE70598006800681A
:10179000C006002840F18480FFE70598C16D202035
:1017A000884001998860059890F83500052834D163
:1017B000FFE705980168086820F0160008600598A2
:1017C0000168486920F0800048610598006C20B9E4
:1017D000FFE70598806C38B1FFE705980168086855
:1017E00020F008000860FFE70598C16D3F208840A1
:1017F000019988600599012081F83500FFE7059976
:10180000002081F83400FFE70598006D20B1FFE764
:101810000598016D8847FFE77BE005980068006840
:10182000400300281AD5FFE7059800680068000308
:10183000002809D4FFE70598406C20B1FFE7059820
:10184000416C8847FFE708E00598C06B20B1FFE7CF
:101850000598C16B8847FFE7FFE720E0059800681F
:101860000068C005002811D4FFE7059801680868E2
:1018700020F0100008600599012081F83500FFE78D
:101880000599002081F83400FFE7FFE70598C06B59
:1018900020B1FFE70598C16B8847FFE7FFE7FFE747
:1018A000FFE70598406DA0B3FFE70598406DC007BE
:1018B00030B3FFE70599052081F8350005980168E8
:1018C000086820F001000860FFE7039801300390EA
:1018D0000299884201D9FFE707E0FFE70598006811
:1018E0000068C0070028F0D1FFE70599012081F8C2
:1018F0003500FFE70599002081F83400FFE7FFE796
:101900000598C06C20B1FFE70598C16C8847FFE7D8
:10191000FFE706B080BD000080B586B004900020CF
:10192000039000F013FB0290049820B9FFE7012018
:101930008DF81700A3E00498406A08B1FFE7FFE7BD
:101940000499022081F83500FFE70499002081F80E
:101950003400FFE704980168086820F0010008607F
:10196000FFE7049800680068C00790B1FFE700F047
:10197000EDFA0299401A06280AD3FFE704992020BD
:1019800048650499032081F835008DF8170076E04A
:10199000E7E70498006800680390039848F23F0165
:1019A000CFF2100108400390049900914868D1F8E3
:1019B00008C0CB680A6940EA0C00184310434A6922
:1019C00010438A691043CA691043096A01430398A6
:1019D000084303900498406A042808D1FFE704995B
:1019E000C86A096B0143039808430390FFE7039813
:1019F0000499096808600498006840690390039896
:101A000020F0070003900498416A0398084303906C
:101A10000498406A04281AD1FFE70498816A039861
:101A2000084303900498C06A80B1FFE70498FEF76A
:101A3000DFFF50B1FFE70499402048650499012079
:101A400081F835008DF8170019E0FFE7FFE70398EC
:101A50000499096848610498FEF79EFF0190049874
:101A6000C16D3F2088400199886004990020486535
:101A7000049A012182F835108DF81700FFE79DF8D0
:101A8000170006B080BD000080B588B006900591B3
:101A90000492039300208DF80B000698806D01904E
:101AA000FFE7069890F83400012804D1FFE70220F0
:101AB0008DF81F0045E00699012081F83400FFE70A
:101AC000FFE7069890F8350001282BD1FFE706992B
:101AD000022081F83500069900204865069805998E
:101AE000049A039BFEF7FCFF0698C16D3F208840D7
:101AF0000199886006980168086840F0160008603F
:101B00000698006C38B1FFE706980168086840F055
:101B100008000860FFE706980168086840F00100C7
:101B2000086009E0FFE70699002081F83400FFE72C
:101B300002208DF80B00FFE79DF80B008DF81F00C9
:101B4000FFE79DF81F0008B080BD000080B584B09D
:101B5000039000F0FBF90290039801900198013086
:101B600048B1FFE740F21000C2F20000017801988E
:101B700008440190FFE7FFE700F0E8F90299401AF6
:101B80000199884201D2FFE7F6E704B080BD00006A
:101B90008BB00A900991002007900690059008905C
:101BA000FFE708980F2800F2A281FFE708990120BB
:101BB00088400790099800680799084006900698A1
:101BC0000799884240F08E81FFE70998406800F04D
:101BD0000300012807D0FFE70998406800F00300E0
:101BE00002282FD1FFE70A988068059008984100E5
:101BF000032000FA01F10598884305900998C06810
:101C00000899490000FA01F10598084305900598E4
:101C10000A9988600A98406805900899012000FA9E
:101C200001F105988843059009984068C0F30010B9
:101C3000089900FA01F105980843059005980A995A
:101C40004860FFE70998406800F00300032818D0B7
:101C5000FFE70A98C068059008984100032000FA41
:101C600001F1059888430590099880680899490012
:101C700000FA01F105980843059005980A99C86093
:101C8000FFE70998406800F00300022826D1FFE72B
:101C90000A9808996FF0030202EA51010844006AA9
:101CA0000590089800F0070081000F2000FA01F16C
:101CB00005988843059009980069089901F0070183
:101CC000890000FA01F105980843059005980A99E2
:101CD000089B02EA530211440862FFE70A98006871
:101CE000059008984100032000FA01F10598884307
:101CF00005900998406800F003000899490000FA2F
:101D000001F105980843059005980A99086009981B
:101D100080798007002800F0E480FFE7FFE70020DB
:101D2000049043F64400C4F20200016841F480418B
:101D30000160006800F4804004900498FFE7089870
:101D400020F0030043F60801C4F201014058059059
:101D5000089800F0030081000F2000FA01F10598B7
:101D6000884305900A980021C4F20201884203D1F9
:101D7000FFE70020039034E00A9840F20041C4F2EB
:101D80000201884203D1FFE70120029026E00A9871
:101D900040F60001C4F20201884203D1FFE70220AD
:101DA000019018E00A9840F60041C4F2020188420E
:101DB00003D1FFE7032000900AE00A9941F20002F4
:101DC000C4F202020720914208BF04200090FFE7FE
:101DD00000980190FFE701980290FFE702980390B6
:101DE000FFE70398C0B2089901F00301890000FAE7
:101DF00001F10598084305900598089921F0030121
:101E000043F60802C4F20102885043F60840C4F2C7
:101E10000100006805900699059888430590099887
:101E20008079C006002805D5FFE706990598084384
:101E30000590FFE7059843F60841C4F201010860E8
:101E400043F60C40C4F2010000680590069905981D
:101E500088430590099880798006002805D5FFE71A
:101E60000699059808430590FFE7059843F60C414D
:101E7000C4F20101086043F60440C4F201000068A6
:101E80000590069905988843059009988079800700
:101E9000002805D5FFE70699059808430590FFE758
:101EA000059843F60441C4F20101086043F600407E
:101EB000C4F20100006805900699059888430590D2
:101EC00009988079C00728B1FFE70699059808436B
:101ED0000590FFE7059843F60041C4F20101086050
:101EE000FFE7FFE7FFE708980130089059E60BB0DD
:101EF0007047000083B00290ADF806100298406968
:101F00000090009ABDF8060002EA0001904340EA02
:101F100001400299886103B07047000082B00190CF
:101F2000ADF802108DF801209DF8010028B1FFE7FF
:101F3000BDF802000199886105E0BDF802000004C7
:101F400001998861FFE702B07047000041F2E82084
:101F5000C2F200000068704780B58EB00C900C98FB
:101F600020B9FFE701208DF8370043E10C9890F885
:101F70003D0040B9FFE70C99002081F83C000C9827
:101F800000F046FAFFE70C99242081F83D000C98F8
:101F90000168086820F0010008600C980168086872
:101FA00040F4004008600C980168086820F4004084
:101FB000086000F09BFC0A900C98406848F2A06111
:101FC000C0F2010188420BD8FFE70A9948F280422B
:101FD000C0F21E020020914238BF012009900AE0A1
:101FE0000A9940F60012C0F23D020020914238BF2B
:101FF00001200990FFE70998012804D1FFE701209B
:102000008DF83700F6E00A984DF68361C4F21B3173
:10201000A0FB0110800C0B900C980068406820F029
:102020003F000B9908430C99096848600C980068B8
:10203000006A20F03F0008900C98406848F2A061C8
:10204000C0F20101884204D8FFE70B9801300790E5
:102050000EE00B984FF49671484344F6D351C1F209
:102060006201A0FB0101012000EB91100790FFE746
:102070000898079908430C99096808620C98006849
:10208000C0694CF6FF71884306900C98406848F28E
:10209000A061C0F2010188421FD8FFE70A98013809
:1020A0000C9949684900B0FBF1F001306FF31F3023
:1020B000032803D8FFE7042005900BE00A980138B5
:1020C0000C9949684900B0FBF1F001306FF31F3003
:1020D0000590FFE7059804904CE00C98806868B97B
:1020E000FFE70A9801380C99496801EB4101B0FB00
:1020F000F1F001306FF31F3003900DE00A980138C2
:102100000C99496819225143B0FBF1F001300421C8
:1021100061F31F300390FFE70398000518B9FFE74C
:102120000120029023E00C98806868B9FFE70A98C4
:1021300001380C99496801EB4101B0FBF1F0013025
:102140006FF31F3001900DE00A9801380C9949682F
:1021500019225143B0FBF1F00130042161F31F302B
:102160000190FFE7019840F400400290FFE70298D9
:102170000490FFE70698049908430C990968C86120
:102180000C980068006820F0C0000C9B1968DA69A0
:102190001B6A1A43104308600C980068806848F274
:1021A000FF3188430C9A1168D36812691A431043AF
:1021B00088600C980068C06820F0FF000C9B1968CC
:1021C0005A699B691A431043C8600C9801680868F3
:1021D00040F0010008600C99002008640C9A20214E
:1021E00082F83D100C9908630C9981F83E008DF837
:1021F0003700FFE79DF837000EB080BD10B588B0FE
:1022000084460C980B98DDF828E0CDF818C0ADF89E
:102210001610ADF81420ADF81230ADF81000FFF72D
:1022200095FE0390069890F83D00202840F0E88045
:10223000FFE7069803996A4611600221C0F2100177
:102240000122192301F09CFF20B1FFE702208DF845
:102250001F00D9E0FFE7069890F83C00012804D160
:10226000FFE702208DF81F00CEE00699012081F8DB
:102270003C00FFE7FFE706980068006800F00100F7
:10228000012807D0FFE706980168086840F00100C0
:102290000860FFE706980168086820F4006008609D
:1022A0000699212081F83D000699402081F83E00E2
:1022B0000699002008640A9806994862BDF8100043
:1022C000069948850698408D06990885069900204C
:1022D000CFF6FF70C8620698BDF81610BDF814203E
:1022E000BDF81230DDF830C0039CEE46CEF8044055
:1022F000CEF800C001F050FE20B1FFE701208DF8BC
:102300001F0081E0FFE70698008D002849D0FFE715
:1023100006980C99039A02F061F880B1FFE70698DD
:10232000006C042807D1FFE706980168086840F4AC
:1023300000700860FFE701208DF81F0064E0069838
:102340000168406A007808610699486A013048626D
:102350000699088D013808850699488D0138488509
:1023600006980068406900F004010120B0EB910F6D
:1023700016D1FFE70698008D90B1FFE70698016837
:10238000406A007808610699486A013048620699F7
:10239000088D013808850699488D01384885FFE782
:1023A000B1E706980C99039A01F094FE80B1FFE71B
:1023B0000698006C042807D1FFE7069801680868B2
:1023C00040F400700860FFE701208DF81F001BE05B
:1023D00006980168086840F400700860069920209B
:1023E00081F83D000699002081F83E00FFE706993C
:1023F000002081F83C00FFE700208DF81F0003E07B
:1024000002208DF81F00FFE79DF81F0008B010BDE7
:1024100080B58EB00D9000200C900B900A90099022
:1024200008900D98006845F60001C4F2000188424A
:102430004CD1FFE7FFE70020079043F63000C4F2DD
:102440000200016841F002010160006800F0020032
:1024500007900798FFE74FF48060089012200190E2
:102460000990002002900A90032003900B90042012
:102470000C9040F20040C4F20200049008A90591BB
:10248000FFF786FBDDF804C0029B039A04980599C8
:102490004FF4007ECDF820E0CDF824C00A930B92D3
:1024A00009220C92FFF774FBFFE70020069043F629
:1024B0004000C4F20200016841F48001016000683C
:1024C00000F4800006900698FFE7FFE70EB080BD9D
:1024D00040F21000C2F20000027841F2E821C2F29C
:1024E00000010868104408607047000080B543F69A
:1024F0000041C4F20201086840F4007008600868F6
:1025000040F480600860086840F480700860032030
:1025100000F094F80F2000F005F800F03BF80020E0
:1025200080BD000080B582B0009040F20000C2F291
:102530000000006840F21001C2F200010A784FF476
:102540007A71B1FBF2F1B0FBF1F000F0B5FD20B112
:10255000FFE701208DF8070018E000980F280DD83C
:10256000FFE700994FF0FF30002200F04DF800988F
:1025700040F21401C2F20001086003E001208DF86E
:10258000070003E000208DF80700FFE79DF8070033
:1025900002B080BD80B584B0FFE70020039043F611
:1025A0004400C4F20200016841F480410160006807
:1025B00000F4804003900398FFE7FFE700200290BB
:1025C00043F64000C4F20200016841F0805101600E
:1025D000006800F0805002900298FFE7012001900F
:1025E0000022114600F010F8019800F003F804B042
:1025F00080BD000080B582B08DF807009DF907000E
:1026000003F008FB02B080BD80B586B08DF81700DE
:10261000049103920020029003F014FB02909DF9B4
:102620001700019002980499039A02F04FF90146AD
:10263000019803F00FFB06B080BD000080B582B0AA
:102640000190019803F028FB02B080BD70470000A4
:1026500080B543F61440C4F201000068C0030028AE
:102660000AD5FFE7FFF7F2FF43F61441C4F2010178
:102670004FF480300860FFE780BD000080B584B073
:1026800002900191029820B9FFE701208DF80F0018
:1026900021E1019843F60041C4F20201096801F00A
:1026A0000701884212D9FFE7019943F60040C4F2BE
:1026B00002000170006800F007000199884204D010
:1026C000FFE701208DF80F0005E1FFE70298007891
:1026D000800700282AD5FFE70298007840070028E5
:1026E00009D5FFE743F60801C4F20201086840F487
:1026F000E0500860FFE7029800780007002809D53D
:10270000FFE743F60801C4F20201086840F46040A4
:102710000860FFE743F60801C4F20201086820F0F0
:10272000F000029A926810430860FFE70298007870
:10273000C00700286ED0FFE702984068012811D139
:10274000FFE743F60000C4F20200006800F4003125
:102750000020B0EB514F04D1FFE701208DF80F00AE
:10276000B9E02CE002984068022805D0FFE7029803
:102770004068032811D1FFE743F60000C4F20200CD
:10278000006800F000710020B0EB516F04D1FFE74A
:1027900001208DF80F009EE010E043F60000C4F227
:1027A0000200006800F002010020B0EB510F04D1DC
:1027B000FFE701208DF80F008DE0FFE7FFE743F60C
:1027C0000801C4F20201086820F00300029A52686E
:1027D00010430860FFF7BAFB0090FFE743F60800DC
:1027E000C4F20200006800F00C0002994968B0EBE6
:1027F000810F0ED0FFE7FFF7A9FB0099401A41F2C5
:102800008931884204D3FFE703208DF80F0062E08E
:10281000E4E7FFE7019843F60041C4F202010968CA
:1028200001F00701884212D2FFE7019943F6004008
:10283000C4F202000170006800F0070001998842AC
:1028400004D0FFE701208DF80F0044E0FFE7029875
:102850000078400700280CD5FFE743F60801C4F2D2
:102860000201086820F4E050029AD2681043086020
:10287000FFE702980078000700280DD5FFE743F630
:102880000801C4F20201086820F46040029A12694B
:1028900040EAC2000860FFE700F03AF843F608019A
:1028A000C4F202010968C9B20A0947F24071C0F6D0
:1028B0000001895CC84040F20001C2F200010860DA
:1028C00040F21400C2F200000068FFF72BFE002067
:1028D0008DF80F00FFE79DF80F0004B080BD0000E9
:1028E00040F20000C2F200000068704780B5FFF7B8
:1028F000F7FF43F60801C4F202010968C1F382221E
:1029000047F25071C0F60001895CC84080BD0000EC
:1029100080B586B00020059004900390029043F6A5
:102920000800C4F20200006800F00C0001460191AA
:1029300040B1FFE7019804280AD0FFE70198082872
:102940000CD04FE042F20040C0F2F40002904FE0A1
:1029500047F64000C0F27D10029049E043F60400C3
:10296000C4F20200016801F03F01059100684002D5
:10297000002813D5FFE743F60400C4F20200006804
:10298000C0F3881047F64001C0F27D11A0FB0101A1
:10299000059A0023FDF786FC049012E043F604003C
:1029A000C4F202000068C0F3881042F20041C0F295
:1029B000F401A0FB0101059A0023FDF773FC0490CC
:1029C000FFE743F60400C4F20200006800F440315F
:1029D000022000EBD130039004980399B0FBF1F092
:1029E000029005E042F20040C0F2F4000290FFE7DE
:1029F000029806B080BD000080B586B004900498AF
:102A000020B9FFE701208DF8170050E30498007803
:102A1000C007002800F0A580FFE743F60800C4F2D5
:102A20000200006800F00C00042813D0FFE743F612
:102A30000800C4F20200006800F00C0008281ED153
:102A4000FFE743F60400C4F20200006840020028D9
:102A500015D5FFE743F60000C4F20200006800F459
:102A600000310020B0EB514F08D0FFE704984068D8
:102A700020B9FFE701208DF8170018E370E0FFE7A9
:102A800004984068B0F5803F09D1FFE743F60001A4
:102A9000C4F20201086840F48030086020E0049825
:102AA0004068B0F5A02F0DD1FFE743F60001C4F256
:102AB0000201086840F480200860086840F4803013
:102AC00008600CE043F60001C4F20201086820F43B
:102AD00080300860086820F480200860FFE7FFE786
:102AE000FFE704984068E8B1FFE7FFF72FFA03908B
:102AF000FFE743F60000C4F20200006800F4003172
:102B00000020B0EB514F0CD1FFE7FFF71FFA0399FC
:102B1000401A652804D3FFE703208DF81700C6E2AA
:102B2000E7E71CE0FFF712FA0390FFE743F6000027
:102B3000C4F20200006800F400310020B0EB514FF5
:102B40000CD0FFE7FFF702FA0399401A652804D377
:102B5000FFE703208DF81700A9E2E7E7FFE7FFE7AB
:102B6000FFE7049800788007002840F19680FFE78F
:102B700043F60800C4F20200006810F00C0F13D0F6
:102B8000FFE743F60800C4F20200006800F00C0002
:102B900008282CD1FFE743F60400C4F202000068C5
:102BA0004002002823D4FFE743F60000C4F20200ED
:102BB000006800F002010020B0EB510F09D0FFE7E0
:102BC0000498C068012804D0FFE701208DF81700A1
:102BD0006DE243F60001C4F20201086820F0F8003B
:102BE000049A126940EAC2000860FFE754E00498C2
:102BF000C06870B3FFE70021C4F2472101200860DC
:102C0000FFF7A4F90390FFE743F60000C4F20200C7
:102C1000006800F002010020B0EB510F0CD1FFE77B
:102C2000FFF794F90399401A032804D3FFE7032020
:102C30008DF817003BE2E7E743F60001C4F202011A
:102C4000086820F0F800049A126940EAC20008609F
:102C500021E00021C4F2472100200860FFF776F947
:102C60000390FFE743F60000C4F20200006800F0A2
:102C700002010020B0EB510F0CD0FFE7FFF766F91F
:102C80000399401A032804D3FFE703208DF81700A7
:102C90000DE2E7E7FFE7FFE7FFE7049800780007AA
:102CA00000284BD5FFE70498406918B3FFE740F6CA
:102CB0008061C4F2472101200860FFF747F90390C3
:102CC000FFE743F67400C4F20200006800F002015E
:102CD0000020B0EB510F0CD1FFE7FFF737F9039954
:102CE000401A032804D3FFE703208DF81700DEE124
:102CF000E7E722E040F68061C4F247210020086047
:102D0000FFF724F90390FFE743F67400C4F20200D2
:102D1000006800F002010020B0EB510F0CD0FFE77B
:102D2000FFF714F90399401A032804D3FFE703209F
:102D30008DF81700BBE1E7E7FFE7FFE704980078AD
:102D40004007002840F1CE80FFE700208DF8070003
:102D500043F64000C4F202000068C000002815D409
:102D6000FFE7FFE70020009043F64000C4F20200B6
:102D7000016841F080510160006800F080500090CF
:102D80000098FFE701208DF80700FFE747F20000F9
:102D9000C4F200000068C005002822D4FFE747F213
:102DA0000001C4F20001086840F480700860FFF779
:102DB000CDF80390FFE747F20000C4F2000000687E
:102DC000C00500280CD4FFE7FFF7C0F80399401AAC
:102DD000032804D3FFE703208DF8170067E1EAE733
:102DE000FFE7FFE704988068012809D1FFE743F671
:102DF0007001C4F20201086840F0010008601FE0A1
:102E00000498806805280DD1FFE743F67001C4F2ED
:102E10000201086840F004000860086840F0010002
:102E200008600CE043F67001C4F20201086820F06B
:102E300001000860086820F004000860FFE7FFE771
:102E4000FFE704988068F8B1FFE7FFF77FF8039089
:102E5000FFE743F67000C4F20200006800F00201D0
:102E60000020B0EB510F0ED1FFE7FFF76FF8039989
:102E7000401A41F28931884204D3FFE703208DF8DC
:102E8000170014E1E5E71EE0FFF760F80390FFE7A5
:102E900043F67000C4F20200006800F00201002056
:102EA000B0EB510F0ED0FFE7FFF750F80399401A2F
:102EB00041F28931884204D3FFE703208DF81700DF
:102EC000F5E0E5E7FFE79DF80700012809D1FFE7F6
:102ED00043F64001C4F20201086820F08050086007
:102EE000FFE7FFE704988069002800F0DC80FFE737
:102EF00043F60800C4F20200006800F00C00082845
:102F000000F08580FFE70498806902285CD1FFE724
:102F10006021C4F2472100200860FFF717F80390F2
:102F2000FFE743F60000C4F20200006800F0007101
:102F30000020B0EB516F0CD0FFE7FFF707F80399C3
:102F4000401A032804D3FFE703208DF81700AEE0F2
:102F5000E7E70499C869D1F820C04B6A8A6A40EA59
:102F60000C0040EA8310D2034FF6FF739A43A2F598
:102F700080321043C96A40EA016043F60401C4F29A
:102F8000020108606021C4F2472101200860FEF7B9
:102F9000DDFF0390FFE743F60000C4F20200006883
:102FA00000F000710020B0EB516F0CD1FFE7FEF78D
:102FB000CDFF0399401A032804D3FFE703208DF8BF
:102FC000170074E0E7E721E06021C4F24721002008
:102FD0000860FEF7BBFF0390FFE743F60000C4F272
:102FE0000200006800F000710020B0EB516F0CD0BF
:102FF000FFE7FEF7ABFF0399401A032804D3FFE76E
:1030000003208DF8170052E0E7E7FFE74AE0049855
:103010008069012804D1FFE701208DF8170046E000
:1030200043F60400C4F2020000680290049880692C
:10303000012831D0FFE7029800F480000499C969A3
:10304000884229D1FFE7029800F03F000499096AFD
:10305000884221D1FFE7029847F6C07108400499E1
:10306000496AB0EB811F17D1FFE7029800F44030A6
:103070000499896AC9034FF6FF729143A1F5803123
:10308000884209D1FFE7029800F070600499C96A8C
:10309000B0EB016F04D0FFE701208DF8170006E0C8
:1030A000FFE7FFE7FFE700208DF81700FFE79DF837
:1030B000170006B080BD000080B582B00190019875
:1030C00002F0BCF902B080BD81B0009001B0704741
:1030D00081B0009001B0704785B003900291FFE786
:1030E000039890F83C00012804D1FFE702208DF8F6
:1030F00013006CE00399012081F83C00FFE7FFE733
:103100000399022081F83D0003980068406801900F
:103110000398006880680090019820F0700001908A
:103120000298016801980843019001980399096881
:103130004860039800680021C4F2010188422AD047
:10314000FFE703980068B0F1804F24D0FFE70398B1
:10315000006840F20041C4F2000188421BD0FFE742
:103160000398006840F60001C4F20001884212D0C2
:10317000FFE70398006840F60041C4F2000188426E
:1031800009D0FFE70398006844F20001C4F201018E
:1031900088420ED1FFE7009820F08000009002984E
:1031A0004168009808430090009803990968886076
:1031B000FFE70399012081F83D00FFE70399002014
:1031C00081F83C00FFE700208DF81300FFE79DF831
:1031D000130005B07047000080B582B000900098E1
:1031E00020B9FFE701208DF807003FE0009890F834
:1031F0003D0040B9FFE70099002081F83C000098AD
:1032000000F038F8FFE70099022081F83D000099AE
:1032100051F8040B02F0B8F90099012081F846003A
:10322000FFE70099012081F83E00009981F83F00F6
:10323000009981F84000009981F84100FFE7FFE71D
:103240000099012081F84200009981F8430000991B
:1032500081F84400009981F84500FFE700990120BA
:1032600081F83D0000208DF80700FFE79DF807007A
:1032700002B080BD80B586B0059005980068B0F1B9
:10328000804F1BD1FFE7FFE70020049043F640008A
:10329000C4F20200016841F001010160006800F021
:1032A000010004900498FFE71C20029002210022F4
:1032B000FFF7AAF90298FFF79DF924E00598006846
:1032C00040F20041C4F2000188421BD1FFE7FFE752
:1032D0000020039043F64000C4F20200016841F070
:1032E00002010160006800F0020003900398FFE70C
:1032F0001D20019000221146FFF786F90198FFF783
:1033000079F9FFE7FFE706B080BD000083B00190C8
:10331000019890F83D00012804D0FFE701208DF8C6
:103320000B0052E00199022081F83D0001980068ED
:103330000021C4F2010188422AD0FFE70198006809
:10334000B0F1804F24D0FFE70198006840F20041BF
:10335000C4F2000188421BD0FFE70198006840F6E4
:103360000001C4F20001884212D0FFE70198006812
:1033700040F60041C4F20001884209D0FFE70198FD
:10338000006844F20001C4F20101884212D1FFE753
:1033900001980068806800F00700009000980628F7
:1033A00007D0FFE701980168086840F00100086055
:1033B000FFE706E001980168086840F00100086036
:1033C000FFE700208DF80B00FFE79DF80B0003B02E
:1033D0007047000083B00190019890F83D000128EB
:1033E00004D0FFE701208DF80B0058E0019902207E
:1033F00081F83D0001980168C86840F00100C8608C
:10340000019800680021C4F2010188422AD0FFE738
:1034100001980068B0F1804F24D0FFE70198006860
:1034200040F20041C4F2000188421BD0FFE701983E
:10343000006840F60001C4F20001884212D0FFE7A4
:103440000198006840F60041C4F20001884209D0AA
:10345000FFE70198006844F20001C4F201018842CC
:1034600012D1FFE701980068806800F00700009023
:103470000098062807D0FFE701980168086840F027
:1034800001000860FFE706E001980168086840F065
:1034900001000860FFE700208DF80B00FFE79DF8B2
:1034A0000B0003B07047000080B586B00490039114
:1034B00000208DF80B00FFE7049890F83C000128ED
:1034C00004D1FFE702208DF81700ABE0049901203A
:1034D00081F83C00FFE7FFE70499022081F83D00F6
:1034E0000498006880680190019820F077000190AE
:1034F000019820F47F400190019804990968886040
:10350000039800680090002872D0FFE70098102808
:103510006ED0FFE7009820286AD0FFE70098302897
:1035200066D0FFE70098402855D0FFE70098502864
:1035300037D0FFE70098602840D0FFE70098702858
:103540000BD0FFE70098B0F5805F05D0FFE700984B
:10355000B0F5005F16D052E055E004980068039B78
:103560005A689968DB6802F0D3F8049800688068AC
:103570000190019840F07700019001980499096842
:10358000886040E004980068039B5A689968DB688B
:1035900002F0BEF804980168886840F480408860B2
:1035A00031E004980068039A5168D26802F064FA26
:1035B00004980068502102F0C5F824E004980068DF
:1035C000039A5168D26802F07FFA0498006860217B
:1035D00002F0B8F817E004980068039A5168D268BE
:1035E00002F04AFA04980068402102F0ABF80AE0C1
:1035F000049800680399096802F0A4F803E0012028
:103600008DF80B00FFE70499012081F83D00FFE7EA
:103610000499002081F83C00FFE79DF80B008DF82D
:103620001700FFE79DF8170006B080BD80B586B093
:1036300004900391049820B9FFE701208DF817004A
:1036400088E0049890F83D0040B9FFE70499002015
:1036500081F83C00049800F081F8FFE7049902200B
:1036600081F83D0004980168886844F2070290439D
:103670008860049951F8040B01F086FF04980068F3
:10368000806802900498006880690190049800683E
:10369000006A00900398016802980843029001981C
:1036A00040F203318843019003998868896940EAB0
:1036B0000121019808430190019840F60C4188438C
:1036C000019001984FF2F001884301900399C86876
:1036D000C96940EA012101980843019003990869EA
:1036E000096A000140EA01310198084301900098FD
:1036F00020F022000090009820F0880000900399AC
:103700004868496940EA011100980843009002980E
:10371000049909688860019804990968886100988B
:103720000499096808620499012081F84600049907
:1037300081F83E00049981F83F00049981F8420025
:10374000049981F84300049981F83D0000208DF828
:103750001700FFE79DF8170006B080BD80B588B060
:10376000079000200690059004900390029007981F
:1037700000680021C4F20101884233D1FFE7FFE76E
:103780000020019043F64400C4F20200016841F0B9
:1037900001010160006800F0010001900198FFE75D
:1037A000FFE70020009043F63000C4F202000168F9
:1037B00041F001010160006800F0010000900098F4
:1037C000FFE74FF440700290022003900020049025
:1037D0000590012006900020C4F2020002A9FEF725
:1037E000D7F9FFE708B080BD80B586B0049003919B
:1037F000049890F83E008DF80B00049890F83F0074
:103800008DF80A00049890F842008DF80900049899
:1038100090F843008DF808000398B8B9FFE79DF8C9
:103820000B00012805D1FFE79DF80900012804D00D
:10383000FFE701208DF8170079E00499022081F854
:103840003E00049981F84200FFE742E00398042813
:1038500017D1FFE79DF80A00012805D1FFE79DF881
:103860000800012804D0FFE701208DF817005EE072
:103870000499022081F83F00049981F84300FFE792
:1038800026E09DF80B0001280FD1FFE79DF80A0004
:1038900001280AD1FFE79DF80900012805D1FFE7BB
:1038A0009DF80800012804D0FFE701208DF81700DB
:1038B0003DE00499022081F83E00049981F83F0020
:1038C000049981F84200049981F84300FFE7FFE77B
:1038D000FFE70398019020B1FFE70198042807D083
:1038E0000DE0049800680021012201F0F5FE14E0CB
:1038F000049800680421012201F0EEFE0DE0049816
:10390000006800210122009201F0E6FE009A04986E
:103910000068042101F0E0FEFFE7049801680868F0
:1039200040F00100086000208DF81700FFE79DF8C7
:10393000170006B080BD000081B0009001B0704754
:1039400080B584B0039003980068C0680290039823
:103950000068006901909DF804008007002824D5C4
:10396000FFE79DF80800800700281DD5FFE70398B2
:1039700001686FF00200086103990120087703983D
:1039800000688069800720B1FFE70398FFF7D4FF44
:1039900006E0039800F014F9039800F009FAFFE735
:1039A000039900200877FFE7FFE79DF80400400730
:1039B000002825D5FFE79DF80800400700281ED500
:1039C000FFE7039801686FF0040008610399022083
:1039D000087703980068806910F4407F04D0FFE7FF
:1039E0000398FFF7A9FF06E0039800F0E9F80398B1
:1039F00000F0DEF9FFE7039900200877FFE7FFE713
:103A00009DF804000007002824D5FFE79DF8080072
:103A1000000700281DD5FFE7039801686FF0080034
:103A2000086103990420087703980068C06980073B
:103A300020B1FFE70398FFF77FFF06E0039800F04F
:103A4000BFF8039800F0B4F9FFE703990020087766
:103A5000FFE7FFE79DF80400C006002825D5FFE733
:103A60009DF80800C00600281ED5FFE703980168EE
:103A70006FF0100008610399082008770398006828
:103A8000C06910F4407F04D0FFE70398FFF754FFAC
:103A900006E0039800F094F8039800F089F9FFE736
:103AA000039900200877FFE7FFE79DF80400C007AF
:103AB00078B1FFE79DF80800C00748B1FFE7039819
:103AC00001686FF001000861039800F075F9FFE7E5
:103AD000FFE79DF804000006002810D5FFE79DF8D9
:103AE00008000006002809D5FFE7039801686FF079
:103AF000800008610398FFF7E7FAFFE7FFE79DF80A
:103B000004004006002810D5FFE79DF80800400695
:103B1000002809D5FFE7039801686FF040000861AD
:103B2000039800F001FAFFE7FFE79DF80400800624
:103B3000002810D5FFE79DF808008006002809D569
:103B4000FFE7039801686FF0200008610398FFF712
:103B5000BFFAFFE7FFE704B080BD000080B588B082
:103B6000079000200690059004900390029007981B
:103B70000068B0F1804F21D1FFE7FFE700200190FE
:103B800043F63000C4F20200016841F00101016017
:103B9000006800F0010001900198FFE70820029002
:103BA0000220039000200490059001200690002040
:103BB000C4F2020002A9FDF7EBFFFFE708B080BDE9
:103BC00081B0009001B0704780B586B00490039139
:103BD000029200208DF80700FFE7049890F83C005F
:103BE000012804D1FFE702208DF8170089E004992D
:103BF000012081F83C00FFE7FFE7029800900C28C5
:103C000000F270800099DFE801F0076D6D6D206DA6
:103C10006D6D3A6D6D6D530004980068039901F065
:103C2000A7FD04980168886940F00800886104983D
:103C30000168886920F0040088610398026904988B
:103C4000016888691043886150E00498006803990E
:103C500001F0F4FD04980168886940F4006088610F
:103C600004980168886920F480608861039802697B
:103C700004980168886940EA0220886136E0049867
:103C80000068039901F044FE04980168C86940F097
:103C90000800C86104980168C86920F00400C86180
:103CA0000398026904980168C8691043C8611DE05F
:103CB00004980068039901F095FE04980168C869AA
:103CC00040F40060C86104980168C86920F480600D
:103CD000C8610398026904980168C86940EA022033
:103CE000C86103E001208DF80700FFE7FFE70499B2
:103CF000002081F83C00FFE79DF807008DF81700D1
:103D0000FFE79DF8170006B080BD000080B582B0C7
:103D10000090009820B9FFE701208DF807003FE0F0
:103D2000009890F83D0040B9FFE70099002081F825
:103D30003C00009800F038F8FFE70099022081F875
:103D40003D00009951F8040B01F01EFC0099012080
:103D500081F84600FFE70099012081F83E000099B4
:103D600081F83F00009981F84000009981F84100F6
:103D7000FFE7FFE70099012081F84200009981F8F0
:103D80004300009981F84400009981F84500FFE75D
:103D90000099012081F83D0000208DF80700FFE721
:103DA0009DF8070002B080BD81B0009001B070475F
:103DB00081B0009001B0704780B58AB00990099831
:103DC0000068B0F1804F01D1FFE79BE009980068DF
:103DD00040F20041C4F20001884240F09280FFE7C7
:103DE00040F66060C2F2000090ED000B9FED461BB4
:103DF00053EC112B51EC100B03F066F941EC100B56
:103E000051EC100B9FED420B53EC102B02F0F2FE25
:103E100041EC100B51EC100B03F084F8ADF82200CC
:103E2000BDF82200802804DBFFE70020ADF8220067
:103E3000FFE7BDF8221040F66860C2F20000405C67
:103E40008DF821009DF8210001F096FE40F2080057
:103E5000C2F2000090ED000B51EC100B9FED2C0B0B
:103E600053EC102B0593049203F02EF941EC100B48
:103E700040F66060C2F20000069090ED001B8DEDF0
:103E8000021B51EC100B9FED240B53EC102B03F095
:103E90001BF99DED020B41EC110B51EC110B53EC96
:103EA000102B02F0F3FD049A059B84460698CDF88A
:103EB0001CC08C4607994CEC101B80ED000B90ED5C
:103EC000000B51EC100B03F045FBC8B9FFE740F6BF
:103ED0006060C2F20000009090ED000B9FED101B9F
:103EE00053EC112B51EC100B02F0D0FD0246009860
:103EF00001920A46019942EC101B80ED000BFFE78E
:103F0000FFE7FFE70AB080BD00000000000060404E
:103F10006E861BF0F92119402D431CEBE2361A3F47
:103F20006E861BF0F92119C081B0009001B0704776
:103F3000FFE7FEE782B0009000980068406900F457
:103F400080610120B0EB912F1ED1FFE7009801683E
:103F50006FF480604861009900200863009A202176
:103F600082F83D10009981F83E000099086C40F0FD
:103F700004000864FFE70099002081F83C00FFE797
:103F800001208DF8070003E000208DF80700FFE70F
:103F90009DF8070002B0704780B586B0DDF824C0F8
:103FA000DDF820C00490ADF80E10ADF80C20ADF88F
:103FB0000A3004980168086840F48070086004982A
:103FC000089B09996A4611604FF00111002200F028
:103FD000D7F880B1FFE7049800680068C0050028A2
:103FE00005D5FFE704994FF400700864FFE703204C
:103FF0008DF8170069E0BDF80E0000F0FE0004998E
:10400000096808610498089A099B0221C0F201011D
:1040100000F03AF920B1FFE701208DF8170054E0D5
:10402000FFE700200190049800684069019004981F
:104030000068806901900198FFE704980899099A3F
:1040400000F0CCF980B1FFE70498006C042807D198
:10405000FFE704980168086840F400700860FFE713
:1040600001208DF8170030E0BDF80A00012806D1C4
:10407000FFE79DF80C0004990968086121E09DF8AC
:104080000D0004990968086104980899099A00F0DC
:10409000A5F980B1FFE70498006C042807D1FFE779
:1040A00004980168086840F400700860FFE7012088
:1040B0008DF8170009E09DF80C0004990968086163
:1040C000FFE700208DF81700FFE79DF8170006B006
:1040D00080BD000080B584B0029001910092FFE79E
:1040E00002980068406900F004010020B0EB910FD5
:1040F0003ED1FFE70298FFF71DFF20B1FFE7012047
:104100008DF80F0038E00198013080B3FFE7FDF72C
:104110001DFF0099401A0199884203D8FFE70198D2
:1041200020BBFFE702980068406900F0040100200E
:10413000B0EB910F19D1FFE7029900200863029AB2
:10414000202182F83D10029981F83E000299086C06
:1041500040F020000864FFE70299002081F83C004D
:10416000FFE701208DF80F0006E0FFE7FFE7B7E764
:1041700000208DF80F00FFE79DF80F0004B080BD10
:1041800080B588B0DDF828C0069005918DF8132021
:104190000393FFE79DF8160001280CD1FFE706986E
:1041A00000684069BDF814100840401AB0FA80F069
:1041B000400902900BE0069800688069BDF8141071
:1041C0000840401AB0FA80F040090290FFE70298D8
:1041D0009DF8131088424FD1FFE703980130002863
:1041E00049D0FFE7FDF7B2FE0A99401A03998842C9
:1041F00003D8FFE70398E8BBFFE79DF81600012806
:104200000CD1FFE7069800684069BDF8141008401B
:10421000401AB0FA80F0400901900BE0069800685F
:104220008069BDF814100840401AB0FA80F04009C7
:104230000190FFE701989DF81310884219D1FFE71C
:10424000069900200863069A202182F83D100699FD
:1042500081F83E000699086C40F020000864FFE7F2
:104260000699002081F83C00FFE701208DF81F002F
:1042700006E0FFE7FFE78DE700208DF81F00FFE76E
:104280009DF81F0008B080BD80B588B006900591EC
:1042900004920393FFE79DF8160001280CD1FFE775
:1042A000069800684069BDF814100840401AB0FA3A
:1042B00080F0400902900BE0069800688069BDF824
:1042C00014100840401AB0FA80F040090290FFE74D
:1042D000029800287AD1FFE706980068406900F448
:1042E00080610120B0EB912F24D1FFE7069801688F
:1042F000086840F400700860069801686FF48060F8
:104300004861069900200863069A202182F83D1032
:10431000069981F83E000699086C40F00400086494
:10432000FFE70699002081F83C00FFE701208DF8A7
:104330001F004FE004980130002846D0FFE7FDF74A
:1043400005FE0399401A0499884203D8FFE70498B0
:10435000D0BBFFE79DF8160001280CD1FFE70698B7
:1043600000684069BDF814100840401AB0FA80F0A7
:10437000400901900BE0069800688069BDF81410B0
:104380000840401AB0FA80F040090190FFE7019818
:10439000C8B9FFE7069900200863069A202182F831
:1043A0003D10069981F83E000699086C40F0200007
:1043B0000864FFE70699002081F83C00FFE7012030
:1043C0008DF81F0006E0FFE7FFE764E700208DF8A7
:1043D0001F00FFE79DF81F0008B080BD80B584B0C6
:1043E000029001910092FFE7029800684069C1B213
:1043F0000020B0EBD11F3DD1FFE70298FFF79AFDF7
:1044000020B1FFE701208DF80F0037E0019801305F
:1044100078B3FFE7FDF79AFD0099401A01998842A9
:1044200003D8FFE7019818BBFFE7029800684069CE
:10443000C1B20020B0EBD11F19D1FFE702990020D3
:104440000863029A202182F83D10029981F83E000B
:104450000299086C40F020000864FFE702990020F0
:1044600081F83C00FFE701208DF80F0006E0FFE730
:10447000FFE7B9E700208DF80F00FFE79DF80F0078
:1044800004B080BD80B586B00021009105910491F3
:104490000391029140F68800C2F20000019042F2BE
:1044A0000002C4F2010202604FF480324260816077
:1044B0000161017680F820104FF08052C2624FF007
:1044C000C0628262C1600121C16180F83010416127
:1044D000FCF7C8FE18B1FFE7FCF75AFCFFE7002025
:1044E000029001210391049040F68800C2F200007E
:1044F00002A9FCF75FFC18B1FFE7FCF749FCFFE7F6
:1045000040F68800C2F20000FCF704FF06B080BD50
:1045100080B582B0FFE70020019043F63000C4F27E
:104520000200016841F480010160006800F480002D
:1045300001900198FFE73820009001210022FEF74A
:1045400063F80098FEF756F802B080BD80B592B0CF
:104550000020119010900F900E900D90FFE700201A
:104560000C9043F63000C4F20200016841F00401EF
:104570000160006800F004000C900C98FFE7FFE772
:1045800000200B9043F63000C4F20200016841F0B5
:1045900080010160006800F080000B900B98FFE73D
:1045A000FFE700200A9043F63000C4F202000168E1
:1045B00041F001010160006800F001000A900A98D2
:1045C000FFE7FFE70020099043F63000C4F2020045
:1045D000016841F002010160006800F002000990EA
:1045E0000998FFE740F60000C4F2020001904FF482
:1045F0000051009100220692FDF790FC069A0020DF
:10460000C4F202000390F6210291FDF787FC069A9E
:1046100040F20040C4F20200079003210491FDF72C
:104620007DFC009A019806990D92012205920E9246
:104630000F9110910DA90891FDF7AAFADDF808C0B5
:104640000398059B069A0899CDF834C00E930F92F3
:104650001092FDF79DFADDF810C0059B069A0798A9
:104660000899CDF834C00E930F921092FDF790FA8E
:10467000069A079808994FF400430D930E920F92F3
:10468000FDF786FA12B080BD80B582B040F63010DA
:10469000C2F20000019045F60001C4F20001016081
:1046A00041F68021C0F20601416000218160C160B5
:1046B0004FF48042026141618161C1610162FDF795
:1046C0004BFC18B1FFE7FCF763FBFFE702B080BDCE
:1046D00080B58EB005A800902421FBF7A0FE0099BC
:1046E000002301930493039340F68410C2F2000068
:1046F00002900022C4F2010202604FF0020EC0F8E4
:1047000004E083604FF6FF72C2600361436183611E
:104710004FF0010CCDF814C00693CDF81CC00893DF
:104720000F220992CDF828E0CDF82CC00C930D9201
:10473000FEF77CFF18B1FFE7FCF72AFBFFE700203C
:104740000390049040F68410C2F2000003A9FEF723
:10475000C3FC18B1FFE7FCF71BFBFFE70EB080BD01
:1047600080B58EB0002100910D910C910B910A91B2
:104770000991089107910691059104910391029185
:10478000019140F6CC10C2F200004FF0804202606E
:104790000922426081604FF0FF32C26001618021D6
:1047A0008161FEF719FD18B1FFE7FCF7F1FAFFE7A9
:1047B0004FF480500A9040F6CC10C2F200000AA9D3
:1047C000FEF772FE18B1FFE7FCF7E2FAFFE740F6EA
:1047D000CC10C2F20000FFF799FA18B1FFE7FCF71E
:1047E000D7FAFFE7202008900020099040F6CC106F
:1047F000C2F2000008A9FEF76FFC18B1FFE7FCF752
:10480000C7FAFFE7602001904FF4FA700290002091
:104810000390059040F6CC10C2F2000001A90C22D2
:10482000FFF7D2F918B1FFE7FCF7B2FAFFE740F65D
:10483000CC10C2F20000FFF791F90EB080BD00006D
:1048400080B588B0002101910791069105910491EE
:104850000391029140F61420C2F2000040F200429F
:10486000C4F200020260416081604FF6FF72C260D4
:1048700001618161FEF7B0FC18B1FFE7FCF788FA2F
:10488000FFE74FF48050049040F61420C2F200007D
:1048900004A9FEF709FE18B1FFE7FCF779FAFFE774
:1048A00000200290039040F61420C2F2000002A9FA
:1048B000FEF712FC18B1FFE7FCF76AFAFFE708B051
:1048C00080BD0000FFE7FEE7FFE7FEE788B0079046
:1048D00006910592079800F0070004900498C0F133
:1048E0000700052803D3FFE70420019004E00498A3
:1048F000C0F107000190FFE701980390049804308D
:10490000062803D8FFE70020009003E0049803384E
:104910000090FFE70098029006980399012202FA9E
:1049200001F101390840029B984005999A40013AEB
:104930001140084308B0704780B5002000F0DAF954
:1049400080BD000081B000208DF80300FFE79DF8D6
:104950000300072823DCFFE700208DF80200FFE7B3
:104960009DF802007F2813DCFFE79DF8031040F656
:104970005C20C2F2000000EBC1119DF80220002073
:104980008854FFE79DF8020001308DF80200E7E748
:10499000FFE79DF8030001308DF80300D7E701B071
:1049A0007047000080B582B08DF807008DF80610C2
:1049B0009DF807007F2805DCFFE79DF806004028EA
:1049C00001DBFFE73AE09DF80600C0088DF805001E
:1049D0009DF8060000F007008DF804009DF8041013
:1049E000012000FA01F39DF8051040F65C20C2F2A8
:1049F0000000009000EBC1119DF80720885C18436F
:104A000088549DF80500B030C0B201F089F89DF8D7
:104A1000070000F00F0001F083F89DF8070000097F
:104A2000103001F07DF800989DF8051000EBC110E2
:104A30009DF80710405C01F089F8FFE702B080BDE7
:104A400080B588B08DF81F008DF81E109DF81E00EF
:104A5000FBF782FF40F27800C2F20000007840F2DB
:104A60007B01C2F200010978401A8DF81D009DF902
:104A70001D0001284BDBFFE740F27800C2F2000086
:104A8000059000788DF81C009DF81C009DF81F1003
:104A900000F0EEF9059880780138C0B201F056F8C0
:104AA0009DF81C0001388DF81C0000208DF81B00BB
:104AB000FFE79DF81B009DF91D100139884215DAAA
:104AC000FFE79DF81C009DF81F1000F0D1F9FF20B2
:104AD00001F03CF89DF81C0001388DF81C00FFE740
:104AE0009DF81B0001308DF81B00E2E79DF81C00CB
:104AF0009DF81F1000F0BCF940F27B00C2F20000EC
:104B00004178FF208840C0B201F020F8C1E09DF953
:104B10001D00002866D1FFE740F27B00C2F20000D2
:104B2000407840F27801C2F20001497888420FD102
:104B3000FFE740F27B00C2F20000049000789DF88D
:104B40001F1000F095F90498807800F0FFFF48E00E
:104B500040F27B00C2F20000407840F27801C2F2DD
:104B600000014978884217DDFFE740F27B00C2F27E
:104B70000000039000789DF81F1000F079F9039869
:104B8000817840F27800C2F200008078081A084369
:104B9000C0B200F0DBFF23E040F27B00C2F2000075
:104BA000407840F27801C2F200014978884216DA72
:104BB000FFE740F27B00C2F20000029000789DF80F
:104BC0001F1000F055F9029940F27800C2F200007F
:104BD00080788978401AC0B200F0B8FFFFE7FFE79D
:104BE000FFE755E09DF91D00B0F1FF3F4FDCFFE707
:104BF00040F27B00C2F20000019000788DF81C00AA
:104C00009DF81C009DF81F1000F032F90198817882
:104C10004FF0FF3000EB4100C0B200F097FF9DF86D
:104C20001C0001388DF81C0000208DF81B00FFE7E8
:104C30009DF81B009DF91D10C943884215DAFFE756
:104C40009DF81C009DF81F1000F012F9FF2000F0E5
:104C50007DFF9DF81C0001388DF81C00FFE79DF8D2
:104C60001B0001308DF81B00E2E79DF81C009DF849
:104C70001F1000F0FDF840F27800C2F2000040780A
:104C8000411CFF208840C0B200F060FFFFE7FFE753
:104C9000FFE79DF81E00FBF7AFFD00208DF81B001D
:104CA000FFE79DF81B00072822DCFFE79DF81B00AB
:104CB0009DF81F100131C9B200F0DAF800208DF81C
:104CC0001A00FFE79DF81A0000280ADCFFE7002021
:104CD00000F03CFFFFE79DF81A0001308DF81A0044
:104CE000F0E7FFE79DF81B0001308DF81B00D8E7C7
:104CF00008B080BD80B582B08DF8070000208DF827
:104D00000600FFE79DF80600072828DCFFE79DF86E
:104D10000600B030C0B200F003FF0020009000F0A9
:104D2000FFFE102000F0FCFE00988DF80500FFE764
:104D30009DF805007F280BDCFFE79DF8070000F0D9
:104D400005FFFFE79DF8050001308DF80500EFE74E
:104D5000FFE79DF8060001308DF80600D2E702B0AB
:104D600080BD000080B584B06420FCF7EFFEAE206B
:104D700000F0D6FE2020039000F0D2FE102001901B
:104D800000F0CEFEB02000F0CBFEC82000F0C8FE40
:104D90000020029000F0C4FE019800F0C1FE402007
:104DA00000F0BEFE812000F0BBFEFF2000F0B8FE48
:104DB000A12000F0B5FEA62000F0B2FEA82000F071
:104DC000AFFE3F2000F0ACFEA42000F0A9FED320EF
:104DD00000F0A6FE029800F0A3FED52000F0A0FE91
:104DE000F02000F09DFED92000F09AFE222000F075
:104DF00097FEDA2000F094FE122000F091FEDB20F6
:104E000000F08EFE039800F08BFE8D2000F088FEEF
:104E1000142000F085FEAF2000F082FE04B080BDBB
:104E200080B58D2000F07CFE142000F079FEAF20CC
:104E300000F076FE80BD000080B582B08DF80700DE
:104E40008DF806109DF80600B030C0B200F068FE84
:104E50009DF807000009103000F062FE9DF8070081
:104E600040F0010000F00F0000F05AFE02B080BDDB
:104E700080B582B08DF807008DF806109DF8070008
:104E8000B030C0B200F04CFE9DF8060000F00F00FC
:104E900000F046FE9DF806000009103000F040FECC
:104EA00002B080BD80B582B08DF807008DF8061085
:104EB0008DF805208DF8043000208DF803008DF862
:104EC00002009DF8050020388DF803009DF80700CA
:104ED000802809DBFFE700208DF807009DF8060019
:104EE00002308DF80600FFE79DF8040010284AD133
:104EF000FFE79DF807009DF80610FFF79DFF0020D3
:104F00008DF80200FFE79DF80200072814DCFFE798
:104F10009DF803109DF8020000EB011147F6881080
:104F2000C0F60000405C00F011FEFFE79DF80200B3
:104F300001308DF80200E6E79DF807009DF80610A5
:104F40000131C9B2FFF778FF00208DF80200FFE7BA
:104F50009DF80200072815DCFFE79DF803109DF877
:104F6000020000EB011047F68811C0F6000108446A
:104F7000007A00F0EBFDFFE79DF8020001308DF8AC
:104F80000200E5E725E09DF807009DF80610FFF711
:104F900053FF00208DF80200FFE79DF8020005286E
:104FA00016DCFFE79DF8030000EB400147F260705C
:104FB000C0F6000000EB41009DF80210405C00F0DC
:104FC000C5FDFFE79DF8020001308DF80200E4E71F
:104FD000FFE702B080BD000010B58CB00DF11C0CD5
:104FE000CDF80CC08C46039986460E988DF82FE0BC
:104FF0008DF82EC081ED030A8DF827208DF826301C
:105000008DF825009DF826100A2001F04DF8014684
:105010000398089190ED030A90ED011AB8EE411A39
:1050200020EE010AB6EE001A30EE010ABCEEC00A0C
:1050300080ED000A07980899B0FBF1F00690079AF6
:105040000899B2FBF1F000FB112005909DF82F00AC
:105050009DF82E10069A9DF827309DF825C0EE4643
:10506000CEF800C000F064F89DF8260008B9FFE70C
:105070005BE09DF827109DF82500484300EB4000B9
:105080008DF813009DF82F009DF8131008449DF82B
:105090002E109DF82530C0B22E22FFF703FF00200E
:1050A0008DF81200FFE79DF812009DF82610884247
:1050B0003BDAFFE7059802909DF826109DF8120054
:1050C000C0430844C1B20A2000F0EEFF0146029836
:1050D000B0FBF1F04CF6CD41CCF6CC41A0FB012168
:1050E000C90801EB8101A0EB41008DF811009DF88A
:1050F0002F009DF8131008449DF825309DF81210DC
:105100000131594301EB410108449DF82E109DF8EF
:1051100011203032C0B2D2B2FFF7C4FEFFE79DF8D3
:10512000120001308DF81200BDE70CB010BD000078
:1051300080B586B0844608988DF817C08DF8161093
:1051400004928DF80F308DF80E0000208DF80B00C2
:105150008DF80D00FFE79DF80D009DF80F108842B7
:105160005DDAFFE7049801909DF80F109DF80D009F
:10517000C0430844C1B20A2000F096FF01460198DE
:10518000B0FBF1F04CF6CD41CCF6CC41A0FB0121B7
:10519000C90801EB8101A0EB41008DF80C009DF8DE
:1051A0000B0010BBFFE79DF80D009DF80F100139B3
:1051B00088421ADAFFE79DF80C0088B9FFE79DF8EE
:1051C00017009DF80E309DF80D10594301EB410179
:1051D00008449DF81610C0B22022FFF763FE18E0C5
:1051E00001208DF80B00FFE7FFE79DF817009DF801
:1051F0000E309DF80D10594301EB410108449DF814
:1052000016109DF80C203032C0B2D2B2FFF74AFE21
:10521000FFE79DF80D0001308DF80D009BE706B00B
:1052200080BD000080B584B08DF80F008DF80E10A1
:1052300002928DF8073000208DF806008DF80500E9
:105240008DF804009DF8070001460091012804D064
:10525000FFE7009802284ED0BFE0FFE702989DF8D4
:105260000410405C002845D0FFE702989DF8041028
:10527000405C20388DF806009DF80F007F2809DB80
:10528000FFE700208DF80F009DF80E0001308DF82B
:105290000E00FFE79DF80F009DF80E10FFF7CCFD04
:1052A00000208DF80500FFE79DF80500052816DCB5
:1052B000FFE79DF8060000EB400147F26070C0F682
:1052C000000000EB41009DF80510405C00F03EFC42
:1052D000FFE79DF8050001308DF80500E4E79DF833
:1052E0000F0006308DF80F009DF8040001308DF896
:1052F0000400B3E771E0FFE702989DF80410405CFA
:10530000002869D0FFE702989DF80410405C20381F
:105310008DF806009DF80F00792809DBFFE70020D3
:105320008DF80F009DF80E0001308DF80E00FFE79C
:105330009DF80F009DF80E10FFF77EFD00208DF800
:105340000500FFE79DF80500072814DCFFE79DF83E
:1053500006109DF8050000EB011147F68810C0F615
:105360000000405C00F0F2FBFFE79DF80500013013
:105370008DF80500E6E79DF80F009DF80E1001314D
:10538000C9B2FFF759FD00208DF80500FFE79DF831
:105390000500072815DCFFE79DF806109DF80500BD
:1053A00000EB011047F68811C0F600010844007AAE
:1053B00000F0CCFBFFE79DF8050001308DF80500FB
:1053C000E5E79DF80F0008308DF80F009DF8040008
:1053D00001308DF804008FE7FFE704B080BD0000C6
:1053E00080B5FDF735F980BD7047000085B00490A9
:1053F0000391002002900190FFE7019803998842F1
:105400000CD2FFE70498019930F811100298084473
:105410000290FFE7019801300190EEE702980399AE
:10542000B0FBF1F000EE100AB8EE400A8DED000A74
:105430009DED000A05B070477047000080B582B04E
:10544000009000980138B0F1807F03D3FFE701207E
:10545000019019E0009801384EF21401CEF20001DB
:1054600008604FF0FF300F2100F0F4FB4EF21801FE
:10547000CEF20001002008604EF21002CEF20002CF
:10548000072111600190FFE7019802B080BD000084
:1054900080B5FDF71DF880BD80B594B008A8302117
:1054A000FAF7BDFF00200790069005900490039046
:1054B000FFE70020029043F64000C4F202000168BA
:1054C00041F080510160006800F080500290029825
:1054D000FFE7FFE70020019047F20000C4F2000060
:1054E000016841F440410160006800F440400190CF
:1054F0000198FFE7012008904FF4803009900220C6
:105500000E904FF480000F90102010904FF4807098
:10551000119004201290139008A8FDF76DFA18B1AD
:10552000FFE7FBF735FCFFE70F2003900220049014
:10553000002005904FF480510691079003A80321A5
:10554000FDF79CF818B1FFE7FBF722FCFFE714B06A
:1055500080BD00004EF68851CEF20001086840F48C
:10556000700008607047000080B540F6CC10C2F2B1
:105570000000FEF7E5F980BD80B540F61420C2F2C8
:105580000000FEF7DDF980BD83B002900191029822
:105590000068009002980021C4F2010188421DD0E9
:1055A000FFE70298B0F1804F18D0FFE7029840F271
:1055B0000041C4F20001884210D0FFE7029840F693
:1055C0000001C4F20001884208D0FFE7029840F6CB
:1055D0000041C4F2000188420AD1FFE7009820F0A0
:1055E0007000009001984168009808430090FFE720
:1055F00002980021C4F20101884235D0FFE70298E9
:10560000B0F1804F30D0FFE7029840F20041C4F281
:105610000001884228D0FFE7029840F60001C4F25A
:105620000001884220D0FFE7029840F60041C4F212
:105630000001884218D0FFE7029844F20001C4F24A
:105640000101884210D0FFE7029844F20041C4F201
:105650000101884208D0FFE7029844F60001C4F235
:10566000010188420AD1FFE7009820F440700090C1
:105670000198C168009808430090FFE7009820F067
:1056800080000199496908430090009802990860D8
:10569000019880680299C86201980068029988623E
:1056A00002980021C4F20101884205D1FFE7019868
:1056B000006902990863FFE7029901204861029896
:1056C0000069C00730B1FFE70299086920F00100C6
:1056D0000861FFE703B0704784B003900291019224
:1056E000029800F01F01012088400090009A039961
:1056F000086A904308620198029901F01F0100FABC
:1057000001F20399086A1043086204B07047000070
:1057100085B00490039102920193049880680090F0
:10572000009820F47F40009003980299019A41EA82
:105730000221014300980843009000980499886072
:1057400005B0704783B00290019102988068009084
:10575000009820F07000009001980099084340F0F4
:105760000700009000980299886003B0704700001D
:1057700085B0049003910498006A01900499086A26
:1057800020F0010008620498406800900498806945
:105790000290029820F070000290029820F003001E
:1057A000029003980168029808430290019820F043
:1057B00002000190039881680198084301900498C1
:1057C0000021C4F2010188420ED1FFE7019820F0C8
:1057D000080001900398C16801980843019001985E
:1057E00020F004000190FFE704980021C4F20101B9
:1057F000884213D1FFE7009820F480700090009851
:1058000020F40070009003984169009808430090CC
:1058100003988169009808430090FFE70098049975
:105820004860029804998861039840680499486325
:1058300001980499086205B07047000085B0049093
:1058400003910498006A01900499086A20F01000FE
:105850000862049840680090049880690290029859
:1058600020F4E0400290029820F4407002900398E7
:105870000168029840EA01200290019820F020007F
:10588000019003988168019840EA01100190049802
:105890000021C4F2010188420FD1FFE7019820F0F6
:1058A000800001900398C168019840EA01100190BE
:1058B000019820F040000190FFE704980021C4F215
:1058C0000101884215D1FFE7009820F48060009024
:1058D000009820F40060009003984169009840EA25
:1058E0008100009003988169009840EA810000904F
:1058F000FFE700980499486002980499886103982A
:1059000040680499886301980499086205B070475B
:1059100085B0049003910498006A01900499086A84
:1059200020F4807008620498406800900498C06970
:105930000290029820F070000290029820F003007C
:10594000029003980168029808430290019820F49D
:105950000070019003988168019840EA012001904D
:1059600004980021C4F2010188420FD1FFE7019899
:1059700020F4006001900398C168019840EA01207A
:105980000190019820F480600190FFE704980021C5
:10599000C4F20101884215D1FFE7009820F480503D
:1059A0000090009820F400500090039841690098FE
:1059B00040EA0110009003988169009840EA0110C4
:1059C0000090FFE700980499486002980499C86124
:1059D000039840680499C86301980499086205B067
:1059E0007047000085B0049003910498006A01900C
:1059F0000499086A20F48050086204984068009076
:105A00000498C0690290029820F4E0400290029845
:105A100020F44070029003980168029840EA012047
:105A20000290019820F40050019003988168019839
:105A300040EA0130019004980021C4F2010188423B
:105A40000BD1FFE7009820F4804000900398416953
:105A5000009840EA81100090FFE7009804994860A0
:105A600002980499C86103984068049908640198F1
:105A70000499086205B0704785B0049003910292C2
:105A80000498006A00900499086A20F001000862F6
:105A9000049880690190019820F0F000019002992B
:105AA000019840EA01100190009820F00A0000904F
:105AB0000399009808430090019804998861009820
:105AC0000499086205B0704785B004900391029272
:105AD0000498006A00900499086A20F01000086297
