:020000040800F2
:1000000000080020650200089D2A00080928000851
:10001000992A0008E90500089D3100080000000049
:10002000000000000000000000000000112B00088C
:1000300045070008000000000D2B0008692B000890
:100040007F0200087F0200087F0200087F0200088C
:100050007F0200087F0200087F0200087F0200087C
:100060007F0200087F0200087F0200087F0200086C
:100070007F0200087F0200087F0200087F0200085C
:100080007F0200087F0200087F02000800000000D5
:100090000000000000000000000000007F020008D7
:1000A0007F0200087F0200087F0200087F0200082C
:1000B0007F0200087F0200087F0200087F0200081C
:1000C0007F0200087F0200087F0200087F0200080C
:1000D0007F0200087F0200087F0200080000000085
:1000E0007F0200087F0200087F0200080000000075
:1000F0000000000000000000000000007F02000877
:10010000000000007F0200087F0200087F02000854
:1001100000000000000000000000000000000000DF
:10012000ED0500087F0200087F0200087F0200083A
:100130007F02000800000000000000000000000036
:100140000000000000000000000000007F02000826
:100150007F0200087F0200087F0200087F0200087B
:100160007F0200087F02000800000000000000007D
:10017000000000000000000000000000000000007F
:10018000000000007F0200080000000000000000E6
:100190007F0200087F02000800F002F800F052F829
:1001A00014A696E8000CB244B344DA4501D100F03D
:1001B00049F8BAE80F000FA696E83000A5EB040551
:1001C00004EB0607AAEB0704A7F101074FEA151590
:1001D0004FEA3414A4F10104AC4201D300F032F828
:1001E00013F0010F18BFFB1A43F0010300F001F8F0
:1001F000DBE71847D4300000F4300000103A24BF89
:1002000078C878C1FAD8520724BF30C830C144BF7B
:1002100004680C6070470000704700000023002451
:1002200000250026103A28BF78C1FBD8520728BF06
:1002300030C148BF0B6070471FB503F027F81FBDE2
:1002400010B510BD00F0D0F81146FFF7F5FF03F030
:1002500007F800F0EEF803B4FFF7F2FF03BC00F07C
:10026000F5F800000948804709480047FEE7FEE727
:10027000FEE7FEE7FEE7FEE7FEE7FEE7FEE7FEE756
:1002800004480549054A064B704700002D2C00081C
:10029000990100080002002000080020000400204E
:1002A0000004002053EA020C00F069802DE9F04BB5
:1002B0004FF00006002B1FBFB3FA83F503FA05F4D5
:1002C00024FA05F65E4012BF1643B2FA82F502FA2E
:1002D00005F4C5F120051EBF22FA05FC44EA0C0412
:1002E000203556EA044C4FEA144418BF641C4FF002
:1002F00000084FF00009904271EB030C39D300293C
:1003000019BFB1FA81F701FA07F6B0FA80F700FADF
:1003100007F6C7F120071EBF20FA07FC46EA0C06C5
:100320002037B6FBF4FCA7EB0507103F07F01F0BC7
:10033000CBF120062CFA06F60CFA0BFB44BFB346B1
:100340000026202FA4BF5E464FF0000B5BEA060C90
:1003500008BF4FF0010B19EB0B0948EB0608ABFB8C
:10036000027C06FB02CC0BFB03CCC01B71EB0C0127
:10037000C1E70B46024641464846BDE8F08B13B53F
:10038000084318BF4FF0FF300146AFF30080BDE8CF
:100390001C4070474FF0000200B513469446964645
:1003A000203922BFA0E80C50A0E80C50B1F1200188
:1003B000BFF4F7AF090728BFA0E80C5048BF0CC036
:1003C0005DF804EB890028BF40F8042B08BF704794
:1003D00048BF20F8022B11F0804F18BF00F8012B06
:1003E0007047704770477047754600F02BF8AE466F
:1003F00005006946534620F00700854618B020B531
:10040000FFF73EFFBDE820404FF000064FF0000729
:100410004FF000084FF0000BAC46ACE8C009ACE868
:10042000C009ACE8C009ACE8C00921F007018D465D
:10043000704710B50446AFF300802046BDE8104079
:10044000FFF709BF0048704710000020014918203D
:10045000ABBEFEE7260002007047000082B00190AC
:1004600042F20030C4F2010000900099486820F484
:1004700040304860019842680099486810434860DD
:1004800001980168486820F480704860019801680C
:100490000269486840EA022048600198016848689B
:1004A00020F04070486001980168826848681043F5
:1004B000486001980168886820F4006088600198AD
:1004C0000168C2688868104388600198806A0121C9
:1004D000C0F60071884219D0FFE70198016888686A
:1004E00020F07060886001980168826A8868104313
:1004F000886001980168886820F040508860019801
:100500000168C26A8868104388600CE0019801683D
:10051000886820F07060886001980168886820F021
:1005200040508860FFE701980168886820F0020069
:1005300088600198027E0168886840EA420088600D
:10054000019890F82000C8B1FFE701980168486859
:1005500040F40060486001980168486820F46040F9
:10056000486001980168426A4EF20000CFF6FF70C1
:1005700000EB423248681043486006E00198016889
:10058000486820F400604860FFE701980168C86A85
:1005900020F47000C86201980168C2690020CFF69B
:1005A000F07000EB0252C86A1043C86201980168FB
:1005B000886820F400708860019890F83020016805
:1005C000886840EA4220886001980168886820F4C1
:1005D00080608860019801684269886840EA8220EA
:1005E000886002B070470000FFE7FEE780B540F288
:1005F000B800C2F2000000F08DFA80BD82B0019018
:100600000198007810384AF6AB21CAF6AA21A0FB5F
:10061000011000090090009943F2BE20C0F60000CE
:10062000405C0199C8650098042807D3FFE7019949
:100630000868042262F30900886506E001990868E9
:1006400040F2FF3290438865FFE70198806D02B069
:100650007047000086B0059000208DF813000598C3
:10066000806A03900598806910BBFFE703980290A9
:1006700003281BD80299DFE801F0020D0218059843
:1006800090F82F00C00720B1FFE701208DF813007C
:10069000FFE70CE00598C06AB0F1C07F04D1FFE726
:1006A00001208DF81300FFE701E000E0FFE745E0DF
:1006B00005988069B0F5005F25D1FFE703980190A8
:1006C00003281ED80199DFE801F00206021101207B
:1006D0008DF8130016E0059890F82F00C00720B1A0
:1006E000FFE701208DF81300FFE70BE00598C06AD3
:1006F000B0F1C07F04D1FFE701208DF81300FFE7C0
:1007000000E0FFE719E003980090032804D3FFE717
:100710000098032804D00EE001208DF813000BE0B0
:10072000059890F82F00C00720B1FFE701208DF851
:100730001300FFE700E0FFE7FFE7FFE79DF8130086
:1007400006B070477047000072B6FFE7FEE7000092
:1007500085B00390029100200190FFE7039890F884
:100760003C00012804D1FFE702208DF8130007E1C7
:100770000399012081F83C00FFE7FFE70298006839
:100780000A281CD3FFE70298008800EB4000A0F184
:100790001E01072000FA01F203980168C86890431F
:1007A000C86002998868098801EB41011E3900FA86
:1007B00001F203980168C8681043C86018E0029805
:1007C000008800EB4001072000FA01F2039801685D
:1007D00008699043086102998868098801EB410122
:1007E00000FA01F203980168086910430861FFE705
:1007F0000298406806281BD8FFE70298406800EB83
:100800008000411F1F2000FA01F203980168486B25
:100810009043486302990888496801EB81010539D2
:1008200000FA01F203980168486B104348633DE009
:10083000029840680C281CD8FFE70298406800EB3B
:100840008000A0F123011F2000FA01F20398016843
:10085000086B9043086302990888496801EB81019D
:10086000233900FA01F203980168086B104308630A
:100870001BE00298406800EB8000A0F141011F20BE
:1008800000FA01F203980168C86A9043C8620299AD
:100890000888496801EB8101413900FA01F20398A7
:1008A0000168C86A1043C862FFE7FFE742F2003000
:1008B000C4F2010000900398006842F20001C4F203
:1008C0000101884210D1FFE70298006812280BD17D
:1008D000FFE70099486820F40000486000994868E4
:1008E00040F480004860FFE70398006842F200018E
:1008F000C4F20101884239D1FFE702980068122151
:10090000C1F20001884205D0FFE702980068112873
:100910002CD1FFE70099486820F4800048600099D6
:10092000486840F400004860029800681221C1F253
:100930000001884219D1FFE740F20000C2F2000036
:1009400000684DF68361C4F21B31A0FB0110800CDE
:1009500000EB800040000190FFE7019820B1FFE725
:10096000019801380190F8E7FFE7FFE7FFE70399F7
:10097000002081F83C00FFE700208DF81300FFE71E
:100980009DF8130005B0704780B584B00290002038
:100990008DF80700029820B9FFE701208DF80F00BD
:1009A00042E00298806A0121C0F60071884201D0BD
:1009B000FFE7FFE70298006C50B9FFE7029800F0EC
:1009C00037F8029900204864029981F83C00FFE75B
:1009D0000298006CC006002817D4FFE70298006C4C
:1009E00040F0020020F48850029908640298FFF752
:1009F00035FD0299002048640298006C40F0010027
:100A000020F002000299086403E001208DF807003D
:100A1000FFE7FFE70299002081F83C00FFE79DF81F
:100A200007008DF80F00FFE79DF80F0004B080BDB0
:100A300080B58AB009900020089007900690059034
:100A400004900998006842F20001C4F20101884252
:100A50005DD1FFE7FFE70020039043F64400C4F2B6
:100A60000200016841F480710160006800F4807048
:100A700003900398FFE7FFE70020029043F6300061
:100A8000C4F20200016841F001010160006800F059
:100A9000010002900298FFE70120049003200590D6
:100AA0000020009006900020C4F2020004A900F08B
:100AB00079FA009940F2B800C2F20000019046F2C3
:100AC0001042C4F20202026041608160C1604FF4D2
:100AD000806202614FF4006242614FF40052826111
:100AE000C1614FF400320262416200F0A3F918B113
:100AF000FFE7FFF729FEFFE7FFE7099840F2B8019B
:100B0000C2F20001816309988863FFE7FFE70AB03A
:100B100080BD000080B586B005900020039040F2B3
:100B20000000C2F20000006848F2B511C1F64E3173
:100B3000A0FB0110800A02900598806D0190019839
:100B40000068049004980599C96DC8400007002802
:100B50001AD5FFE70598006800684007002812D5FD
:100B6000FFE705980168086820F004000860059810
:100B7000C16D08208840019988600599486D40F052
:100B800001004865FFE7FFE704980599C96DC84073
:100B9000C007A0B1FFE7059800684069000600287B
:100BA0000CD5FFE70598C16D012088400199886048
:100BB0000599486D40F002004865FFE7FFE704989B
:100BC0000599C96DC8404007002814D5FFE705986E
:100BD00000680068800700280CD5FFE70598C16D04
:100BE00004208840019988600599486D40F0040010
:100BF0004865FFE7FFE704980599C96DC840C0063E
:100C0000002847D5FFE7059800680068000700281E
:100C10003FD5FFE70598C16D102088400199886095
:100C2000059800680068400300281AD5FFE705987A
:100C3000006800680003002809D4FFE70598006CED
:100C400020B1FFE70598016C8847FFE708E00598A9
:100C5000806C20B1FFE70598816C8847FFE7FFE7CC
:100C600016E0059800680068C005002807D4FFE773
:100C700005980168086820F008000860FFE70598FB
:100C8000006C20B1FFE70598016C8847FFE7FFE79C
:100C9000FFE7FFE704980599C96DC8408006002862
:100CA00040F18D80FFE7059800680068C0060028C5
:100CB00040F18480FFE70598C16D202088400199AC
:100CC0008860059890F83500052834D1FFE705982D
:100CD0000168086820F016000860059801684869F6
:100CE00020F0800048610598006C20B9FFE7059866
:100CF000806C38B1FFE705980168086820F00800AB
:100D00000860FFE70598C16D3F2088400199886021
:100D10000599012081F83500FFE70599002081F849
:100D20003400FFE70598006D20B1FFE70598016DDD
:100D30008847FFE77BE005980068006840030028CB
:100D40001AD5FFE70598006800680003002809D459
:100D5000FFE70598406C20B1FFE70598416C884794
:100D6000FFE708E00598C06B20B1FFE70598C16B6D
:100D70008847FFE7FFE720E0059800680068C005A6
:100D8000002811D4FFE705980168086820F01000DA
:100D900008600599012081F83500FFE705990020DA
:100DA00081F83400FFE7FFE70598C06B20B1FFE74B
:100DB0000598C16B8847FFE7FFE7FFE7FFE7059866
:100DC000406DA0B3FFE70598406DC00730B3FFE763
:100DD0000599052081F8350005980168086820F01C
:100DE00001000860FFE703980130039002998842F0
:100DF00001D9FFE707E0FFE7059800680068C00732
:100E00000028F0D1FFE70599012081F83500FFE7C0
:100E10000599002081F83400FFE7FFE70598C06CD2
:100E200020B1FFE70598C16C8847FFE7FFE706B0F0
:100E300080BD000080B586B004900020039000F0D3
:100E400063FA0290049820B9FFE701208DF817009B
:100E5000A3E00498406A08B1FFE7FFE70499022085
:100E600081F83500FFE70499002081F83400FFE79E
:100E700004980168086820F001000860FFE7049802
:100E800000680068C00790B1FFE700F03DFA0299E2
:100E9000401A06280AD3FFE70499202048650499E0
:100EA000032081F835008DF8170076E0E7E7049815
:100EB000006800680390039848F23F01CFF21001E8
:100EC00008400390049900914868D1F808C0CB68A5
:100ED0000A6940EA0C00184310434A6910438A69C2
:100EE0001043CA691043096A0143039808430390F9
:100EF0000498406A042808D1FFE70499C86A096B7E
:100F00000143039808430390FFE703980499096895
:100F100008600498006840690390039820F0070077
:100F200003900498416A0398084303900498406A28
:100F300004281AD1FFE70498816A039808430390B4
:100F40000498C06A80B1FFE70498FFF783FB50B1B3
:100F5000FFE70499402048650499012081F8350095
:100F60008DF8170019E0FFE7FFE703980499096877
:100F700048610498FFF742FB01900498C16D3F203F
:100F8000884001998860049900204865049A0121ED
:100F900082F835108DF81700FFE79DF8170006B0AE
:100FA00080BD00008BB00A90099100200790069048
:100FB00005900890FFE708980F2800F2A281FFE74C
:100FC000089901208840079009980068079908400F
:100FD000069006980799884240F08E81FFE70998AD
:100FE000406800F00300012807D0FFE70998406837
:100FF00000F0030002282FD1FFE70A9880680590CF
:1010000008984100032000FA01F1059888430590F3
:101010000998C0680899490000FA01F10598084349
:10102000059005980A9988600A9840680590089983
:10103000012000FA01F1059888430590099840685D
:10104000C0F30010089900FA01F1059808430590D3
:1010500005980A994860FFE70998406800F0030086
:10106000032818D0FFE70A98C06805900898410047
:10107000032000FA01F105988843059009988068DB
:101080000899490000FA01F1059808430590059870
:101090000A99C860FFE70998406800F00300022839
:1010A00026D1FFE70A9808996FF0030202EA51017E
:1010B0000844006A0590089800F0070081000F209E
:1010C00000FA01F10598884305900998006908998C
:1010D00001F00701890000FA01F105980843059025
:1010E00005980A99089B02EA530211440862FFE737
:1010F0000A980068059008984100032000FA01F161
:101100000598884305900998406800F00300089905
:10111000490000FA01F105980843059005980A99DD
:101120000860099880798007002800F0E480FFE7D4
:10113000FFE70020049043F64400C4F20200016877
:1011400041F480410160006800F4804004900498FC
:10115000FFE7089820F0030043F60801C4F20101FC
:1011600040580590089800F0030081000F2000FA15
:1011700001F10598884305900A980021C4F2020104
:10118000884203D1FFE70020039034E00A9840F240
:101190000041C4F20201884203D1FFE7012002901E
:1011A00026E00A9840F60001C4F20201884203D109
:1011B000FFE70220019018E00A9840F60041C4F2CF
:1011C0000201884203D1FFE7032000900AE00A9958
:1011D00041F20002C4F202020720914208BF04203B
:1011E0000090FFE700980190FFE701980290FFE769
:1011F00002980390FFE70398C0B2089901F0030139
:10120000890000FA01F105980843059005980899AE
:1012100021F0030143F60802C4F20102885043F6AC
:101220000840C4F2010000680590069905988843BB
:10123000059009988079C006002805D5FFE7069932
:10124000059808430590FFE7059843F60841C4F266
:101250000101086043F60C40C4F2010000680590EB
:10126000069905988843059009988079800600289A
:1012700005D5FFE70699059808430590FFE705980F
:1012800043F60C41C4F20101086043F60440C4F285
:101290000100006805900699059888430590099813
:1012A00080798007002805D5FFE70699059808434F
:1012B0000590FFE7059843F60441C4F20101086078
:1012C00043F60040C4F201000068059006990598B5
:1012D0008843059009988079C00728B1FFE70699EF
:1012E000059808430590FFE7059843F60041C4F2CE
:1012F00001010860FFE7FFE7FFE708980130089069
:1013000059E60BB07047000040F2FC10C2F200003A
:101310000068704780B58EB00C900C9820B9FFE73C
:1013200001208DF8370043E10C9890F83D0040B95A
:10133000FFE70C99002081F83C000C9800F03CF984
:10134000FFE70C99242081F83D000C98016808689B
:1013500020F0010008600C980168086840F4004023
:1013600008600C980168086820F40040086000F0EC
:101370006FFB0A900C98406848F2A061C0F201012E
:1013800088420BD8FFE70A9948F28042C0F21E0259
:101390000020914238BF012009900AE00A9940F6E6
:1013A0000012C0F23D020020914238BF0120099096
:1013B000FFE70998012804D1FFE701208DF83700E5
:1013C000F6E00A984DF68361C4F21B31A0FB0110D0
:1013D000800C0B900C980068406820F03F000B993F
:1013E00008430C99096848600C980068006A20F06E
:1013F0003F0008900C98406848F2A061C0F20101DB
:10140000884204D8FFE70B98013007900EE00B9854
:101410004FF49671484344F6D351C1F26201A0FBE8
:101420000101012000EB91100790FFE70898079950
:1014300008430C99096808620C980068C0694CF66A
:10144000FF71884306900C98406848F2A061C0F292
:10145000010188421FD8FFE70A9801380C994968B2
:101460004900B0FBF1F001306FF31F30032803D8BF
:10147000FFE7042005900BE00A9801380C994968B1
:101480004900B0FBF1F001306FF31F300590FFE72A
:10149000059804904CE00C98806868B9FFE70A98BA
:1014A00001380C99496801EB4101B0FBF1F00130C2
:1014B0006FF31F3003900DE00A9801380C994968CA
:1014C00019225143B0FBF1F00130042161F31F30C8
:1014D0000390FFE70398000518B9FFE70120029089
:1014E00023E00C98806868B9FFE70A9801380C99E6
:1014F000496801EB4101B0FBF1F001306FF31F309F
:1015000001900DE00A9801380C994968192251435D
:10151000B0FBF1F00130042161F31F300190FFE7CF
:10152000019840F400400290FFE702980490FFE722
:101530000698049908430C990968C8610C980068DA
:10154000006820F0C0000C9B1968DA691B6A1A4316
:10155000104308600C980068806848F2FF318843A7
:101560000C9A1168D36812691A43104388600C986A
:101570000068C06820F0FF000C9B19685A699B69DD
:101580001A431043C8600C980168086840F00100D5
:1015900008600C99002008640C9A202182F83D1004
:1015A0000C9908630C9981F83E008DF83700FFE72D
:1015B0009DF837000EB080BD80B58EB00D90002034
:1015C0000C900B900A90099008900D98006845F6D1
:1015D0000001C4F2000188424CD1FFE7FFE7002080
:1015E000079043F63000C4F20200016841F00201A6
:1015F0000160006800F0020007900798FFE74FF4D1
:1016000080600890122001900990002002900A90BA
:10161000032003900B9004200C9040F20040C4F291
:101620000200049008A90591FFF7BCFCDDF804C096
:10163000029B039A049805994FF4007ECDF820E0B0
:10164000CDF824C00A930B9209220C92FFF7AAFC52
:10165000FFE70020069043F64000C4F20200016854
:1016600041F480010160006800F480000690069853
:10167000FFE7FFE70EB080BD40F20400C2F20000B9
:10168000027840F2FC11C2F20001086810440860C0
:101690007047000080B543F60041C4F202010868BB
:1016A00040F400700860086840F4806008600868D2
:1016B00040F480700860032000F08AF80F2000F0EA
:1016C00005F800F03BF8002080BD000080B582B036
:1016D000009040F20000C2F20000006840F20401F5
:1016E000C2F200010A784FF47A71B1FBF2F1B0FB5B
:1016F000F1F000F093FD20B1FFE701208DF8070025
:1017000018E000980F280DD8FFE700994FF0FF3040
:10171000002200F043F8009840F20801C2F20001F4
:10172000086003E001208DF8070003E000208DF839
:101730000700FFE79DF8070002B080BD82B0FFE719
:101740000020019043F64400C4F20200016841F415
:1017500080410160006800F4804001900198FFE73B
:10176000FFE70020009043F64000C4F20200016849
:1017700041F080510160006800F0805000900098B6
:10178000FFE702B07047000080B582B08DF8070017
:101790009DF9070001F004FD02B080BD80B586B060
:1017A0008DF81700049103920020029001F010FDC3
:1017B00002909DF91700019002980499039A01F094
:1017C0006FF90146019801F00BFD06B080BD0000E5
:1017D00080B582B00190019801F024FD02B080BD77
:1017E00080B584B002900191029820B9FFE70120F2
:1017F0008DF80F0021E1019843F60041C4F2020187
:10180000096801F00701884212D9FFE7019943F600
:101810000040C4F202000170006800F00700019966
:10182000884204D0FFE701208DF80F0005E1FFE7B3
:1018300002980078800700282AD5FFE702980078F0
:101840004007002809D5FFE743F60801C4F202016A
:10185000086840F4E0500860FFE70298007800074D
:10186000002809D5FFE743F60801C4F20201086821
:1018700040F460400860FFE743F60801C4F202014B
:10188000086820F0F000029A926810430860FFE7B1
:1018900002980078C00700286ED0FFE702984068E1
:1018A000012811D1FFE743F60000C4F202000068EE
:1018B00000F400310020B0EB514F04D1FFE70120CC
:1018C0008DF80F00B9E02CE002984068022805D09E
:1018D000FFE702984068032811D1FFE743F60000B4
:1018E000C4F20200006800F000710020B0EB516FFC
:1018F00004D1FFE701208DF80F009EE010E043F6D1
:101900000000C4F20200006800F002010020B0EB09
:10191000510F04D1FFE701208DF80F008DE0FFE7A4
:10192000FFE743F60801C4F20201086820F0030053
:10193000029A526810430860FFF7E6FC0090FFE748
:1019400043F60800C4F20200006800F00C0002999F
:101950004968B0EB810F0ED0FFE7FFF7D5FC009987
:10196000401A41F28931884204D3FFE703208DF801
:101970000F0062E0E4E7FFE7019843F60041C4F29C
:101980000201096801F00701884212D2FFE70199BC
:1019900043F60040C4F202000170006800F0070046
:1019A0000199884204D0FFE701208DF80F0044E040
:1019B000FFE702980078400700280CD5FFE743F6C0
:1019C0000801C4F20201086820F4E050029AD268CB
:1019D00010430860FFE702980078000700280DD543
:1019E000FFE743F60801C4F20201086820F46040F2
:1019F000029A126940EAC2000860FFE700F03AF874
:101A000043F60801C4F202010968C9B20A0943F2A7
:101A1000A621C0F60001895CC84040F20001C2F274
:101A20000001086040F20800C2F200000068FFF701
:101A30004DFE00208DF80F00FFE79DF80F0004B069
:101A400080BD000040F20000C2F200000068704754
:101A500080B5FFF7F7FF43F60801C4F202010968F9
:101A6000C1F3822243F2B621C0F60001895CC8406E
:101A700080BD000080B586B00020059004900390E2
:101A8000029043F60800C4F20200006800F00C0067
:101A90000146019140B1FFE7019804280AD0FFE711
:101AA000019808280CD04FE042F20040C0F2F40048
:101AB00002904FE047F64000C0F27D10029049E0EE
:101AC00043F60400C4F20200016801F03F010591F1
:101AD00000684002002813D5FFE743F60400C4F273
:101AE00002000068C0F3881047F64001C0F27D1183
:101AF000A0FB0101059A0023FEF7D4FB049012E03D
:101B000043F60400C4F202000068C0F3881042F2F9
:101B10000041C0F2F401A0FB0101059A0023FEF789
:101B2000C1FB0490FFE743F60400C4F20200006822
:101B300000F44031022000EBD13003900498039967
:101B4000B0FBF1F0029005E042F20040C0F2F40078
:101B50000290FFE7029806B080BD000080B586B015
:101B60000490049820B9FFE701208DF8170050E396
:101B700004980078C007002800F0A580FFE743F62E
:101B80000800C4F20200006800F00C00042813D022
:101B9000FFE743F60800C4F20200006800F00C0002
:101BA00008281ED1FFE743F60400C4F202000068D3
:101BB0004002002815D5FFE743F60000C4F20200FA
:101BC000006800F400310020B0EB514F08D0FFE76F
:101BD0000498406820B9FFE701208DF8170018E34A
:101BE00070E0FFE704984068B0F5803F09D1FFE757
:101BF00043F60001C4F20201086840F48030086036
:101C000020E004984068B0F5A02F0DD1FFE743F61F
:101C10000001C4F20201086840F4802008600868EE
:101C200040F4803008600CE043F60001C4F2020189
:101C3000086820F480300860086820F4802008607C
:101C4000FFE7FFE7FFE704984068E8B1FFE7FFF729
:101C50005BFB0390FFE743F60000C4F2020000685C
:101C600000F400310020B0EB514F0CD1FFE7FFF73B
:101C70004BFB0399401A652804D3FFE703208DF836
:101C80001700C6E2E7E71CE0FFF73EFB0390FFE723
:101C900043F60000C4F20200006800F400310020A6
:101CA000B0EB514F0CD0FFE7FFF72EFB0399401A22
:101CB000652804D3FFE703208DF81700A9E2E7E7C2
:101CC000FFE7FFE7FFE7049800788007002840F16E
:101CD0009680FFE743F60800C4F20200006810F0A7
:101CE0000C0F13D0FFE743F60800C4F202000068AF
:101CF00000F00C0008282CD1FFE743F60400C4F2E2
:101D0000020000684002002823D4FFE743F60000E9
:101D1000C4F20200006800F002010020B0EB510F95
:101D200009D0FFE70498C068012804D0FFE701202C
:101D30008DF817006DE243F60001C4F20201086855
:101D400020F0F800049A126940EAC2000860FFE738
:101D500054E00498C06870B3FFE70021C4F2472143
:101D600001200860FFF7D0FA0390FFE743F6000078
:101D7000C4F20200006800F002010020B0EB510F35
:101D80000CD1FFE7FFF7C0FA0399401A032804D3E8
:101D9000FFE703208DF817003BE2E7E743F6000179
:101DA000C4F20201086820F0F800049A126940EABF
:101DB000C200086021E00021C4F247210020086031
:101DC000FFF7A2FA0390FFE743F60000C4F2020017
:101DD000006800F002010020B0EB510F0CD0FFE7CB
:101DE000FFF792FA0399401A032804D3FFE7032070
:101DF0008DF817000DE2E7E7FFE7FFE7FFE704983C
:101E00000078000700284BD5FFE70498406918B315
:101E1000FFE740F68061C4F2472101200860FFF728
:101E200073FA0390FFE743F67400C4F202000068FF
:101E300000F002010020B0EB510F0CD1FFE7FFF7DB
:101E400063FA0399401A032804D3FFE703208DF8AF
:101E50001700DEE1E7E722E040F68061C4F24721A7
:101E600000200860FFF750FA0390FFE743F6740084
:101E7000C4F20200006800F002010020B0EB510F34
:101E80000CD0FFE7FFF740FA0399401A032804D368
:101E9000FFE703208DF81700BBE1E7E7FFE7FFE767
:101EA000049800784007002840F1CE80FFE700202A
:101EB0008DF8070043F64000C4F202000068C0003D
:101EC000002815D4FFE7FFE70020009043F640000C
:101ED000C4F20200016841F080510160006800F026
:101EE000805000900098FFE701208DF80700FFE781
:101EF00047F20000C4F200000068C005002822D4A8
:101F0000FFE747F20001C4F20001086840F4807066
:101F10000860FFF7F9F90390FFE747F20000C4F209
:101F200000000068C00500280CD4FFE7FFF7ECF9BB
:101F30000399401A032804D3FFE703208DF8170004
:101F400067E1EAE7FFE7FFE704988068012809D125
:101F5000FFE743F67001C4F20201086840F0010097
:101F600008601FE00498806805280DD1FFE743F65C
:101F70007001C4F20201086840F0040008600868BB
:101F800040F0010008600CE043F67001C4F2020169
:101F9000086820F001000860086820F0040008606C
:101FA000FFE7FFE7FFE704988068F8B1FFE7FFF776
:101FB000ABF90390FFE743F67000C4F2020000683B
:101FC00000F002010020B0EB510F0ED1FFE7FFF748
:101FD0009BF90399401A41F28931884204D3FFE703
:101FE00003208DF8170014E1E5E71EE0FFF78CF9F8
:101FF0000390FFE743F67000C4F20200006800F0AF
:1020000002010020B0EB510F0ED0FFE7FFF77CF983
:102010000399401A41F28931884204D3FFE7032033
:102020008DF81700F5E0E5E7FFE79DF807000128C8
:1020300009D1FFE743F64001C4F20201086820F02D
:1020400080500860FFE7FFE704988069002800F0EF
:10205000DC80FFE743F60800C4F20200006800F0ED
:102060000C00082800F08580FFE7049880690228AA
:102070005CD1FFE76021C4F2472100200860FFF730
:1020800043F90390FFE743F60000C4F20200006842
:1020900000F000710020B0EB516F0CD0FFE7FFF7AC
:1020A00033F90399401A032804D3FFE703208DF87E
:1020B0001700AEE0E7E70499C869D1F820C04B6A81
:1020C0008A6A40EA0C0040EA8310D2034FF6FF739D
:1020D0009A43A2F580321043C96A40EA016043F690
:1020E0000401C4F2020108606021C4F2472101200A
:1020F0000860FFF709F90390FFE743F60000C4F218
:102100000200006800F000710020B0EB516F0CD1AC
:10211000FFE7FFF7F9F80399401A032804D3FFE714
:1021200003208DF8170074E0E7E721E06021C4F296
:10213000472100200860FFF7E7F80390FFE743F628
:102140000000C4F20200006800F000710020B0EB53
:10215000516F0CD0FFE7FFF7D7F80399401A032817
:1021600004D3FFE703208DF8170052E0E7E7FFE70D
:102170004AE004988069012804D1FFE701208DF826
:10218000170046E043F60400C4F202000068029023
:1021900004988069012831D0FFE7029800F480009C
:1021A0000499C969884229D1FFE7029800F03F00ED
:1021B0000499096A884221D1FFE7029847F6C07165
:1021C00008400499496AB0EB811F17D1FFE70298D4
:1021D00000F440300499896AC9034FF6FF729143B5
:1021E000A1F58031884209D1FFE7029800F07060C4
:1021F0000499C96AB0EB016F04D0FFE701208DF8A4
:10220000170006E0FFE7FFE7FFE700208DF8170063
:10221000FFE79DF8170006B080BD000080B582B0D2
:102220000190019800F076FC02B080BD85B003906B
:102230000291FFE7039890F83C00012804D1FFE7E2
:1022400002208DF813006CE00399012081F83C0016
:10225000FFE7FFE70399022081F83D00039800683B
:10226000406801900398006880680090019820F011
:10227000700001900298016801980843019001984C
:10228000039909684860039800680021C4F20101BD
:1022900088422AD0FFE703980068B0F1804F24D02D
:1022A000FFE70398006840F20041C4F20001884251
:1022B0001BD0FFE70398006840F60001C4F200015C
:1022C000884212D0FFE70398006840F60041C4F24C
:1022D0000001884209D0FFE70398006844F200013A
:1022E000C4F2010188420ED1FFE7009820F080007F
:1022F0000090029841680098084300900098039964
:1023000009688860FFE70399012081F83D00FFE735
:102310000399002081F83C00FFE700208DF81300AE
:10232000FFE79DF8130005B07047000080B582B04C
:102330000090009820B9FFE701208DF807003FE0EA
:10234000009890F83D0040B9FFE70099002081F81F
:102350003C00009800F038F8FFE70099022081F86F
:102360003D00009951F8040B00F06AFC009901202F
:1023700081F84600FFE70099012081F83E000099AE
:1023800081F83F00009981F84000009981F84100F0
:10239000FFE7FFE70099012081F84200009981F8EA
:1023A0004300009981F84400009981F84500FFE757
:1023B0000099012081F83D0000208DF80700FFE71B
:1023C0009DF8070002B080BD82B0019001980068BE
:1023D00040F20041C4F20001884212D1FFE7FFE75A
:1023E0000020009043F64000C4F20200016841F072
:1023F00002010160006800F0020000900098FFE711
:10240000FFE702B07047000080B586B004900391EA
:1024100000208DF80B00FFE7049890F83C0001289D
:1024200004D1FFE702208DF81700ABE004990120EA
:1024300081F83C00FFE7FFE70499022081F83D00A6
:102440000498006880680190019820F0770001905E
:10245000019820F47F4001900198049909688860F0
:10246000039800680090002872D0FFE700981028B9
:102470006ED0FFE7009820286AD0FFE70098302848
:1024800066D0FFE70098402855D0FFE70098502815
:1024900037D0FFE70098602840D0FFE70098702809
:1024A0000BD0FFE70098B0F5805F05D0FFE70098FC
:1024B000B0F5005F16D052E055E004980068039B29
:1024C0005A689968DB6800F063FC049800688068CB
:1024D0000190019840F077000190019804990968F3
:1024E000886040E004980068039B5A689968DB683C
:1024F00000F04EFC04980168886840F480408860D1
:1025000031E004980068039A5168D26800F0F4FD45
:1025100004980068502100F055FC24E004980068FD
:10252000039A5168D26800F00FFE04980068602199
:1025300000F048FC17E004980068039A5168D268DC
:1025400000F0DAFD04980068402100F03BFC0AE04E
:10255000049800680399096800F034FC03E0012046
:102560008DF80B00FFE70499012081F83D00FFE79B
:102570000499002081F83C00FFE79DF80B008DF8DE
:102580001700FFE79DF8170006B080BD80B588B042
:102590000790002006900590049003900290079801
:1025A0000068B0F1804F21D1FFE7FFE700200190E4
:1025B00043F63000C4F20200016841F001010160FD
:1025C000006800F0010001900198FFE708200290E8
:1025D0000220039000200490059001200690002026
:1025E000C4F2020002A9FEF7DDFCFFE708B080BDDF
:1025F00080B586B004900391029200208DF8070008
:10260000FFE7049890F83C00012804D1FFE702207E
:102610008DF8170089E00499012081F83C00FFE75C
:10262000FFE7029800900C2800F270800099DFE824
:1026300001F0076D6D6D206D6D6D3A6D6D6D530020
:1026400004980068039900F0D3FB04980168886936
:1026500040F00800886104980168886920F004004F
:102660008861039802690498016888691043886149
:1026700050E004980068039900F020FC0498016879
:10268000886940F40060886104980168886920F4D2
:10269000806088610398026904980168886940EA4B
:1026A0000220886136E004980068039900F070FC0D
:1026B00004980168C86940F00800C861049801687E
:1026C000C86920F00400C861039802690498016891
:1026D000C8691043C8611DE004980068039900F0C0
:1026E000C1FC04980168C86940F40060C86104989E
:1026F0000168C86920F48060C86103980269049881
:102700000168C86940EA0220C86103E001208DF831
:102710000700FFE7FFE70499002081F83C00FFE78E
:102720009DF807008DF81700FFE79DF8170006B029
:1027300080BD000080B582B00090009820B9FFE70E
:1027400001208DF807003FE0009890F83D0040B967
:10275000FFE70099002081F83C00009800F038F86D
:10276000FFE70099022081F83D00009951F8040B21
:1027700000F066FA0099012081F84600FFE7009911
:10278000012081F83E00009981F83F00009981F80E
:102790004000009981F84100FFE7FFE70099012020
:1027A00081F84200009981F84300009981F84400C3
:1027B000009981F84500FFE70099012081F83D006C
:1027C00000208DF80700FFE79DF8070002B080BDEC
:1027D00082B0019001980068B0F1804F12D1FFE7FC
:1027E000FFE70020009043F64000C4F202000168B9
:1027F00041F001010160006800F0010000900098C4
:10280000FFE7FFE702B07047FFE7FEE780B586B05D
:1028100000220092059204920392029240F270000C
:10282000C2F20000019042F20001C4F20101016015
:102830004FF48031416082600261027680F820208E
:10284000C2620121C0F600718162C2600121C161D2
:1028500080F830204161FEF797F818B1FFE7FDF7E7
:1028600073FFFFE70020029001210391049040F2E2
:102870007000C2F2000002A9FDF76AFF18B1FFE77D
:10288000FDF762FFFFE706B080BD000080B582B0B3
:10289000FFE70020019043F63000C4F20200016817
:1028A00041F480010160006800F48000019001980B
:1028B000FFE73820009000221146FEF76FFF0098D6
:1028C000FEF762FF02B080BD83B0FFE700200290F8
:1028D00043F63000C4F20200016841F0800101605B
:1028E000006800F0800002900298FFE7FFE70020F8
:1028F000019043F63000C4F20200016841F001018A
:102900000160006800F0010001900198FFE7FFE717
:102910000020009043F63000C4F20200016841F04C
:1029200002010160006800F0020000900098FFE7DB
:1029300003B0704780B582B040F21810C2F20000B8
:10294000019045F60001C4F20001016048F2A06167
:10295000C0F20101416000218160C1604FF48042FA
:10296000026141618161C1610162FEF7D3FC18B16E
:10297000FFE7FDF7E9FEFFE702B080BD80B58AB052
:102980000021009109910891079106910591049108
:1029900003910291019140F26C10C2F200004FF0DD
:1029A00080420260416081604FF0FF32C26001618D
:1029B0008161FFF7BFFE18B1FFE7FDF7C5FEFFE736
:1029C00000200890099040F26C10C2F2000008A9A3
:1029D000FFF72CFC18B1FFE7FDF7B6FEFFE760201C
:1029E0000190002002900390059040F26C10C2F21A
:1029F000000001A90C22FFF7FBFD18B1FFE7FDF76E
:102A0000A3FEFFE740F26C10C2F20000FFF7BEFD2C
:102A10000AB080BD80B588B0002101910791069170
:102A2000059104910391029140F2B410C2F20000AA
:102A300040F20042C4F20002026063224260816000
:102A40004FF6FF72C26001618161FFF76FFC18B140
:102A5000FFE7FDF779FEFFE74FF48050049040F266
:102A6000B410C2F2000004A9FFF7CEFC18B1FFE7D2
:102A7000FDF76AFEFFE700200290039040F2B410D9
:102A8000C2F2000002A9FFF7D1FB18B1FFE7FDF782
:102A90005BFEFFE708B080BDFFE7FEE7FFE7FEE76C
:102AA00088B0079006910592079800F007000490FF
:102AB0000498C0F10700052803D3FFE70420019024
:102AC00004E00498C0F107000190FFE7019803902B
:102AD00004980430062803D8FFE70020009003E0A4
:102AE000049803380090FFE7009802900698039935
:102AF000012202FA01F101390840029B9840059930
:102B00009A40013A1140084308B0704770470000EE
:102B10007047000080B582B0009000980138B0F195
:102B2000807F03D3FFE70120019019E0009801386E
:102B30004EF21401CEF2000108604FF0FF300F2179
:102B400000F04EFB4EF21801CEF2000100200860AA
:102B50004EF21002CEF20002072111600190FFE751
:102B6000019802B080BD000080B5FEF785FD80BDF4
:102B700080B594B008A83021FDF70CFC0020079028
:102B80000690059004900390FFE70020029043F622
:102B90004000C4F20200016841F080510160006809
:102BA00000F0805002900298FFE7FFE700200190BC
:102BB00047F20000C4F20000016841F440410160A6
:102BC000006800F4404001900198FFE70120089060
:102BD0004FF48030099002200E904FF480000F9047
:102BE000102010904FF480701190042012901390D8
:102BF00008A8FEF7B3FF18B1FFE7FDF7A5FDFFE753
:102C00000F20039002200490002005904FF4805183
:102C10000691079003A80321FEF7E2FD18B1FFE734
:102C2000FDF792FDFFE714B080BD00004EF688511D
:102C3000CEF20001086840F47000086070470000A0
:102C400083B00290019102980068009002980021E0
:102C5000C4F2010188421DD0FFE70298B0F1804F15
:102C600018D0FFE7029840F20041C4F20001884208
:102C700010D0FFE7029840F60001C4F2000188423C
:102C800008D0FFE7029840F60041C4F200018842F4
:102C90000AD1FFE7009820F0700000900198416889
:102CA000009808430090FFE702980021C4F2010158
:102CB000884235D0FFE70298B0F1804F30D0FFE76F
:102CC000029840F20041C4F20001884228D0FFE798
:102CD000029840F60001C4F20001884220D0FFE7CC
:102CE000029840F60041C4F20001884218D0FFE784
:102CF000029844F20001C4F20101884210D0FFE7BB
:102D0000029844F20041C4F20101884208D0FFE772
:102D1000029844F60001C4F2010188420AD1FFE79B
:102D2000009820F4407000900198C1680098084312
:102D30000090FFE7009820F080000199496908435E
:102D40000090009802990860019880680299C86212
:102D5000019800680299886202980021C4F201017A
:102D6000884205D1FFE70198006902990863FFE7EF
:102D700002990120486102980069C00730B1FFE75D
:102D80000299086920F001000861FFE703B070476D
:102D900085B004900391029201930498806800909A
:102DA000009820F47F40009003980299019A41EA2C
:102DB000022101430098084300900098049988601C
:102DC00005B0704783B0029001910298806800902E
:102DD000009820F07000009001980099084340F09E
:102DE0000700009000980299886003B070470000C7
:102DF00085B0049003910498006A01900499086AD0
:102E000020F00100086204984068009004988069EE
:102E10000290029820F070000290029820F00300C7
:102E2000029003980168029808430290019820F0EC
:102E3000020001900398816801980843019004986A
:102E40000021C4F2010188420ED1FFE7019820F071
:102E5000080001900398C168019808430190019807
:102E600020F004000190FFE704980021C4F2010162
:102E7000884213D1FFE7009820F4807000900098FA
:102E800020F4007000900398416900980843009076
:102E900003988169009808430090FFE7009804991F
:102EA00048600298049988610398406804994863CF
:102EB00001980499086205B07047000085B004903D
:102EC00003910498006A01900499086A20F01000A8
:102ED0000862049840680090049880690290029803
:102EE00020F4E0400290029820F440700290039891
:102EF0000168029840EA01200290019820F0200029
:102F0000019003988168019840EA011001900498AB
:102F10000021C4F2010188420FD1FFE7019820F09F
:102F2000800001900398C168019840EA0110019067
:102F3000019820F040000190FFE704980021C4F2BE
:102F40000101884215D1FFE7009820F480600090CD
:102F5000009820F40060009003984169009840EACE
:102F60008100009003988169009840EA81000090F8
:102F7000FFE70098049948600298049988610398D3
:102F800040680499886301980499086205B0704705
:102F900085B0049003910498006A01900499086A2E
:102FA00020F4807008620498406800900498C0691A
:102FB0000290029820F070000290029820F0030026
:102FC000029003980168029808430290019820F447
:102FD0000070019003988168019840EA01200190F7
:102FE00004980021C4F2010188420FD1FFE7019843
:102FF00020F4006001900398C168019840EA012024
:103000000190019820F480600190FFE7049800216E
:10301000C4F20101884215D1FFE7009820F48050E6
:103020000090009820F400500090039841690098A7
:1030300040EA0110009003988169009840EA01106D
:103040000090FFE700980499486002980499C861CD
:10305000039840680499C86301980499086205B010
:103060007047000085B0049003910498006A0190B5
:103070000499086A20F4805008620498406800901F
:103080000498C0690290029820F4E04002900298EF
:1030900020F44070029003980168029840EA0120F1
:1030A0000290019820F400500190039881680198E3
:1030B00040EA0130019004980021C4F201018842E5
:1030C0000BD1FFE7009820F48040009003984169FD
:1030D000009840EA81100090FFE70098049948604A
:1030E00002980499C861039840680499086401989B
:1030F0000499086205B0704785B00490039102926C
:103100000498006A00900499086A20F0010008629F
:10311000049880690190019820F0F00001900299D4
:10312000019840EA01100190009820F00A000090F8
:1031300003990098084300900198049988610098C9
:103140000499086205B0704785B00490039102921B
:103150000498006A00900499086A20F01000086240
:10316000049880690190019820F4704001900299C0
:10317000019840EA01300190009820F0A0000090F2
:103180000399009840EA0110009001980499886121
:1031900000980499086205B070470000FFE7FEE759
:1031A00081B08DF803009DF9030000280ED4FFE7DD
:1031B0009DF9031001F01F02012090404A094EF2D0
:1031C0000011CEF2000141F82200FFE701B0704784
:1031D0004EF60C50CEF200000068C0F3022070479B
:1031E00082B08DF8070000919DF9070000280AD4ED
:1031F000FFE7009800019DF907104EF20042CEF261
:10320000000288540BE0009800019DF8071001F0BF
:103210000F014EF61452CEF200028854FFE702B0BE
:103220007047000083B00290029800F00700009001
:103230004EF60C51CEF200010868019001984FF64D
:10324000FF02104001900198009A40EA02200022FB
:10325000C0F2FA52104301900198086003B0704721
:1032600080B582B000200190FEF714FAFFF780FCD1
:10327000FFF72AFBFFF70AFBFFF7C8FAFFF77EFB11
:10328000FFF758FBFFF7C6FBFFE7FEE7F1EE100A7A
:103290004FF6FF71C0F2C03120EA010040F04070EB
:1032A000E1EE100A7047000000000000000001027B
:1032B00003040607080900000000010203040006D9
:1032C0001016000610160000E8320008000000206A
:1032D00010000000FC010008F83200081000002077
:1032E000F00700001C0200080024F40001000000A8
:0832F0001000000000000000C6
:040000050800019955
:00000001FF
